{
	"contracts/nuaa_swap.sol": {
		"NuaaSwap": {
			"abi": [
				{
					"inputs": [
						{
							"internalType": "address",
							"name": "_token0",
							"type": "address"
						},
						{
							"internalType": "address",
							"name": "_token1",
							"type": "address"
						}
					],
					"stateMutability": "nonpayable",
					"type": "constructor"
				},
				{
					"anonymous": false,
					"inputs": [
						{
							"indexed": true,
							"internalType": "address",
							"name": "oldFeeTo",
							"type": "address"
						},
						{
							"indexed": true,
							"internalType": "address",
							"name": "newFeeTo",
							"type": "address"
						}
					],
					"name": "FeeToSet",
					"type": "event"
				},
				{
					"anonymous": false,
					"inputs": [
						{
							"indexed": true,
							"internalType": "address",
							"name": "provider",
							"type": "address"
						},
						{
							"indexed": false,
							"internalType": "uint256",
							"name": "amount0",
							"type": "uint256"
						},
						{
							"indexed": false,
							"internalType": "uint256",
							"name": "amount1",
							"type": "uint256"
						},
						{
							"indexed": false,
							"internalType": "uint256",
							"name": "shares",
							"type": "uint256"
						}
					],
					"name": "LiquidityAdded",
					"type": "event"
				},
				{
					"anonymous": false,
					"inputs": [
						{
							"indexed": true,
							"internalType": "address",
							"name": "provider",
							"type": "address"
						},
						{
							"indexed": false,
							"internalType": "uint256",
							"name": "amount0",
							"type": "uint256"
						},
						{
							"indexed": false,
							"internalType": "uint256",
							"name": "amount1",
							"type": "uint256"
						}
					],
					"name": "LiquidityRemoved",
					"type": "event"
				},
				{
					"anonymous": false,
					"inputs": [
						{
							"indexed": true,
							"internalType": "address",
							"name": "previousOwner",
							"type": "address"
						},
						{
							"indexed": true,
							"internalType": "address",
							"name": "newOwner",
							"type": "address"
						}
					],
					"name": "OwnershipTransferred",
					"type": "event"
				},
				{
					"anonymous": false,
					"inputs": [
						{
							"indexed": false,
							"internalType": "address",
							"name": "account",
							"type": "address"
						}
					],
					"name": "Paused",
					"type": "event"
				},
				{
					"anonymous": false,
					"inputs": [
						{
							"indexed": false,
							"internalType": "uint256",
							"name": "oldFee",
							"type": "uint256"
						},
						{
							"indexed": false,
							"internalType": "uint256",
							"name": "newFee",
							"type": "uint256"
						}
					],
					"name": "ProtocolFeeSet",
					"type": "event"
				},
				{
					"anonymous": false,
					"inputs": [
						{
							"indexed": true,
							"internalType": "address",
							"name": "user",
							"type": "address"
						},
						{
							"indexed": true,
							"internalType": "address",
							"name": "tokenIn",
							"type": "address"
						},
						{
							"indexed": false,
							"internalType": "uint256",
							"name": "amountIn",
							"type": "uint256"
						},
						{
							"indexed": true,
							"internalType": "address",
							"name": "tokenOut",
							"type": "address"
						},
						{
							"indexed": false,
							"internalType": "uint256",
							"name": "amountOut",
							"type": "uint256"
						}
					],
					"name": "Swapped",
					"type": "event"
				},
				{
					"anonymous": false,
					"inputs": [
						{
							"indexed": false,
							"internalType": "address",
							"name": "account",
							"type": "address"
						}
					],
					"name": "Unpaused",
					"type": "event"
				},
				{
					"inputs": [
						{
							"internalType": "uint256",
							"name": "_amount0",
							"type": "uint256"
						},
						{
							"internalType": "uint256",
							"name": "_amount1",
							"type": "uint256"
						}
					],
					"name": "add_liquidity",
					"outputs": [
						{
							"internalType": "uint256",
							"name": "shares",
							"type": "uint256"
						}
					],
					"stateMutability": "nonpayable",
					"type": "function"
				},
				{
					"inputs": [],
					"name": "feeTo",
					"outputs": [
						{
							"internalType": "address",
							"name": "",
							"type": "address"
						}
					],
					"stateMutability": "view",
					"type": "function"
				},
				{
					"inputs": [
						{
							"internalType": "address",
							"name": "",
							"type": "address"
						}
					],
					"name": "liquidityShares",
					"outputs": [
						{
							"internalType": "uint256",
							"name": "",
							"type": "uint256"
						}
					],
					"stateMutability": "view",
					"type": "function"
				},
				{
					"inputs": [],
					"name": "owner",
					"outputs": [
						{
							"internalType": "address",
							"name": "",
							"type": "address"
						}
					],
					"stateMutability": "view",
					"type": "function"
				},
				{
					"inputs": [],
					"name": "pause",
					"outputs": [],
					"stateMutability": "nonpayable",
					"type": "function"
				},
				{
					"inputs": [],
					"name": "paused",
					"outputs": [
						{
							"internalType": "bool",
							"name": "",
							"type": "bool"
						}
					],
					"stateMutability": "view",
					"type": "function"
				},
				{
					"inputs": [],
					"name": "protocolFeeBps",
					"outputs": [
						{
							"internalType": "uint256",
							"name": "",
							"type": "uint256"
						}
					],
					"stateMutability": "view",
					"type": "function"
				},
				{
					"inputs": [
						{
							"internalType": "uint256",
							"name": "_shares",
							"type": "uint256"
						}
					],
					"name": "remove_liquidity",
					"outputs": [
						{
							"internalType": "uint256",
							"name": "amount0",
							"type": "uint256"
						},
						{
							"internalType": "uint256",
							"name": "amount1",
							"type": "uint256"
						}
					],
					"stateMutability": "nonpayable",
					"type": "function"
				},
				{
					"inputs": [],
					"name": "renounceOwnership",
					"outputs": [],
					"stateMutability": "nonpayable",
					"type": "function"
				},
				{
					"inputs": [],
					"name": "reserve0",
					"outputs": [
						{
							"internalType": "uint256",
							"name": "",
							"type": "uint256"
						}
					],
					"stateMutability": "view",
					"type": "function"
				},
				{
					"inputs": [],
					"name": "reserve1",
					"outputs": [
						{
							"internalType": "uint256",
							"name": "",
							"type": "uint256"
						}
					],
					"stateMutability": "view",
					"type": "function"
				},
				{
					"inputs": [
						{
							"internalType": "address",
							"name": "_newFeeTo",
							"type": "address"
						}
					],
					"name": "setFeeTo",
					"outputs": [],
					"stateMutability": "nonpayable",
					"type": "function"
				},
				{
					"inputs": [
						{
							"internalType": "uint256",
							"name": "_newFeeBps",
							"type": "uint256"
						}
					],
					"name": "setProtocolFee",
					"outputs": [],
					"stateMutability": "nonpayable",
					"type": "function"
				},
				{
					"inputs": [
						{
							"internalType": "address",
							"name": "_tokenIn",
							"type": "address"
						},
						{
							"internalType": "uint256",
							"name": "_amountIn",
							"type": "uint256"
						},
						{
							"internalType": "uint256",
							"name": "_minAmountOut",
							"type": "uint256"
						},
						{
							"internalType": "uint256",
							"name": "_deadline",
							"type": "uint256"
						}
					],
					"name": "swap",
					"outputs": [
						{
							"internalType": "uint256",
							"name": "amountOut",
							"type": "uint256"
						}
					],
					"stateMutability": "nonpayable",
					"type": "function"
				},
				{
					"inputs": [],
					"name": "token0",
					"outputs": [
						{
							"internalType": "address",
							"name": "",
							"type": "address"
						}
					],
					"stateMutability": "view",
					"type": "function"
				},
				{
					"inputs": [],
					"name": "token1",
					"outputs": [
						{
							"internalType": "address",
							"name": "",
							"type": "address"
						}
					],
					"stateMutability": "view",
					"type": "function"
				},
				{
					"inputs": [],
					"name": "totalShares",
					"outputs": [
						{
							"internalType": "uint256",
							"name": "",
							"type": "uint256"
						}
					],
					"stateMutability": "view",
					"type": "function"
				},
				{
					"inputs": [
						{
							"internalType": "address",
							"name": "newOwner",
							"type": "address"
						}
					],
					"name": "transferOwnership",
					"outputs": [],
					"stateMutability": "nonpayable",
					"type": "function"
				},
				{
					"inputs": [],
					"name": "unpause",
					"outputs": [],
					"stateMutability": "nonpayable",
					"type": "function"
				}
			],
			"devdoc": {
				"events": {
					"Paused(address)": {
						"details": "Emitted when the pause is triggered by `account`."
					},
					"Unpaused(address)": {
						"details": "Emitted when the pause is lifted by `account`."
					}
				},
				"kind": "dev",
				"methods": {
					"owner()": {
						"details": "Returns the address of the current owner."
					},
					"paused()": {
						"details": "Returns true if the contract is paused, and false otherwise."
					},
					"renounceOwnership()": {
						"details": "Leaves the contract without owner. It will not be possible to call `onlyOwner` functions. Can only be called by the current owner. NOTE: Renouncing ownership will leave the contract without an owner, thereby disabling any functionality that is only available to the owner."
					},
					"transferOwnership(address)": {
						"details": "Transfers ownership of the contract to a new account (`newOwner`). Can only be called by the current owner."
					}
				},
				"version": 1
			},
			"evm": {
				"assembly": "    /* \"contracts/nuaa_swap.sol\":700:6187  contract NuaaSwap is Ownable, Pausable, ReentrancyGuard {... */\n  mstore(0x40, 0xc0)\n    /* \"contracts/nuaa_swap.sol\":1598:1706  constructor(address _token0, address _token1) {... */\n  callvalue\n  dup1\n  iszero\n  tag_1\n  jumpi\n  revert(0x00, 0x00)\ntag_1:\n  pop\n  mload(0x40)\n  sub(codesize, bytecodeSize)\n  dup1\n  bytecodeSize\n  dup4\n  codecopy\n  dup2\n  dup2\n  add\n  0x40\n  mstore\n  dup2\n  add\n  swap1\n  tag_2\n  swap2\n  swap1\n  tag_3\n  jump\t// in\ntag_2:\n    /* \"https://github.com/OpenZeppelin/openzeppelin-contracts/blob/v4.9.3/contracts/access/Ownable.sol\":936:968  _transferOwnership(_msgSender()) */\n  tag_9\n    /* \"https://github.com/OpenZeppelin/openzeppelin-contracts/blob/v4.9.3/contracts/access/Ownable.sol\":955:967  _msgSender() */\n  tag_10\n    /* \"https://github.com/OpenZeppelin/openzeppelin-contracts/blob/v4.9.3/contracts/access/Ownable.sol\":955:965  _msgSender */\n  shl(0x20, tag_11)\n    /* \"https://github.com/OpenZeppelin/openzeppelin-contracts/blob/v4.9.3/contracts/access/Ownable.sol\":955:967  _msgSender() */\n  0x20\n  shr\n  jump\t// in\ntag_10:\n    /* \"https://github.com/OpenZeppelin/openzeppelin-contracts/blob/v4.9.3/contracts/access/Ownable.sol\":936:954  _transferOwnership */\n  shl(0x20, tag_12)\n    /* \"https://github.com/OpenZeppelin/openzeppelin-contracts/blob/v4.9.3/contracts/access/Ownable.sol\":936:968  _transferOwnership(_msgSender()) */\n  0x20\n  shr\n  jump\t// in\ntag_9:\n    /* \"https://github.com/OpenZeppelin/openzeppelin-contracts/blob/v4.9.3/contracts/security/Pausable.sol\":1006:1011  false */\n  0x00\n    /* \"https://github.com/OpenZeppelin/openzeppelin-contracts/blob/v4.9.3/contracts/security/Pausable.sol\":996:1003  _paused */\n  0x00\n  0x14\n    /* \"https://github.com/OpenZeppelin/openzeppelin-contracts/blob/v4.9.3/contracts/security/Pausable.sol\":996:1011  _paused = false */\n  0x0100\n  exp\n  dup2\n  sload\n  dup2\n  0xff\n  mul\n  not\n  and\n  swap1\n  dup4\n  iszero\n  iszero\n  mul\n  or\n  swap1\n  sstore\n  pop\n    /* \"https://github.com/OpenZeppelin/openzeppelin-contracts/blob/v4.9.3/contracts/security/ReentrancyGuard.sol\":1716:1717  1 */\n  0x01\n    /* \"https://github.com/OpenZeppelin/openzeppelin-contracts/blob/v4.9.3/contracts/security/ReentrancyGuard.sol\":1821:1828  _status */\n  dup1\n    /* \"https://github.com/OpenZeppelin/openzeppelin-contracts/blob/v4.9.3/contracts/security/ReentrancyGuard.sol\":1821:1843  _status = _NOT_ENTERED */\n  dup2\n  swap1\n  sstore\n  pop\n    /* \"contracts/nuaa_swap.sol\":1664:1671  _token0 */\n  dup2\n    /* \"contracts/nuaa_swap.sol\":1655:1671  token0 = _token0 */\n  0xffffffffffffffffffffffffffffffffffffffff\n  and\n  0x80\n  dup2\n  0xffffffffffffffffffffffffffffffffffffffff\n  and\n  dup2\n  mstore\n  pop\n  pop\n    /* \"contracts/nuaa_swap.sol\":1691:1698  _token1 */\n  dup1\n    /* \"contracts/nuaa_swap.sol\":1682:1698  token1 = _token1 */\n  0xffffffffffffffffffffffffffffffffffffffff\n  and\n  0xa0\n  dup2\n  0xffffffffffffffffffffffffffffffffffffffff\n  and\n  dup2\n  mstore\n  pop\n  pop\n    /* \"contracts/nuaa_swap.sol\":1598:1706  constructor(address _token0, address _token1) {... */\n  pop\n  pop\n    /* \"contracts/nuaa_swap.sol\":700:6187  contract NuaaSwap is Ownable, Pausable, ReentrancyGuard {... */\n  jump(tag_16)\n    /* \"https://github.com/OpenZeppelin/openzeppelin-contracts/blob/v4.9.3/contracts/utils/Context.sol\":640:736  function _msgSender() internal view virtual returns (address) {... */\ntag_11:\n    /* \"https://github.com/OpenZeppelin/openzeppelin-contracts/blob/v4.9.3/contracts/utils/Context.sol\":693:700  address */\n  0x00\n    /* \"https://github.com/OpenZeppelin/openzeppelin-contracts/blob/v4.9.3/contracts/utils/Context.sol\":719:729  msg.sender */\n  caller\n    /* \"https://github.com/OpenZeppelin/openzeppelin-contracts/blob/v4.9.3/contracts/utils/Context.sol\":712:729  return msg.sender */\n  swap1\n  pop\n    /* \"https://github.com/OpenZeppelin/openzeppelin-contracts/blob/v4.9.3/contracts/utils/Context.sol\":640:736  function _msgSender() internal view virtual returns (address) {... */\n  swap1\n  jump\t// out\n    /* \"https://github.com/OpenZeppelin/openzeppelin-contracts/blob/v4.9.3/contracts/access/Ownable.sol\":2426:2613  function _transferOwnership(address newOwner) internal virtual {... */\ntag_12:\n    /* \"https://github.com/OpenZeppelin/openzeppelin-contracts/blob/v4.9.3/contracts/access/Ownable.sol\":2499:2515  address oldOwner */\n  0x00\n    /* \"https://github.com/OpenZeppelin/openzeppelin-contracts/blob/v4.9.3/contracts/access/Ownable.sol\":2518:2524  _owner */\n  0x00\n  0x00\n  swap1\n  sload\n  swap1\n  0x0100\n  exp\n  swap1\n  div\n  0xffffffffffffffffffffffffffffffffffffffff\n  and\n    /* \"https://github.com/OpenZeppelin/openzeppelin-contracts/blob/v4.9.3/contracts/access/Ownable.sol\":2499:2524  address oldOwner = _owner */\n  swap1\n  pop\n    /* \"https://github.com/OpenZeppelin/openzeppelin-contracts/blob/v4.9.3/contracts/access/Ownable.sol\":2543:2551  newOwner */\n  dup2\n    /* \"https://github.com/OpenZeppelin/openzeppelin-contracts/blob/v4.9.3/contracts/access/Ownable.sol\":2534:2540  _owner */\n  0x00\n  0x00\n    /* \"https://github.com/OpenZeppelin/openzeppelin-contracts/blob/v4.9.3/contracts/access/Ownable.sol\":2534:2551  _owner = newOwner */\n  0x0100\n  exp\n  dup2\n  sload\n  dup2\n  0xffffffffffffffffffffffffffffffffffffffff\n  mul\n  not\n  and\n  swap1\n  dup4\n  0xffffffffffffffffffffffffffffffffffffffff\n  and\n  mul\n  or\n  swap1\n  sstore\n  pop\n    /* \"https://github.com/OpenZeppelin/openzeppelin-contracts/blob/v4.9.3/contracts/access/Ownable.sol\":2597:2605  newOwner */\n  dup2\n    /* \"https://github.com/OpenZeppelin/openzeppelin-contracts/blob/v4.9.3/contracts/access/Ownable.sol\":2566:2606  OwnershipTransferred(oldOwner, newOwner) */\n  0xffffffffffffffffffffffffffffffffffffffff\n  and\n    /* \"https://github.com/OpenZeppelin/openzeppelin-contracts/blob/v4.9.3/contracts/access/Ownable.sol\":2587:2595  oldOwner */\n  dup2\n    /* \"https://github.com/OpenZeppelin/openzeppelin-contracts/blob/v4.9.3/contracts/access/Ownable.sol\":2566:2606  OwnershipTransferred(oldOwner, newOwner) */\n  0xffffffffffffffffffffffffffffffffffffffff\n  and\n  0x8be0079c531659141344cd1fd0a4f28419497f9722a3daafe3b4186f6b6457e0\n  mload(0x40)\n  mload(0x40)\n  dup1\n  swap2\n  sub\n  swap1\n  log3\n    /* \"https://github.com/OpenZeppelin/openzeppelin-contracts/blob/v4.9.3/contracts/access/Ownable.sol\":2489:2613  {... */\n  pop\n    /* \"https://github.com/OpenZeppelin/openzeppelin-contracts/blob/v4.9.3/contracts/access/Ownable.sol\":2426:2613  function _transferOwnership(address newOwner) internal virtual {... */\n  pop\n  jump\t// out\n    /* \"#utility.yul\":88:205   */\ntag_20:\n    /* \"#utility.yul\":197:198   */\n  0x00\n    /* \"#utility.yul\":194:195   */\n  0x00\n    /* \"#utility.yul\":187:199   */\n  revert\n    /* \"#utility.yul\":334:460   */\ntag_22:\n    /* \"#utility.yul\":371:378   */\n  0x00\n    /* \"#utility.yul\":411:453   */\n  0xffffffffffffffffffffffffffffffffffffffff\n    /* \"#utility.yul\":404:409   */\n  dup3\n    /* \"#utility.yul\":400:454   */\n  and\n    /* \"#utility.yul\":389:454   */\n  swap1\n  pop\n    /* \"#utility.yul\":334:460   */\n  swap2\n  swap1\n  pop\n  jump\t// out\n    /* \"#utility.yul\":466:562   */\ntag_23:\n    /* \"#utility.yul\":503:510   */\n  0x00\n    /* \"#utility.yul\":532:556   */\n  tag_32\n    /* \"#utility.yul\":550:555   */\n  dup3\n    /* \"#utility.yul\":532:556   */\n  tag_22\n  jump\t// in\ntag_32:\n    /* \"#utility.yul\":521:556   */\n  swap1\n  pop\n    /* \"#utility.yul\":466:562   */\n  swap2\n  swap1\n  pop\n  jump\t// out\n    /* \"#utility.yul\":568:690   */\ntag_24:\n    /* \"#utility.yul\":641:665   */\n  tag_34\n    /* \"#utility.yul\":659:664   */\n  dup2\n    /* \"#utility.yul\":641:665   */\n  tag_23\n  jump\t// in\ntag_34:\n    /* \"#utility.yul\":634:639   */\n  dup2\n    /* \"#utility.yul\":631:666   */\n  eq\n    /* \"#utility.yul\":621:684   */\n  tag_35\n  jumpi\n    /* \"#utility.yul\":680:681   */\n  0x00\n    /* \"#utility.yul\":677:678   */\n  0x00\n    /* \"#utility.yul\":670:682   */\n  revert\n    /* \"#utility.yul\":621:684   */\ntag_35:\n    /* \"#utility.yul\":568:690   */\n  pop\n  jump\t// out\n    /* \"#utility.yul\":696:839   */\ntag_25:\n    /* \"#utility.yul\":753:758   */\n  0x00\n    /* \"#utility.yul\":784:790   */\n  dup2\n    /* \"#utility.yul\":778:791   */\n  mload\n    /* \"#utility.yul\":769:791   */\n  swap1\n  pop\n    /* \"#utility.yul\":800:833   */\n  tag_37\n    /* \"#utility.yul\":827:832   */\n  dup2\n    /* \"#utility.yul\":800:833   */\n  tag_24\n  jump\t// in\ntag_37:\n    /* \"#utility.yul\":696:839   */\n  swap3\n  swap2\n  pop\n  pop\n  jump\t// out\n    /* \"#utility.yul\":845:1352   */\ntag_3:\n    /* \"#utility.yul\":924:930   */\n  0x00\n    /* \"#utility.yul\":932:938   */\n  0x00\n    /* \"#utility.yul\":981:983   */\n  0x40\n    /* \"#utility.yul\":969:978   */\n  dup4\n    /* \"#utility.yul\":960:967   */\n  dup6\n    /* \"#utility.yul\":956:979   */\n  sub\n    /* \"#utility.yul\":952:984   */\n  slt\n    /* \"#utility.yul\":949:1068   */\n  iszero\n  tag_39\n  jumpi\n    /* \"#utility.yul\":987:1066   */\n  tag_40\n  tag_20\n  jump\t// in\ntag_40:\n    /* \"#utility.yul\":949:1068   */\ntag_39:\n    /* \"#utility.yul\":1107:1108   */\n  0x00\n    /* \"#utility.yul\":1132:1196   */\n  tag_41\n    /* \"#utility.yul\":1188:1195   */\n  dup6\n    /* \"#utility.yul\":1179:1185   */\n  dup3\n    /* \"#utility.yul\":1168:1177   */\n  dup7\n    /* \"#utility.yul\":1164:1186   */\n  add\n    /* \"#utility.yul\":1132:1196   */\n  tag_25\n  jump\t// in\ntag_41:\n    /* \"#utility.yul\":1122:1196   */\n  swap3\n  pop\n    /* \"#utility.yul\":1078:1206   */\n  pop\n    /* \"#utility.yul\":1245:1247   */\n  0x20\n    /* \"#utility.yul\":1271:1335   */\n  tag_42\n    /* \"#utility.yul\":1327:1334   */\n  dup6\n    /* \"#utility.yul\":1318:1324   */\n  dup3\n    /* \"#utility.yul\":1307:1316   */\n  dup7\n    /* \"#utility.yul\":1303:1325   */\n  add\n    /* \"#utility.yul\":1271:1335   */\n  tag_25\n  jump\t// in\ntag_42:\n    /* \"#utility.yul\":1261:1335   */\n  swap2\n  pop\n    /* \"#utility.yul\":1216:1345   */\n  pop\n    /* \"#utility.yul\":845:1352   */\n  swap3\n  pop\n  swap3\n  swap1\n  pop\n  jump\t// out\n    /* \"contracts/nuaa_swap.sol\":700:6187  contract NuaaSwap is Ownable, Pausable, ReentrancyGuard {... */\ntag_16:\n  mload(0x80)\n  mload(0xa0)\n  codecopy(0x00, dataOffset(sub_0), dataSize(sub_0))\n  0x00\n  assignImmutable(\"0xccb1f717aa77602faf03a594761a36956b1c4cf44c6b336d1db57da799b331b8\")\n  0x00\n  assignImmutable(\"0x880de8116b3dfac28e9ff528a9fef1d1e0a51449c1addce011ffec1f302992b6\")\n  return(0x00, dataSize(sub_0))\nstop\n\nsub_0: assembly {\n        /* \"contracts/nuaa_swap.sol\":700:6187  contract NuaaSwap is Ownable, Pausable, ReentrancyGuard {... */\n      mstore(0x40, 0x80)\n      callvalue\n      dup1\n      iszero\n      tag_1\n      jumpi\n      revert(0x00, 0x00)\n    tag_1:\n      pop\n      jumpi(tag_2, lt(calldatasize, 0x04))\n      shr(0xe0, calldataload(0x00))\n      dup1\n      0x787dce3d\n      gt\n      tag_22\n      jumpi\n      dup1\n      0xc4adc97b\n      gt\n      tag_23\n      jumpi\n      dup1\n      0xc4adc97b\n      eq\n      tag_17\n      jumpi\n      dup1\n      0xc9ec9248\n      eq\n      tag_18\n      jumpi\n      dup1\n      0xd21220a7\n      eq\n      tag_19\n      jumpi\n      dup1\n      0xf2fde38b\n      eq\n      tag_20\n      jumpi\n      dup1\n      0xf46901ed\n      eq\n      tag_21\n      jumpi\n      jump(tag_2)\n    tag_23:\n      dup1\n      0x787dce3d\n      eq\n      tag_12\n      jumpi\n      dup1\n      0x8456cb59\n      eq\n      tag_13\n      jumpi\n      dup1\n      0x8da5cb5b\n      eq\n      tag_14\n      jumpi\n      dup1\n      0x978ae06f\n      eq\n      tag_15\n      jumpi\n      dup1\n      0x9db4aa04\n      eq\n      tag_16\n      jumpi\n      jump(tag_2)\n    tag_22:\n      dup1\n      0x3f4ba83a\n      gt\n      tag_24\n      jumpi\n      dup1\n      0x3f4ba83a\n      eq\n      tag_7\n      jumpi\n      dup1\n      0x443cb4bc\n      eq\n      tag_8\n      jumpi\n      dup1\n      0x5a76f25e\n      eq\n      tag_9\n      jumpi\n      dup1\n      0x5c975abb\n      eq\n      tag_10\n      jumpi\n      dup1\n      0x715018a6\n      eq\n      tag_11\n      jumpi\n      jump(tag_2)\n    tag_24:\n      dup1\n      0x017e7e58\n      eq\n      tag_3\n      jumpi\n      dup1\n      0x0dfe1681\n      eq\n      tag_4\n      jumpi\n      dup1\n      0x35659fb8\n      eq\n      tag_5\n      jumpi\n      dup1\n      0x3a98ef39\n      eq\n      tag_6\n      jumpi\n    tag_2:\n      revert(0x00, 0x00)\n        /* \"contracts/nuaa_swap.sol\":1053:1073  address public feeTo */\n    tag_3:\n      tag_25\n      tag_26\n      jump\t// in\n    tag_25:\n      mload(0x40)\n      tag_27\n      swap2\n      swap1\n      tag_28\n      jump\t// in\n    tag_27:\n      mload(0x40)\n      dup1\n      swap2\n      sub\n      swap1\n      return\n        /* \"contracts/nuaa_swap.sol\":763:794  address public immutable token0 */\n    tag_4:\n      tag_29\n      tag_30\n      jump\t// in\n    tag_29:\n      mload(0x40)\n      tag_31\n      swap2\n      swap1\n      tag_28\n      jump\t// in\n    tag_31:\n      mload(0x40)\n      dup1\n      swap2\n      sub\n      swap1\n      return\n        /* \"contracts/nuaa_swap.sol\":1105:1134  uint256 public protocolFeeBps */\n    tag_5:\n      tag_32\n      tag_33\n      jump\t// in\n    tag_32:\n      mload(0x40)\n      tag_34\n      swap2\n      swap1\n      tag_35\n      jump\t// in\n    tag_34:\n      mload(0x40)\n      dup1\n      swap2\n      sub\n      swap1\n      return\n        /* \"contracts/nuaa_swap.sol\":1021:1044  uint public totalShares */\n    tag_6:\n      tag_36\n      tag_37\n      jump\t// in\n    tag_36:\n      mload(0x40)\n      tag_38\n      swap2\n      swap1\n      tag_35\n      jump\t// in\n    tag_38:\n      mload(0x40)\n      dup1\n      swap2\n      sub\n      swap1\n      return\n        /* \"contracts/nuaa_swap.sol\":5242:5307  function unpause() public onlyOwner {... */\n    tag_7:\n      tag_39\n      tag_40\n      jump\t// in\n    tag_39:\n      stop\n        /* \"contracts/nuaa_swap.sol\":901:924  uint256 public reserve0 */\n    tag_8:\n      tag_41\n      tag_42\n      jump\t// in\n    tag_41:\n      mload(0x40)\n      tag_43\n      swap2\n      swap1\n      tag_35\n      jump\t// in\n    tag_43:\n      mload(0x40)\n      dup1\n      swap2\n      sub\n      swap1\n      return\n        /* \"contracts/nuaa_swap.sol\":931:954  uint256 public reserve1 */\n    tag_9:\n      tag_44\n      tag_45\n      jump\t// in\n    tag_44:\n      mload(0x40)\n      tag_46\n      swap2\n      swap1\n      tag_35\n      jump\t// in\n    tag_46:\n      mload(0x40)\n      dup1\n      swap2\n      sub\n      swap1\n      return\n        /* \"https://github.com/OpenZeppelin/openzeppelin-contracts/blob/v4.9.3/contracts/security/Pausable.sol\":1615:1699  function paused() public view virtual returns (bool) {... */\n    tag_10:\n      tag_47\n      tag_48\n      jump\t// in\n    tag_47:\n      mload(0x40)\n      tag_49\n      swap2\n      swap1\n      tag_50\n      jump\t// in\n    tag_49:\n      mload(0x40)\n      dup1\n      swap2\n      sub\n      swap1\n      return\n        /* \"https://github.com/OpenZeppelin/openzeppelin-contracts/blob/v4.9.3/contracts/access/Ownable.sol\":1824:1925  function renounceOwnership() public virtual onlyOwner {... */\n    tag_11:\n      tag_51\n      tag_52\n      jump\t// in\n    tag_51:\n      stop\n        /* \"contracts/nuaa_swap.sol\":5493:5770  function setProtocolFee(uint256 _newFeeBps) public onlyOwner {... */\n    tag_12:\n      tag_53\n      0x04\n      dup1\n      calldatasize\n      sub\n      dup2\n      add\n      swap1\n      tag_54\n      swap2\n      swap1\n      tag_55\n      jump\t// in\n    tag_54:\n      tag_56\n      jump\t// in\n    tag_53:\n      stop\n        /* \"contracts/nuaa_swap.sol\":5173:5234  function pause() public onlyOwner {... */\n    tag_13:\n      tag_57\n      tag_58\n      jump\t// in\n    tag_57:\n      stop\n        /* \"https://github.com/OpenZeppelin/openzeppelin-contracts/blob/v4.9.3/contracts/access/Ownable.sol\":1201:1286  function owner() public view virtual returns (address) {... */\n    tag_14:\n      tag_59\n      tag_60\n      jump\t// in\n    tag_59:\n      mload(0x40)\n      tag_61\n      swap2\n      swap1\n      tag_28\n      jump\t// in\n    tag_61:\n      mload(0x40)\n      dup1\n      swap2\n      sub\n      swap1\n      return\n        /* \"contracts/nuaa_swap.sol\":2778:3449  function remove_liquidity(uint _shares) ... */\n    tag_15:\n      tag_62\n      0x04\n      dup1\n      calldatasize\n      sub\n      dup2\n      add\n      swap1\n      tag_63\n      swap2\n      swap1\n      tag_55\n      jump\t// in\n    tag_63:\n      tag_64\n      jump\t// in\n    tag_62:\n      mload(0x40)\n      tag_65\n      swap3\n      swap2\n      swap1\n      tag_66\n      jump\t// in\n    tag_65:\n      mload(0x40)\n      dup1\n      swap2\n      sub\n      swap1\n      return\n        /* \"contracts/nuaa_swap.sol\":967:1014  mapping(address => uint) public liquidityShares */\n    tag_16:\n      tag_67\n      0x04\n      dup1\n      calldatasize\n      sub\n      dup2\n      add\n      swap1\n      tag_68\n      swap2\n      swap1\n      tag_69\n      jump\t// in\n    tag_68:\n      tag_70\n      jump\t// in\n    tag_67:\n      mload(0x40)\n      tag_71\n      swap2\n      swap1\n      tag_35\n      jump\t// in\n    tag_71:\n      mload(0x40)\n      dup1\n      swap2\n      sub\n      swap1\n      return\n        /* \"contracts/nuaa_swap.sol\":1882:2766  function add_liquidity(uint _amount0, uint _amount1) ... */\n    tag_17:\n      tag_72\n      0x04\n      dup1\n      calldatasize\n      sub\n      dup2\n      add\n      swap1\n      tag_73\n      swap2\n      swap1\n      tag_74\n      jump\t// in\n    tag_73:\n      tag_75\n      jump\t// in\n    tag_72:\n      mload(0x40)\n      tag_76\n      swap2\n      swap1\n      tag_35\n      jump\t// in\n    tag_76:\n      mload(0x40)\n      dup1\n      swap2\n      sub\n      swap1\n      return\n        /* \"contracts/nuaa_swap.sol\":3457:5144  function swap(... */\n    tag_18:\n      tag_77\n      0x04\n      dup1\n      calldatasize\n      sub\n      dup2\n      add\n      swap1\n      tag_78\n      swap2\n      swap1\n      tag_79\n      jump\t// in\n    tag_78:\n      tag_80\n      jump\t// in\n    tag_77:\n      mload(0x40)\n      tag_81\n      swap2\n      swap1\n      tag_35\n      jump\t// in\n    tag_81:\n      mload(0x40)\n      dup1\n      swap2\n      sub\n      swap1\n      return\n        /* \"contracts/nuaa_swap.sol\":831:862  address public immutable token1 */\n    tag_19:\n      tag_82\n      tag_83\n      jump\t// in\n    tag_82:\n      mload(0x40)\n      tag_84\n      swap2\n      swap1\n      tag_28\n      jump\t// in\n    tag_84:\n      mload(0x40)\n      dup1\n      swap2\n      sub\n      swap1\n      return\n        /* \"https://github.com/OpenZeppelin/openzeppelin-contracts/blob/v4.9.3/contracts/access/Ownable.sol\":2074:2272  function transferOwnership(address newOwner) public virtual onlyOwner {... */\n    tag_20:\n      tag_85\n      0x04\n      dup1\n      calldatasize\n      sub\n      dup2\n      add\n      swap1\n      tag_86\n      swap2\n      swap1\n      tag_69\n      jump\t// in\n    tag_86:\n      tag_87\n      jump\t// in\n    tag_85:\n      stop\n        /* \"contracts/nuaa_swap.sol\":5319:5485  function setFeeTo(address _newFeeTo) public onlyOwner {... */\n    tag_21:\n      tag_88\n      0x04\n      dup1\n      calldatasize\n      sub\n      dup2\n      add\n      swap1\n      tag_89\n      swap2\n      swap1\n      tag_69\n      jump\t// in\n    tag_89:\n      tag_90\n      jump\t// in\n    tag_88:\n      stop\n        /* \"contracts/nuaa_swap.sol\":1053:1073  address public feeTo */\n    tag_26:\n      0x06\n      0x00\n      swap1\n      sload\n      swap1\n      0x0100\n      exp\n      swap1\n      div\n      0xffffffffffffffffffffffffffffffffffffffff\n      and\n      dup2\n      jump\t// out\n        /* \"contracts/nuaa_swap.sol\":763:794  address public immutable token0 */\n    tag_30:\n      immutable(\"0x880de8116b3dfac28e9ff528a9fef1d1e0a51449c1addce011ffec1f302992b6\")\n      dup2\n      jump\t// out\n        /* \"contracts/nuaa_swap.sol\":1105:1134  uint256 public protocolFeeBps */\n    tag_33:\n      sload(0x07)\n      dup2\n      jump\t// out\n        /* \"contracts/nuaa_swap.sol\":1021:1044  uint public totalShares */\n    tag_37:\n      sload(0x05)\n      dup2\n      jump\t// out\n        /* \"contracts/nuaa_swap.sol\":5242:5307  function unpause() public onlyOwner {... */\n    tag_40:\n        /* \"https://github.com/OpenZeppelin/openzeppelin-contracts/blob/v4.9.3/contracts/access/Ownable.sol\":1094:1107  _checkOwner() */\n      tag_92\n        /* \"https://github.com/OpenZeppelin/openzeppelin-contracts/blob/v4.9.3/contracts/access/Ownable.sol\":1094:1105  _checkOwner */\n      tag_93\n        /* \"https://github.com/OpenZeppelin/openzeppelin-contracts/blob/v4.9.3/contracts/access/Ownable.sol\":1094:1107  _checkOwner() */\n      jump\t// in\n    tag_92:\n        /* \"contracts/nuaa_swap.sol\":5289:5299  _unpause() */\n      tag_95\n        /* \"contracts/nuaa_swap.sol\":5289:5297  _unpause */\n      tag_96\n        /* \"contracts/nuaa_swap.sol\":5289:5299  _unpause() */\n      jump\t// in\n    tag_95:\n        /* \"contracts/nuaa_swap.sol\":5242:5307  function unpause() public onlyOwner {... */\n      jump\t// out\n        /* \"contracts/nuaa_swap.sol\":901:924  uint256 public reserve0 */\n    tag_42:\n      sload(0x02)\n      dup2\n      jump\t// out\n        /* \"contracts/nuaa_swap.sol\":931:954  uint256 public reserve1 */\n    tag_45:\n      sload(0x03)\n      dup2\n      jump\t// out\n        /* \"https://github.com/OpenZeppelin/openzeppelin-contracts/blob/v4.9.3/contracts/security/Pausable.sol\":1615:1699  function paused() public view virtual returns (bool) {... */\n    tag_48:\n        /* \"https://github.com/OpenZeppelin/openzeppelin-contracts/blob/v4.9.3/contracts/security/Pausable.sol\":1662:1666  bool */\n      0x00\n        /* \"https://github.com/OpenZeppelin/openzeppelin-contracts/blob/v4.9.3/contracts/security/Pausable.sol\":1685:1692  _paused */\n      0x00\n      0x14\n      swap1\n      sload\n      swap1\n      0x0100\n      exp\n      swap1\n      div\n      0xff\n      and\n        /* \"https://github.com/OpenZeppelin/openzeppelin-contracts/blob/v4.9.3/contracts/security/Pausable.sol\":1678:1692  return _paused */\n      swap1\n      pop\n        /* \"https://github.com/OpenZeppelin/openzeppelin-contracts/blob/v4.9.3/contracts/security/Pausable.sol\":1615:1699  function paused() public view virtual returns (bool) {... */\n      swap1\n      jump\t// out\n        /* \"https://github.com/OpenZeppelin/openzeppelin-contracts/blob/v4.9.3/contracts/access/Ownable.sol\":1824:1925  function renounceOwnership() public virtual onlyOwner {... */\n    tag_52:\n        /* \"https://github.com/OpenZeppelin/openzeppelin-contracts/blob/v4.9.3/contracts/access/Ownable.sol\":1094:1107  _checkOwner() */\n      tag_99\n        /* \"https://github.com/OpenZeppelin/openzeppelin-contracts/blob/v4.9.3/contracts/access/Ownable.sol\":1094:1105  _checkOwner */\n      tag_93\n        /* \"https://github.com/OpenZeppelin/openzeppelin-contracts/blob/v4.9.3/contracts/access/Ownable.sol\":1094:1107  _checkOwner() */\n      jump\t// in\n    tag_99:\n        /* \"https://github.com/OpenZeppelin/openzeppelin-contracts/blob/v4.9.3/contracts/access/Ownable.sol\":1888:1918  _transferOwnership(address(0)) */\n      tag_101\n        /* \"https://github.com/OpenZeppelin/openzeppelin-contracts/blob/v4.9.3/contracts/access/Ownable.sol\":1915:1916  0 */\n      0x00\n        /* \"https://github.com/OpenZeppelin/openzeppelin-contracts/blob/v4.9.3/contracts/access/Ownable.sol\":1888:1906  _transferOwnership */\n      tag_102\n        /* \"https://github.com/OpenZeppelin/openzeppelin-contracts/blob/v4.9.3/contracts/access/Ownable.sol\":1888:1918  _transferOwnership(address(0)) */\n      jump\t// in\n    tag_101:\n        /* \"https://github.com/OpenZeppelin/openzeppelin-contracts/blob/v4.9.3/contracts/access/Ownable.sol\":1824:1925  function renounceOwnership() public virtual onlyOwner {... */\n      jump\t// out\n        /* \"contracts/nuaa_swap.sol\":5493:5770  function setProtocolFee(uint256 _newFeeBps) public onlyOwner {... */\n    tag_56:\n        /* \"https://github.com/OpenZeppelin/openzeppelin-contracts/blob/v4.9.3/contracts/access/Ownable.sol\":1094:1107  _checkOwner() */\n      tag_104\n        /* \"https://github.com/OpenZeppelin/openzeppelin-contracts/blob/v4.9.3/contracts/access/Ownable.sol\":1094:1105  _checkOwner */\n      tag_93\n        /* \"https://github.com/OpenZeppelin/openzeppelin-contracts/blob/v4.9.3/contracts/access/Ownable.sol\":1094:1107  _checkOwner() */\n      jump\t// in\n    tag_104:\n        /* \"contracts/nuaa_swap.sol\":5587:5591  1000 */\n      0x03e8\n        /* \"contracts/nuaa_swap.sol\":5573:5583  _newFeeBps */\n      dup2\n        /* \"contracts/nuaa_swap.sol\":5573:5591  _newFeeBps <= 1000 */\n      gt\n      iszero\n        /* \"contracts/nuaa_swap.sol\":5565:5618  require(_newFeeBps <= 1000, \"NuaaSwap: FEE_TOO_HIGH\") */\n      tag_106\n      jumpi\n      mload(0x40)\n      0x08c379a000000000000000000000000000000000000000000000000000000000\n      dup2\n      mstore\n      0x04\n      add\n      tag_107\n      swap1\n      tag_108\n      jump\t// in\n    tag_107:\n      mload(0x40)\n      dup1\n      swap2\n      sub\n      swap1\n      revert\n    tag_106:\n        /* \"contracts/nuaa_swap.sol\":5642:5653  uint oldFee */\n      0x00\n        /* \"contracts/nuaa_swap.sol\":5656:5670  protocolFeeBps */\n      sload(0x07)\n        /* \"contracts/nuaa_swap.sol\":5642:5670  uint oldFee = protocolFeeBps */\n      swap1\n      pop\n        /* \"contracts/nuaa_swap.sol\":5698:5708  _newFeeBps */\n      dup2\n        /* \"contracts/nuaa_swap.sol\":5681:5695  protocolFeeBps */\n      0x07\n        /* \"contracts/nuaa_swap.sol\":5681:5708  protocolFeeBps = _newFeeBps */\n      dup2\n      swap1\n      sstore\n      pop\n        /* \"contracts/nuaa_swap.sol\":5724:5762  ProtocolFeeSet(oldFee, protocolFeeBps) */\n      0xfa4067f2d0249edb7594284cabb394f2ec0e4f6168dbd1e3a63f861b67f1188f\n        /* \"contracts/nuaa_swap.sol\":5739:5745  oldFee */\n      dup2\n        /* \"contracts/nuaa_swap.sol\":5747:5761  protocolFeeBps */\n      sload(0x07)\n        /* \"contracts/nuaa_swap.sol\":5724:5762  ProtocolFeeSet(oldFee, protocolFeeBps) */\n      mload(0x40)\n      tag_109\n      swap3\n      swap2\n      swap1\n      tag_66\n      jump\t// in\n    tag_109:\n      mload(0x40)\n      dup1\n      swap2\n      sub\n      swap1\n      log1\n        /* \"contracts/nuaa_swap.sol\":5554:5770  {... */\n      pop\n        /* \"contracts/nuaa_swap.sol\":5493:5770  function setProtocolFee(uint256 _newFeeBps) public onlyOwner {... */\n      pop\n      jump\t// out\n        /* \"contracts/nuaa_swap.sol\":5173:5234  function pause() public onlyOwner {... */\n    tag_58:\n        /* \"https://github.com/OpenZeppelin/openzeppelin-contracts/blob/v4.9.3/contracts/access/Ownable.sol\":1094:1107  _checkOwner() */\n      tag_111\n        /* \"https://github.com/OpenZeppelin/openzeppelin-contracts/blob/v4.9.3/contracts/access/Ownable.sol\":1094:1105  _checkOwner */\n      tag_93\n        /* \"https://github.com/OpenZeppelin/openzeppelin-contracts/blob/v4.9.3/contracts/access/Ownable.sol\":1094:1107  _checkOwner() */\n      jump\t// in\n    tag_111:\n        /* \"contracts/nuaa_swap.sol\":5218:5226  _pause() */\n      tag_113\n        /* \"contracts/nuaa_swap.sol\":5218:5224  _pause */\n      tag_114\n        /* \"contracts/nuaa_swap.sol\":5218:5226  _pause() */\n      jump\t// in\n    tag_113:\n        /* \"contracts/nuaa_swap.sol\":5173:5234  function pause() public onlyOwner {... */\n      jump\t// out\n        /* \"https://github.com/OpenZeppelin/openzeppelin-contracts/blob/v4.9.3/contracts/access/Ownable.sol\":1201:1286  function owner() public view virtual returns (address) {... */\n    tag_60:\n        /* \"https://github.com/OpenZeppelin/openzeppelin-contracts/blob/v4.9.3/contracts/access/Ownable.sol\":1247:1254  address */\n      0x00\n        /* \"https://github.com/OpenZeppelin/openzeppelin-contracts/blob/v4.9.3/contracts/access/Ownable.sol\":1273:1279  _owner */\n      0x00\n      0x00\n      swap1\n      sload\n      swap1\n      0x0100\n      exp\n      swap1\n      div\n      0xffffffffffffffffffffffffffffffffffffffff\n      and\n        /* \"https://github.com/OpenZeppelin/openzeppelin-contracts/blob/v4.9.3/contracts/access/Ownable.sol\":1266:1279  return _owner */\n      swap1\n      pop\n        /* \"https://github.com/OpenZeppelin/openzeppelin-contracts/blob/v4.9.3/contracts/access/Ownable.sol\":1201:1286  function owner() public view virtual returns (address) {... */\n      swap1\n      jump\t// out\n        /* \"contracts/nuaa_swap.sol\":2778:3449  function remove_liquidity(uint _shares) ... */\n    tag_64:\n        /* \"contracts/nuaa_swap.sol\":2876:2888  uint amount0 */\n      0x00\n        /* \"contracts/nuaa_swap.sol\":2890:2902  uint amount1 */\n      0x00\n        /* \"https://github.com/OpenZeppelin/openzeppelin-contracts/blob/v4.9.3/contracts/security/Pausable.sol\":1239:1258  _requireNotPaused() */\n      tag_117\n        /* \"https://github.com/OpenZeppelin/openzeppelin-contracts/blob/v4.9.3/contracts/security/Pausable.sol\":1239:1256  _requireNotPaused */\n      tag_118\n        /* \"https://github.com/OpenZeppelin/openzeppelin-contracts/blob/v4.9.3/contracts/security/Pausable.sol\":1239:1258  _requireNotPaused() */\n      jump\t// in\n    tag_117:\n        /* \"contracts/nuaa_swap.sol\":2960:2967  _shares */\n      dup3\n        /* \"contracts/nuaa_swap.sol\":2929:2944  liquidityShares */\n      0x04\n        /* \"contracts/nuaa_swap.sol\":2929:2956  liquidityShares[msg.sender] */\n      0x00\n        /* \"contracts/nuaa_swap.sol\":2945:2955  msg.sender */\n      caller\n        /* \"contracts/nuaa_swap.sol\":2929:2956  liquidityShares[msg.sender] */\n      0xffffffffffffffffffffffffffffffffffffffff\n      and\n      0xffffffffffffffffffffffffffffffffffffffff\n      and\n      dup2\n      mstore\n      0x20\n      add\n      swap1\n      dup2\n      mstore\n      0x20\n      add\n      0x00\n      keccak256\n      sload\n        /* \"contracts/nuaa_swap.sol\":2929:2967  liquidityShares[msg.sender] >= _shares */\n      lt\n      iszero\n        /* \"contracts/nuaa_swap.sol\":2921:3001  require(liquidityShares[msg.sender] >= _shares, \"NuaaSwap: INSUFFICIENT_SHARES\") */\n      tag_120\n      jumpi\n      mload(0x40)\n      0x08c379a000000000000000000000000000000000000000000000000000000000\n      dup2\n      mstore\n      0x04\n      add\n      tag_121\n      swap1\n      tag_122\n      jump\t// in\n    tag_121:\n      mload(0x40)\n      dup1\n      swap2\n      sub\n      swap1\n      revert\n    tag_120:\n        /* \"contracts/nuaa_swap.sol\":3047:3058  totalShares */\n      sload(0x05)\n        /* \"contracts/nuaa_swap.sol\":3035:3043  reserve0 */\n      sload(0x02)\n        /* \"contracts/nuaa_swap.sol\":3025:3032  _shares */\n      dup5\n        /* \"contracts/nuaa_swap.sol\":3025:3043  _shares * reserve0 */\n      tag_123\n      swap2\n      swap1\n      tag_124\n      jump\t// in\n    tag_123:\n        /* \"contracts/nuaa_swap.sol\":3024:3058  (_shares * reserve0) / totalShares */\n      tag_125\n      swap2\n      swap1\n      tag_126\n      jump\t// in\n    tag_125:\n        /* \"contracts/nuaa_swap.sol\":3014:3058  amount0 = (_shares * reserve0) / totalShares */\n      swap2\n      pop\n        /* \"contracts/nuaa_swap.sol\":3102:3113  totalShares */\n      sload(0x05)\n        /* \"contracts/nuaa_swap.sol\":3090:3098  reserve1 */\n      sload(0x03)\n        /* \"contracts/nuaa_swap.sol\":3080:3087  _shares */\n      dup5\n        /* \"contracts/nuaa_swap.sol\":3080:3098  _shares * reserve1 */\n      tag_127\n      swap2\n      swap1\n      tag_124\n      jump\t// in\n    tag_127:\n        /* \"contracts/nuaa_swap.sol\":3079:3113  (_shares * reserve1) / totalShares */\n      tag_128\n      swap2\n      swap1\n      tag_126\n      jump\t// in\n    tag_128:\n        /* \"contracts/nuaa_swap.sol\":3069:3113  amount1 = (_shares * reserve1) / totalShares */\n      swap1\n      pop\n        /* \"contracts/nuaa_swap.sol\":3157:3164  _shares */\n      dup3\n        /* \"contracts/nuaa_swap.sol\":3126:3141  liquidityShares */\n      0x04\n        /* \"contracts/nuaa_swap.sol\":3126:3153  liquidityShares[msg.sender] */\n      0x00\n        /* \"contracts/nuaa_swap.sol\":3142:3152  msg.sender */\n      caller\n        /* \"contracts/nuaa_swap.sol\":3126:3153  liquidityShares[msg.sender] */\n      0xffffffffffffffffffffffffffffffffffffffff\n      and\n      0xffffffffffffffffffffffffffffffffffffffff\n      and\n      dup2\n      mstore\n      0x20\n      add\n      swap1\n      dup2\n      mstore\n      0x20\n      add\n      0x00\n      keccak256\n      0x00\n        /* \"contracts/nuaa_swap.sol\":3126:3164  liquidityShares[msg.sender] -= _shares */\n      dup3\n      dup3\n      sload\n      tag_129\n      swap2\n      swap1\n      tag_130\n      jump\t// in\n    tag_129:\n      swap3\n      pop\n      pop\n      dup2\n      swap1\n      sstore\n      pop\n        /* \"contracts/nuaa_swap.sol\":3190:3197  _shares */\n      dup3\n        /* \"contracts/nuaa_swap.sol\":3175:3186  totalShares */\n      0x05\n      0x00\n        /* \"contracts/nuaa_swap.sol\":3175:3197  totalShares -= _shares */\n      dup3\n      dup3\n      sload\n      tag_131\n      swap2\n      swap1\n      tag_130\n      jump\t// in\n    tag_131:\n      swap3\n      pop\n      pop\n      dup2\n      swap1\n      sstore\n      pop\n        /* \"contracts/nuaa_swap.sol\":3220:3227  amount0 */\n      dup2\n        /* \"contracts/nuaa_swap.sol\":3208:3216  reserve0 */\n      0x02\n      0x00\n        /* \"contracts/nuaa_swap.sol\":3208:3227  reserve0 -= amount0 */\n      dup3\n      dup3\n      sload\n      tag_132\n      swap2\n      swap1\n      tag_130\n      jump\t// in\n    tag_132:\n      swap3\n      pop\n      pop\n      dup2\n      swap1\n      sstore\n      pop\n        /* \"contracts/nuaa_swap.sol\":3250:3257  amount1 */\n      dup1\n        /* \"contracts/nuaa_swap.sol\":3238:3246  reserve1 */\n      0x03\n      0x00\n        /* \"contracts/nuaa_swap.sol\":3238:3257  reserve1 -= amount1 */\n      dup3\n      dup3\n      sload\n      tag_133\n      swap2\n      swap1\n      tag_130\n      jump\t// in\n    tag_133:\n      swap3\n      pop\n      pop\n      dup2\n      swap1\n      sstore\n      pop\n        /* \"contracts/nuaa_swap.sol\":3277:3283  token0 */\n      immutable(\"0x880de8116b3dfac28e9ff528a9fef1d1e0a51449c1addce011ffec1f302992b6\")\n        /* \"contracts/nuaa_swap.sol\":3270:3293  IERC20(token0).transfer */\n      0xffffffffffffffffffffffffffffffffffffffff\n      and\n      0xa9059cbb\n        /* \"contracts/nuaa_swap.sol\":3294:3304  msg.sender */\n      caller\n        /* \"contracts/nuaa_swap.sol\":3306:3313  amount0 */\n      dup5\n        /* \"contracts/nuaa_swap.sol\":3270:3314  IERC20(token0).transfer(msg.sender, amount0) */\n      mload(0x40)\n      dup4\n      0xffffffff\n      and\n      0xe0\n      shl\n      dup2\n      mstore\n      0x04\n      add\n      tag_134\n      swap3\n      swap2\n      swap1\n      tag_135\n      jump\t// in\n    tag_134:\n      0x20\n      mload(0x40)\n      dup1\n      dup4\n      sub\n      dup2\n      0x00\n      dup8\n      gas\n      call\n      iszero\n      dup1\n      iszero\n      tag_137\n      jumpi\n      returndatacopy(0x00, 0x00, returndatasize)\n      revert(0x00, returndatasize)\n    tag_137:\n      pop\n      pop\n      pop\n      pop\n      mload(0x40)\n      returndatasize\n      not(0x1f)\n      0x1f\n      dup3\n      add\n      and\n      dup3\n      add\n      dup1\n      0x40\n      mstore\n      pop\n      dup2\n      add\n      swap1\n      tag_138\n      swap2\n      swap1\n      tag_139\n      jump\t// in\n    tag_138:\n      pop\n        /* \"contracts/nuaa_swap.sol\":3332:3338  token1 */\n      immutable(\"0xccb1f717aa77602faf03a594761a36956b1c4cf44c6b336d1db57da799b331b8\")\n        /* \"contracts/nuaa_swap.sol\":3325:3348  IERC20(token1).transfer */\n      0xffffffffffffffffffffffffffffffffffffffff\n      and\n      0xa9059cbb\n        /* \"contracts/nuaa_swap.sol\":3349:3359  msg.sender */\n      caller\n        /* \"contracts/nuaa_swap.sol\":3361:3368  amount1 */\n      dup4\n        /* \"contracts/nuaa_swap.sol\":3325:3369  IERC20(token1).transfer(msg.sender, amount1) */\n      mload(0x40)\n      dup4\n      0xffffffff\n      and\n      0xe0\n      shl\n      dup2\n      mstore\n      0x04\n      add\n      tag_140\n      swap3\n      swap2\n      swap1\n      tag_135\n      jump\t// in\n    tag_140:\n      0x20\n      mload(0x40)\n      dup1\n      dup4\n      sub\n      dup2\n      0x00\n      dup8\n      gas\n      call\n      iszero\n      dup1\n      iszero\n      tag_142\n      jumpi\n      returndatacopy(0x00, 0x00, returndatasize)\n      revert(0x00, returndatasize)\n    tag_142:\n      pop\n      pop\n      pop\n      pop\n      mload(0x40)\n      returndatasize\n      not(0x1f)\n      0x1f\n      dup3\n      add\n      and\n      dup3\n      add\n      dup1\n      0x40\n      mstore\n      pop\n      dup2\n      add\n      swap1\n      tag_143\n      swap2\n      swap1\n      tag_139\n      jump\t// in\n    tag_143:\n      pop\n        /* \"contracts/nuaa_swap.sol\":3412:3422  msg.sender */\n      caller\n        /* \"contracts/nuaa_swap.sol\":3395:3441  LiquidityRemoved(msg.sender, amount0, amount1) */\n      0xffffffffffffffffffffffffffffffffffffffff\n      and\n      0x96cd817c6329656790ef8fba7675405193677d39619571282f5e21f3a98cd059\n        /* \"contracts/nuaa_swap.sol\":3424:3431  amount0 */\n      dup4\n        /* \"contracts/nuaa_swap.sol\":3433:3440  amount1 */\n      dup4\n        /* \"contracts/nuaa_swap.sol\":3395:3441  LiquidityRemoved(msg.sender, amount0, amount1) */\n      mload(0x40)\n      tag_144\n      swap3\n      swap2\n      swap1\n      tag_66\n      jump\t// in\n    tag_144:\n      mload(0x40)\n      dup1\n      swap2\n      sub\n      swap1\n      log2\n        /* \"contracts/nuaa_swap.sol\":2778:3449  function remove_liquidity(uint _shares) ... */\n      swap2\n      pop\n      swap2\n      jump\t// out\n        /* \"contracts/nuaa_swap.sol\":967:1014  mapping(address => uint) public liquidityShares */\n    tag_70:\n      mstore(0x20, 0x04)\n      dup1\n      0x00\n      mstore\n      keccak256(0x00, 0x40)\n      0x00\n      swap2\n      pop\n      swap1\n      pop\n      sload\n      dup2\n      jump\t// out\n        /* \"contracts/nuaa_swap.sol\":1882:2766  function add_liquidity(uint _amount0, uint _amount1) ... */\n    tag_75:\n        /* \"contracts/nuaa_swap.sol\":1994:2005  uint shares */\n      0x00\n        /* \"https://github.com/OpenZeppelin/openzeppelin-contracts/blob/v4.9.3/contracts/security/Pausable.sol\":1239:1258  _requireNotPaused() */\n      tag_146\n        /* \"https://github.com/OpenZeppelin/openzeppelin-contracts/blob/v4.9.3/contracts/security/Pausable.sol\":1239:1256  _requireNotPaused */\n      tag_118\n        /* \"https://github.com/OpenZeppelin/openzeppelin-contracts/blob/v4.9.3/contracts/security/Pausable.sol\":1239:1258  _requireNotPaused() */\n      jump\t// in\n    tag_146:\n        /* \"contracts/nuaa_swap.sol\":2031:2037  token0 */\n      immutable(\"0x880de8116b3dfac28e9ff528a9fef1d1e0a51449c1addce011ffec1f302992b6\")\n        /* \"contracts/nuaa_swap.sol\":2024:2051  IERC20(token0).transferFrom */\n      0xffffffffffffffffffffffffffffffffffffffff\n      and\n      0x23b872dd\n        /* \"contracts/nuaa_swap.sol\":2052:2062  msg.sender */\n      caller\n        /* \"contracts/nuaa_swap.sol\":2072:2076  this */\n      address\n        /* \"contracts/nuaa_swap.sol\":2079:2087  _amount0 */\n      dup7\n        /* \"contracts/nuaa_swap.sol\":2024:2088  IERC20(token0).transferFrom(msg.sender, address(this), _amount0) */\n      mload(0x40)\n      dup5\n      0xffffffff\n      and\n      0xe0\n      shl\n      dup2\n      mstore\n      0x04\n      add\n      tag_148\n      swap4\n      swap3\n      swap2\n      swap1\n      tag_149\n      jump\t// in\n    tag_148:\n      0x20\n      mload(0x40)\n      dup1\n      dup4\n      sub\n      dup2\n      0x00\n      dup8\n      gas\n      call\n      iszero\n      dup1\n      iszero\n      tag_151\n      jumpi\n      returndatacopy(0x00, 0x00, returndatasize)\n      revert(0x00, returndatasize)\n    tag_151:\n      pop\n      pop\n      pop\n      pop\n      mload(0x40)\n      returndatasize\n      not(0x1f)\n      0x1f\n      dup3\n      add\n      and\n      dup3\n      add\n      dup1\n      0x40\n      mstore\n      pop\n      dup2\n      add\n      swap1\n      tag_152\n      swap2\n      swap1\n      tag_139\n      jump\t// in\n    tag_152:\n      pop\n        /* \"contracts/nuaa_swap.sol\":2106:2112  token1 */\n      immutable(\"0xccb1f717aa77602faf03a594761a36956b1c4cf44c6b336d1db57da799b331b8\")\n        /* \"contracts/nuaa_swap.sol\":2099:2126  IERC20(token1).transferFrom */\n      0xffffffffffffffffffffffffffffffffffffffff\n      and\n      0x23b872dd\n        /* \"contracts/nuaa_swap.sol\":2127:2137  msg.sender */\n      caller\n        /* \"contracts/nuaa_swap.sol\":2147:2151  this */\n      address\n        /* \"contracts/nuaa_swap.sol\":2154:2162  _amount1 */\n      dup6\n        /* \"contracts/nuaa_swap.sol\":2099:2163  IERC20(token1).transferFrom(msg.sender, address(this), _amount1) */\n      mload(0x40)\n      dup5\n      0xffffffff\n      and\n      0xe0\n      shl\n      dup2\n      mstore\n      0x04\n      add\n      tag_153\n      swap4\n      swap3\n      swap2\n      swap1\n      tag_149\n      jump\t// in\n    tag_153:\n      0x20\n      mload(0x40)\n      dup1\n      dup4\n      sub\n      dup2\n      0x00\n      dup8\n      gas\n      call\n      iszero\n      dup1\n      iszero\n      tag_155\n      jumpi\n      returndatacopy(0x00, 0x00, returndatasize)\n      revert(0x00, returndatasize)\n    tag_155:\n      pop\n      pop\n      pop\n      pop\n      mload(0x40)\n      returndatasize\n      not(0x1f)\n      0x1f\n      dup3\n      add\n      and\n      dup3\n      add\n      dup1\n      0x40\n      mstore\n      pop\n      dup2\n      add\n      swap1\n      tag_156\n      swap2\n      swap1\n      tag_139\n      jump\t// in\n    tag_156:\n      pop\n        /* \"contracts/nuaa_swap.sol\":2203:2204  0 */\n      0x00\n        /* \"contracts/nuaa_swap.sol\":2188:2199  totalShares */\n      sload(0x05)\n        /* \"contracts/nuaa_swap.sol\":2188:2204  totalShares == 0 */\n      sub\n        /* \"contracts/nuaa_swap.sol\":2184:2460  if (totalShares == 0) {... */\n      tag_157\n      jumpi\n        /* \"contracts/nuaa_swap.sol\":2230:2255  sqrt(_amount0 * _amount1) */\n      tag_158\n        /* \"contracts/nuaa_swap.sol\":2246:2254  _amount1 */\n      dup3\n        /* \"contracts/nuaa_swap.sol\":2235:2243  _amount0 */\n      dup5\n        /* \"contracts/nuaa_swap.sol\":2235:2254  _amount0 * _amount1 */\n      tag_159\n      swap2\n      swap1\n      tag_124\n      jump\t// in\n    tag_159:\n        /* \"contracts/nuaa_swap.sol\":2230:2234  sqrt */\n      tag_160\n        /* \"contracts/nuaa_swap.sol\":2230:2255  sqrt(_amount0 * _amount1) */\n      jump\t// in\n    tag_158:\n        /* \"contracts/nuaa_swap.sol\":2221:2255  shares = sqrt(_amount0 * _amount1) */\n      swap1\n      pop\n        /* \"contracts/nuaa_swap.sol\":2184:2460  if (totalShares == 0) {... */\n      jump(tag_161)\n    tag_157:\n        /* \"contracts/nuaa_swap.sol\":2288:2300  uint shares0 */\n      0x00\n        /* \"contracts/nuaa_swap.sol\":2330:2338  reserve0 */\n      sload(0x02)\n        /* \"contracts/nuaa_swap.sol\":2315:2326  totalShares */\n      sload(0x05)\n        /* \"contracts/nuaa_swap.sol\":2304:2312  _amount0 */\n      dup6\n        /* \"contracts/nuaa_swap.sol\":2304:2326  _amount0 * totalShares */\n      tag_162\n      swap2\n      swap1\n      tag_124\n      jump\t// in\n    tag_162:\n        /* \"contracts/nuaa_swap.sol\":2303:2338  (_amount0 * totalShares) / reserve0 */\n      tag_163\n      swap2\n      swap1\n      tag_126\n      jump\t// in\n    tag_163:\n        /* \"contracts/nuaa_swap.sol\":2288:2338  uint shares0 = (_amount0 * totalShares) / reserve0 */\n      swap1\n      pop\n        /* \"contracts/nuaa_swap.sol\":2353:2365  uint shares1 */\n      0x00\n        /* \"contracts/nuaa_swap.sol\":2395:2403  reserve1 */\n      sload(0x03)\n        /* \"contracts/nuaa_swap.sol\":2380:2391  totalShares */\n      sload(0x05)\n        /* \"contracts/nuaa_swap.sol\":2369:2377  _amount1 */\n      dup6\n        /* \"contracts/nuaa_swap.sol\":2369:2391  _amount1 * totalShares */\n      tag_164\n      swap2\n      swap1\n      tag_124\n      jump\t// in\n    tag_164:\n        /* \"contracts/nuaa_swap.sol\":2368:2403  (_amount1 * totalShares) / reserve1 */\n      tag_165\n      swap2\n      swap1\n      tag_126\n      jump\t// in\n    tag_165:\n        /* \"contracts/nuaa_swap.sol\":2353:2403  uint shares1 = (_amount1 * totalShares) / reserve1 */\n      swap1\n      pop\n        /* \"contracts/nuaa_swap.sol\":2427:2448  min(shares0, shares1) */\n      tag_166\n        /* \"contracts/nuaa_swap.sol\":2431:2438  shares0 */\n      dup3\n        /* \"contracts/nuaa_swap.sol\":2440:2447  shares1 */\n      dup3\n        /* \"contracts/nuaa_swap.sol\":2427:2430  min */\n      tag_167\n        /* \"contracts/nuaa_swap.sol\":2427:2448  min(shares0, shares1) */\n      jump\t// in\n    tag_166:\n        /* \"contracts/nuaa_swap.sol\":2418:2448  shares = min(shares0, shares1) */\n      swap3\n      pop\n        /* \"contracts/nuaa_swap.sol\":2273:2460  {... */\n      pop\n      pop\n        /* \"contracts/nuaa_swap.sol\":2184:2460  if (totalShares == 0) {... */\n    tag_161:\n        /* \"contracts/nuaa_swap.sol\":2487:2488  0 */\n      0x00\n        /* \"contracts/nuaa_swap.sol\":2478:2484  shares */\n      dup2\n        /* \"contracts/nuaa_swap.sol\":2478:2488  shares > 0 */\n      gt\n        /* \"contracts/nuaa_swap.sol\":2470:2532  require(shares > 0, \"NuaaSwap: INSUFFICIENT_LIQUIDITY_MINTED\") */\n      tag_168\n      jumpi\n      mload(0x40)\n      0x08c379a000000000000000000000000000000000000000000000000000000000\n      dup2\n      mstore\n      0x04\n      add\n      tag_169\n      swap1\n      tag_170\n      jump\t// in\n    tag_169:\n      mload(0x40)\n      dup1\n      swap2\n      sub\n      swap1\n      revert\n    tag_168:\n        /* \"contracts/nuaa_swap.sol\":2576:2582  shares */\n      dup1\n        /* \"contracts/nuaa_swap.sol\":2545:2560  liquidityShares */\n      0x04\n        /* \"contracts/nuaa_swap.sol\":2545:2572  liquidityShares[msg.sender] */\n      0x00\n        /* \"contracts/nuaa_swap.sol\":2561:2571  msg.sender */\n      caller\n        /* \"contracts/nuaa_swap.sol\":2545:2572  liquidityShares[msg.sender] */\n      0xffffffffffffffffffffffffffffffffffffffff\n      and\n      0xffffffffffffffffffffffffffffffffffffffff\n      and\n      dup2\n      mstore\n      0x20\n      add\n      swap1\n      dup2\n      mstore\n      0x20\n      add\n      0x00\n      keccak256\n      0x00\n        /* \"contracts/nuaa_swap.sol\":2545:2582  liquidityShares[msg.sender] += shares */\n      dup3\n      dup3\n      sload\n      tag_171\n      swap2\n      swap1\n      tag_172\n      jump\t// in\n    tag_171:\n      swap3\n      pop\n      pop\n      dup2\n      swap1\n      sstore\n      pop\n        /* \"contracts/nuaa_swap.sol\":2608:2614  shares */\n      dup1\n        /* \"contracts/nuaa_swap.sol\":2593:2604  totalShares */\n      0x05\n      0x00\n        /* \"contracts/nuaa_swap.sol\":2593:2614  totalShares += shares */\n      dup3\n      dup3\n      sload\n      tag_173\n      swap2\n      swap1\n      tag_172\n      jump\t// in\n    tag_173:\n      swap3\n      pop\n      pop\n      dup2\n      swap1\n      sstore\n      pop\n        /* \"contracts/nuaa_swap.sol\":2647:2655  _amount0 */\n      dup3\n        /* \"contracts/nuaa_swap.sol\":2635:2643  reserve0 */\n      0x02\n      0x00\n        /* \"contracts/nuaa_swap.sol\":2635:2655  reserve0 += _amount0 */\n      dup3\n      dup3\n      sload\n      tag_174\n      swap2\n      swap1\n      tag_172\n      jump\t// in\n    tag_174:\n      swap3\n      pop\n      pop\n      dup2\n      swap1\n      sstore\n      pop\n        /* \"contracts/nuaa_swap.sol\":2678:2686  _amount1 */\n      dup2\n        /* \"contracts/nuaa_swap.sol\":2666:2674  reserve1 */\n      0x03\n      0x00\n        /* \"contracts/nuaa_swap.sol\":2666:2686  reserve1 += _amount1 */\n      dup3\n      dup3\n      sload\n      tag_175\n      swap2\n      swap1\n      tag_172\n      jump\t// in\n    tag_175:\n      swap3\n      pop\n      pop\n      dup2\n      swap1\n      sstore\n      pop\n        /* \"contracts/nuaa_swap.sol\":2719:2729  msg.sender */\n      caller\n        /* \"contracts/nuaa_swap.sol\":2704:2758  LiquidityAdded(msg.sender, _amount0, _amount1, shares) */\n      0xffffffffffffffffffffffffffffffffffffffff\n      and\n      0x64b83944e79c3ce8d4c297411de637c3e102d064677aac0c163976ebdcd6f50e\n        /* \"contracts/nuaa_swap.sol\":2731:2739  _amount0 */\n      dup5\n        /* \"contracts/nuaa_swap.sol\":2741:2749  _amount1 */\n      dup5\n        /* \"contracts/nuaa_swap.sol\":2751:2757  shares */\n      dup5\n        /* \"contracts/nuaa_swap.sol\":2704:2758  LiquidityAdded(msg.sender, _amount0, _amount1, shares) */\n      mload(0x40)\n      tag_176\n      swap4\n      swap3\n      swap2\n      swap1\n      tag_177\n      jump\t// in\n    tag_176:\n      mload(0x40)\n      dup1\n      swap2\n      sub\n      swap1\n      log2\n        /* \"contracts/nuaa_swap.sol\":1882:2766  function add_liquidity(uint _amount0, uint _amount1) ... */\n      swap3\n      swap2\n      pop\n      pop\n      jump\t// out\n        /* \"contracts/nuaa_swap.sol\":3457:5144  function swap(... */\n    tag_80:\n        /* \"contracts/nuaa_swap.sol\":3744:3758  uint amountOut */\n      0x00\n        /* \"https://github.com/OpenZeppelin/openzeppelin-contracts/blob/v4.9.3/contracts/security/Pausable.sol\":1239:1258  _requireNotPaused() */\n      tag_179\n        /* \"https://github.com/OpenZeppelin/openzeppelin-contracts/blob/v4.9.3/contracts/security/Pausable.sol\":1239:1256  _requireNotPaused */\n      tag_118\n        /* \"https://github.com/OpenZeppelin/openzeppelin-contracts/blob/v4.9.3/contracts/security/Pausable.sol\":1239:1258  _requireNotPaused() */\n      jump\t// in\n    tag_179:\n        /* \"https://github.com/OpenZeppelin/openzeppelin-contracts/blob/v4.9.3/contracts/security/ReentrancyGuard.sol\":2261:2282  _nonReentrantBefore() */\n      tag_181\n        /* \"https://github.com/OpenZeppelin/openzeppelin-contracts/blob/v4.9.3/contracts/security/ReentrancyGuard.sol\":2261:2280  _nonReentrantBefore */\n      tag_182\n        /* \"https://github.com/OpenZeppelin/openzeppelin-contracts/blob/v4.9.3/contracts/security/ReentrancyGuard.sol\":2261:2282  _nonReentrantBefore() */\n      jump\t// in\n    tag_181:\n        /* \"contracts/nuaa_swap.sol\":3693:3702  _deadline */\n      dup2\n        /* \"contracts/nuaa_swap.sol\":1808:1823  block.timestamp */\n      timestamp\n        /* \"contracts/nuaa_swap.sol\":1796:1804  deadline */\n      dup2\n        /* \"contracts/nuaa_swap.sol\":1796:1823  deadline >= block.timestamp */\n      lt\n      iszero\n        /* \"contracts/nuaa_swap.sol\":1788:1854  require(deadline >= block.timestamp, \"NuaaSwap: DEADLINE_EXPIRED\") */\n      tag_184\n      jumpi\n      mload(0x40)\n      0x08c379a000000000000000000000000000000000000000000000000000000000\n      dup2\n      mstore\n      0x04\n      add\n      tag_185\n      swap1\n      tag_186\n      jump\t// in\n    tag_185:\n      mload(0x40)\n      dup1\n      swap2\n      sub\n      swap1\n      revert\n    tag_184:\n        /* \"contracts/nuaa_swap.sol\":3797:3803  token0 */\n      immutable(\"0x880de8116b3dfac28e9ff528a9fef1d1e0a51449c1addce011ffec1f302992b6\")\n        /* \"contracts/nuaa_swap.sol\":3785:3803  _tokenIn == token0 */\n      0xffffffffffffffffffffffffffffffffffffffff\n      and\n        /* \"contracts/nuaa_swap.sol\":3785:3793  _tokenIn */\n      dup7\n        /* \"contracts/nuaa_swap.sol\":3785:3803  _tokenIn == token0 */\n      0xffffffffffffffffffffffffffffffffffffffff\n      and\n      eq\n        /* \"contracts/nuaa_swap.sol\":3785:3825  _tokenIn == token0 || _tokenIn == token1 */\n      dup1\n      tag_188\n      jumpi\n      pop\n        /* \"contracts/nuaa_swap.sol\":3819:3825  token1 */\n      immutable(\"0xccb1f717aa77602faf03a594761a36956b1c4cf44c6b336d1db57da799b331b8\")\n        /* \"contracts/nuaa_swap.sol\":3807:3825  _tokenIn == token1 */\n      0xffffffffffffffffffffffffffffffffffffffff\n      and\n        /* \"contracts/nuaa_swap.sol\":3807:3815  _tokenIn */\n      dup7\n        /* \"contracts/nuaa_swap.sol\":3807:3825  _tokenIn == token1 */\n      0xffffffffffffffffffffffffffffffffffffffff\n      and\n      eq\n        /* \"contracts/nuaa_swap.sol\":3785:3825  _tokenIn == token0 || _tokenIn == token1 */\n    tag_188:\n        /* \"contracts/nuaa_swap.sol\":3777:3853  require(_tokenIn == token0 || _tokenIn == token1, \"NuaaSwap: INVALID_TOKEN\") */\n      tag_189\n      jumpi\n      mload(0x40)\n      0x08c379a000000000000000000000000000000000000000000000000000000000\n      dup2\n      mstore\n      0x04\n      add\n      tag_190\n      swap1\n      tag_191\n      jump\t// in\n    tag_190:\n      mload(0x40)\n      dup1\n      swap2\n      sub\n      swap1\n      revert\n    tag_189:\n        /* \"contracts/nuaa_swap.sol\":3881:3889  _tokenIn */\n      dup6\n        /* \"contracts/nuaa_swap.sol\":3874:3903  IERC20(_tokenIn).transferFrom */\n      0xffffffffffffffffffffffffffffffffffffffff\n      and\n      0x23b872dd\n        /* \"contracts/nuaa_swap.sol\":3904:3914  msg.sender */\n      caller\n        /* \"contracts/nuaa_swap.sol\":3924:3928  this */\n      address\n        /* \"contracts/nuaa_swap.sol\":3931:3940  _amountIn */\n      dup9\n        /* \"contracts/nuaa_swap.sol\":3874:3941  IERC20(_tokenIn).transferFrom(msg.sender, address(this), _amountIn) */\n      mload(0x40)\n      dup5\n      0xffffffff\n      and\n      0xe0\n      shl\n      dup2\n      mstore\n      0x04\n      add\n      tag_192\n      swap4\n      swap3\n      swap2\n      swap1\n      tag_149\n      jump\t// in\n    tag_192:\n      0x20\n      mload(0x40)\n      dup1\n      dup4\n      sub\n      dup2\n      0x00\n      dup8\n      gas\n      call\n      iszero\n      dup1\n      iszero\n      tag_194\n      jumpi\n      returndatacopy(0x00, 0x00, returndatasize)\n      revert(0x00, returndatasize)\n    tag_194:\n      pop\n      pop\n      pop\n      pop\n      mload(0x40)\n      returndatasize\n      not(0x1f)\n      0x1f\n      dup3\n      add\n      and\n      dup3\n      add\n      dup1\n      0x40\n      mstore\n      pop\n      dup2\n      add\n      swap1\n      tag_195\n      swap2\n      swap1\n      tag_139\n      jump\t// in\n    tag_195:\n      pop\n        /* \"contracts/nuaa_swap.sol\":3954:3968  uint reserveIn */\n      0x00\n        /* \"contracts/nuaa_swap.sol\":4015:4024  _amountIn */\n      dup6\n        /* \"contracts/nuaa_swap.sol\":3978:3986  _tokenIn */\n      dup8\n        /* \"contracts/nuaa_swap.sol\":3971:3997  IERC20(_tokenIn).balanceOf */\n      0xffffffffffffffffffffffffffffffffffffffff\n      and\n      0x70a08231\n        /* \"contracts/nuaa_swap.sol\":4006:4010  this */\n      address\n        /* \"contracts/nuaa_swap.sol\":3971:4012  IERC20(_tokenIn).balanceOf(address(this)) */\n      mload(0x40)\n      dup3\n      0xffffffff\n      and\n      0xe0\n      shl\n      dup2\n      mstore\n      0x04\n      add\n      tag_196\n      swap2\n      swap1\n      tag_28\n      jump\t// in\n    tag_196:\n      0x20\n      mload(0x40)\n      dup1\n      dup4\n      sub\n      dup2\n      dup7\n      gas\n      staticcall\n      iszero\n      dup1\n      iszero\n      tag_198\n      jumpi\n      returndatacopy(0x00, 0x00, returndatasize)\n      revert(0x00, returndatasize)\n    tag_198:\n      pop\n      pop\n      pop\n      pop\n      mload(0x40)\n      returndatasize\n      not(0x1f)\n      0x1f\n      dup3\n      add\n      and\n      dup3\n      add\n      dup1\n      0x40\n      mstore\n      pop\n      dup2\n      add\n      swap1\n      tag_199\n      swap2\n      swap1\n      tag_200\n      jump\t// in\n    tag_199:\n        /* \"contracts/nuaa_swap.sol\":3971:4024  IERC20(_tokenIn).balanceOf(address(this)) - _amountIn */\n      tag_201\n      swap2\n      swap1\n      tag_130\n      jump\t// in\n    tag_201:\n        /* \"contracts/nuaa_swap.sol\":3954:4024  uint reserveIn = IERC20(_tokenIn).balanceOf(address(this)) - _amountIn */\n      swap1\n      pop\n        /* \"contracts/nuaa_swap.sol\":4035:4051  address tokenOut */\n      0x00\n        /* \"contracts/nuaa_swap.sol\":4067:4073  token0 */\n      immutable(\"0x880de8116b3dfac28e9ff528a9fef1d1e0a51449c1addce011ffec1f302992b6\")\n        /* \"contracts/nuaa_swap.sol\":4055:4073  _tokenIn == token0 */\n      0xffffffffffffffffffffffffffffffffffffffff\n      and\n        /* \"contracts/nuaa_swap.sol\":4055:4063  _tokenIn */\n      dup9\n        /* \"contracts/nuaa_swap.sol\":4055:4073  _tokenIn == token0 */\n      0xffffffffffffffffffffffffffffffffffffffff\n      and\n      eq\n        /* \"contracts/nuaa_swap.sol\":4054:4092  (_tokenIn == token0) ? token1 : token0 */\n      tag_202\n      jumpi\n        /* \"contracts/nuaa_swap.sol\":4086:4092  token0 */\n      immutable(\"0x880de8116b3dfac28e9ff528a9fef1d1e0a51449c1addce011ffec1f302992b6\")\n        /* \"contracts/nuaa_swap.sol\":4054:4092  (_tokenIn == token0) ? token1 : token0 */\n      jump(tag_203)\n    tag_202:\n        /* \"contracts/nuaa_swap.sol\":4077:4083  token1 */\n      immutable(\"0xccb1f717aa77602faf03a594761a36956b1c4cf44c6b336d1db57da799b331b8\")\n        /* \"contracts/nuaa_swap.sol\":4054:4092  (_tokenIn == token0) ? token1 : token0 */\n    tag_203:\n        /* \"contracts/nuaa_swap.sol\":4035:4092  address tokenOut = (_tokenIn == token0) ? token1 : token0 */\n      swap1\n      pop\n        /* \"contracts/nuaa_swap.sol\":4103:4118  uint reserveOut */\n      0x00\n        /* \"contracts/nuaa_swap.sol\":4128:4136  tokenOut */\n      dup2\n        /* \"contracts/nuaa_swap.sol\":4121:4147  IERC20(tokenOut).balanceOf */\n      0xffffffffffffffffffffffffffffffffffffffff\n      and\n      0x70a08231\n        /* \"contracts/nuaa_swap.sol\":4156:4160  this */\n      address\n        /* \"contracts/nuaa_swap.sol\":4121:4162  IERC20(tokenOut).balanceOf(address(this)) */\n      mload(0x40)\n      dup3\n      0xffffffff\n      and\n      0xe0\n      shl\n      dup2\n      mstore\n      0x04\n      add\n      tag_204\n      swap2\n      swap1\n      tag_28\n      jump\t// in\n    tag_204:\n      0x20\n      mload(0x40)\n      dup1\n      dup4\n      sub\n      dup2\n      dup7\n      gas\n      staticcall\n      iszero\n      dup1\n      iszero\n      tag_206\n      jumpi\n      returndatacopy(0x00, 0x00, returndatasize)\n      revert(0x00, returndatasize)\n    tag_206:\n      pop\n      pop\n      pop\n      pop\n      mload(0x40)\n      returndatasize\n      not(0x1f)\n      0x1f\n      dup3\n      add\n      and\n      dup3\n      add\n      dup1\n      0x40\n      mstore\n      pop\n      dup2\n      add\n      swap1\n      tag_207\n      swap2\n      swap1\n      tag_200\n      jump\t// in\n    tag_207:\n        /* \"contracts/nuaa_swap.sol\":4103:4162  uint reserveOut = IERC20(tokenOut).balanceOf(address(this)) */\n      swap1\n      pop\n        /* \"contracts/nuaa_swap.sol\":4197:4219  uint amountInWithLpFee */\n      0x00\n        /* \"contracts/nuaa_swap.sol\":4234:4237  997 */\n      0x03e5\n        /* \"contracts/nuaa_swap.sol\":4222:4231  _amountIn */\n      dup10\n        /* \"contracts/nuaa_swap.sol\":4222:4237  _amountIn * 997 */\n      tag_208\n      swap2\n      swap1\n      tag_124\n      jump\t// in\n    tag_208:\n        /* \"contracts/nuaa_swap.sol\":4197:4237  uint amountInWithLpFee = _amountIn * 997 */\n      swap1\n      pop\n        /* \"contracts/nuaa_swap.sol\":4248:4262  uint numerator */\n      0x00\n        /* \"contracts/nuaa_swap.sol\":4285:4295  reserveOut */\n      dup3\n        /* \"contracts/nuaa_swap.sol\":4265:4282  amountInWithLpFee */\n      dup3\n        /* \"contracts/nuaa_swap.sol\":4265:4295  amountInWithLpFee * reserveOut */\n      tag_209\n      swap2\n      swap1\n      tag_124\n      jump\t// in\n    tag_209:\n        /* \"contracts/nuaa_swap.sol\":4248:4295  uint numerator = amountInWithLpFee * reserveOut */\n      swap1\n      pop\n        /* \"contracts/nuaa_swap.sol\":4306:4322  uint denominator */\n      0x00\n        /* \"contracts/nuaa_swap.sol\":4346:4363  amountInWithLpFee */\n      dup3\n        /* \"contracts/nuaa_swap.sol\":4338:4342  1000 */\n      0x03e8\n        /* \"contracts/nuaa_swap.sol\":4326:4335  reserveIn */\n      dup8\n        /* \"contracts/nuaa_swap.sol\":4326:4342  reserveIn * 1000 */\n      tag_210\n      swap2\n      swap1\n      tag_124\n      jump\t// in\n    tag_210:\n        /* \"contracts/nuaa_swap.sol\":4325:4363  (reserveIn * 1000) + amountInWithLpFee */\n      tag_211\n      swap2\n      swap1\n      tag_172\n      jump\t// in\n    tag_211:\n        /* \"contracts/nuaa_swap.sol\":4306:4363  uint denominator = (reserveIn * 1000) + amountInWithLpFee */\n      swap1\n      pop\n        /* \"contracts/nuaa_swap.sol\":4398:4409  denominator */\n      dup1\n        /* \"contracts/nuaa_swap.sol\":4386:4395  numerator */\n      dup3\n        /* \"contracts/nuaa_swap.sol\":4386:4409  numerator / denominator */\n      tag_212\n      swap2\n      swap1\n      tag_126\n      jump\t// in\n    tag_212:\n        /* \"contracts/nuaa_swap.sol\":4374:4409  amountOut = numerator / denominator */\n      swap8\n      pop\n        /* \"contracts/nuaa_swap.sol\":4451:4464  _minAmountOut */\n      dup10\n        /* \"contracts/nuaa_swap.sol\":4438:4447  amountOut */\n      dup9\n        /* \"contracts/nuaa_swap.sol\":4438:4464  amountOut >= _minAmountOut */\n      lt\n      iszero\n        /* \"contracts/nuaa_swap.sol\":4430:4505  require(amountOut >= _minAmountOut, \"NuaaSwap: INSUFFICIENT_OUTPUT_AMOUNT\") */\n      tag_213\n      jumpi\n      mload(0x40)\n      0x08c379a000000000000000000000000000000000000000000000000000000000\n      dup2\n      mstore\n      0x04\n      add\n      tag_214\n      swap1\n      tag_215\n      jump\t// in\n    tag_214:\n      mload(0x40)\n      dup1\n      swap2\n      sub\n      swap1\n      revert\n    tag_213:\n        /* \"contracts/nuaa_swap.sol\":4599:4600  0 */\n      0x00\n        /* \"contracts/nuaa_swap.sol\":4582:4601  feeTo != address(0) */\n      0xffffffffffffffffffffffffffffffffffffffff\n      and\n        /* \"contracts/nuaa_swap.sol\":4582:4587  feeTo */\n      0x06\n      0x00\n      swap1\n      sload\n      swap1\n      0x0100\n      exp\n      swap1\n      div\n      0xffffffffffffffffffffffffffffffffffffffff\n      and\n        /* \"contracts/nuaa_swap.sol\":4582:4601  feeTo != address(0) */\n      0xffffffffffffffffffffffffffffffffffffffff\n      and\n      eq\n      iszero\n        /* \"contracts/nuaa_swap.sol\":4582:4623  feeTo != address(0) && protocolFeeBps > 0 */\n      dup1\n      iszero\n      tag_216\n      jumpi\n      pop\n        /* \"contracts/nuaa_swap.sol\":4622:4623  0 */\n      0x00\n        /* \"contracts/nuaa_swap.sol\":4605:4619  protocolFeeBps */\n      sload(0x07)\n        /* \"contracts/nuaa_swap.sol\":4605:4623  protocolFeeBps > 0 */\n      gt\n        /* \"contracts/nuaa_swap.sol\":4582:4623  feeTo != address(0) && protocolFeeBps > 0 */\n    tag_216:\n        /* \"contracts/nuaa_swap.sol\":4578:4865  if (feeTo != address(0) && protocolFeeBps > 0) {... */\n      iszero\n      tag_217\n      jumpi\n        /* \"contracts/nuaa_swap.sol\":4640:4656  uint protocolFee */\n      0x00\n        /* \"contracts/nuaa_swap.sol\":4690:4695  10000 */\n      0x2710\n        /* \"contracts/nuaa_swap.sol\":4672:4686  protocolFeeBps */\n      sload(0x07)\n        /* \"contracts/nuaa_swap.sol\":4660:4669  amountOut */\n      dup11\n        /* \"contracts/nuaa_swap.sol\":4660:4686  amountOut * protocolFeeBps */\n      tag_218\n      swap2\n      swap1\n      tag_124\n      jump\t// in\n    tag_218:\n        /* \"contracts/nuaa_swap.sol\":4659:4695  (amountOut * protocolFeeBps) / 10000 */\n      tag_219\n      swap2\n      swap1\n      tag_126\n      jump\t// in\n    tag_219:\n        /* \"contracts/nuaa_swap.sol\":4640:4695  uint protocolFee = (amountOut * protocolFeeBps) / 10000 */\n      swap1\n      pop\n        /* \"contracts/nuaa_swap.sol\":4728:4729  0 */\n      0x00\n        /* \"contracts/nuaa_swap.sol\":4714:4725  protocolFee */\n      dup2\n        /* \"contracts/nuaa_swap.sol\":4714:4729  protocolFee > 0 */\n      gt\n        /* \"contracts/nuaa_swap.sol\":4710:4854  if (protocolFee > 0) {... */\n      iszero\n      tag_220\n      jumpi\n        /* \"contracts/nuaa_swap.sol\":4757:4765  tokenOut */\n      dup6\n        /* \"contracts/nuaa_swap.sol\":4750:4775  IERC20(tokenOut).transfer */\n      0xffffffffffffffffffffffffffffffffffffffff\n      and\n      0xa9059cbb\n        /* \"contracts/nuaa_swap.sol\":4776:4781  feeTo */\n      0x06\n      0x00\n      swap1\n      sload\n      swap1\n      0x0100\n      exp\n      swap1\n      div\n      0xffffffffffffffffffffffffffffffffffffffff\n      and\n        /* \"contracts/nuaa_swap.sol\":4783:4794  protocolFee */\n      dup4\n        /* \"contracts/nuaa_swap.sol\":4750:4795  IERC20(tokenOut).transfer(feeTo, protocolFee) */\n      mload(0x40)\n      dup4\n      0xffffffff\n      and\n      0xe0\n      shl\n      dup2\n      mstore\n      0x04\n      add\n      tag_221\n      swap3\n      swap2\n      swap1\n      tag_135\n      jump\t// in\n    tag_221:\n      0x20\n      mload(0x40)\n      dup1\n      dup4\n      sub\n      dup2\n      0x00\n      dup8\n      gas\n      call\n      iszero\n      dup1\n      iszero\n      tag_223\n      jumpi\n      returndatacopy(0x00, 0x00, returndatasize)\n      revert(0x00, returndatasize)\n    tag_223:\n      pop\n      pop\n      pop\n      pop\n      mload(0x40)\n      returndatasize\n      not(0x1f)\n      0x1f\n      dup3\n      add\n      and\n      dup3\n      add\n      dup1\n      0x40\n      mstore\n      pop\n      dup2\n      add\n      swap1\n      tag_224\n      swap2\n      swap1\n      tag_139\n      jump\t// in\n    tag_224:\n      pop\n        /* \"contracts/nuaa_swap.sol\":4827:4838  protocolFee */\n      dup1\n        /* \"contracts/nuaa_swap.sol\":4814:4838  amountOut -= protocolFee */\n      dup10\n      tag_225\n      swap2\n      swap1\n      tag_130\n      jump\t// in\n    tag_225:\n      swap9\n      pop\n        /* \"contracts/nuaa_swap.sol\":4710:4854  if (protocolFee > 0) {... */\n    tag_220:\n        /* \"contracts/nuaa_swap.sol\":4625:4865  {... */\n      pop\n        /* \"contracts/nuaa_swap.sol\":4578:4865  if (feeTo != address(0) && protocolFeeBps > 0) {... */\n    tag_217:\n        /* \"contracts/nuaa_swap.sol\":4892:4900  tokenOut */\n      dup5\n        /* \"contracts/nuaa_swap.sol\":4885:4910  IERC20(tokenOut).transfer */\n      0xffffffffffffffffffffffffffffffffffffffff\n      and\n      0xa9059cbb\n        /* \"contracts/nuaa_swap.sol\":4911:4921  msg.sender */\n      caller\n        /* \"contracts/nuaa_swap.sol\":4923:4932  amountOut */\n      dup11\n        /* \"contracts/nuaa_swap.sol\":4885:4933  IERC20(tokenOut).transfer(msg.sender, amountOut) */\n      mload(0x40)\n      dup4\n      0xffffffff\n      and\n      0xe0\n      shl\n      dup2\n      mstore\n      0x04\n      add\n      tag_226\n      swap3\n      swap2\n      swap1\n      tag_135\n      jump\t// in\n    tag_226:\n      0x20\n      mload(0x40)\n      dup1\n      dup4\n      sub\n      dup2\n      0x00\n      dup8\n      gas\n      call\n      iszero\n      dup1\n      iszero\n      tag_228\n      jumpi\n      returndatacopy(0x00, 0x00, returndatasize)\n      revert(0x00, returndatasize)\n    tag_228:\n      pop\n      pop\n      pop\n      pop\n      mload(0x40)\n      returndatasize\n      not(0x1f)\n      0x1f\n      dup3\n      add\n      and\n      dup3\n      add\n      dup1\n      0x40\n      mstore\n      pop\n      dup2\n      add\n      swap1\n      tag_229\n      swap2\n      swap1\n      tag_139\n      jump\t// in\n    tag_229:\n      pop\n        /* \"contracts/nuaa_swap.sol\":4964:4970  token0 */\n      immutable(\"0x880de8116b3dfac28e9ff528a9fef1d1e0a51449c1addce011ffec1f302992b6\")\n        /* \"contracts/nuaa_swap.sol\":4957:4981  IERC20(token0).balanceOf */\n      0xffffffffffffffffffffffffffffffffffffffff\n      and\n      0x70a08231\n        /* \"contracts/nuaa_swap.sol\":4990:4994  this */\n      address\n        /* \"contracts/nuaa_swap.sol\":4957:4996  IERC20(token0).balanceOf(address(this)) */\n      mload(0x40)\n      dup3\n      0xffffffff\n      and\n      0xe0\n      shl\n      dup2\n      mstore\n      0x04\n      add\n      tag_230\n      swap2\n      swap1\n      tag_28\n      jump\t// in\n    tag_230:\n      0x20\n      mload(0x40)\n      dup1\n      dup4\n      sub\n      dup2\n      dup7\n      gas\n      staticcall\n      iszero\n      dup1\n      iszero\n      tag_232\n      jumpi\n      returndatacopy(0x00, 0x00, returndatasize)\n      revert(0x00, returndatasize)\n    tag_232:\n      pop\n      pop\n      pop\n      pop\n      mload(0x40)\n      returndatasize\n      not(0x1f)\n      0x1f\n      dup3\n      add\n      and\n      dup3\n      add\n      dup1\n      0x40\n      mstore\n      pop\n      dup2\n      add\n      swap1\n      tag_233\n      swap2\n      swap1\n      tag_200\n      jump\t// in\n    tag_233:\n        /* \"contracts/nuaa_swap.sol\":4946:4954  reserve0 */\n      0x02\n        /* \"contracts/nuaa_swap.sol\":4946:4996  reserve0 = IERC20(token0).balanceOf(address(this)) */\n      dup2\n      swap1\n      sstore\n      pop\n        /* \"contracts/nuaa_swap.sol\":5025:5031  token1 */\n      immutable(\"0xccb1f717aa77602faf03a594761a36956b1c4cf44c6b336d1db57da799b331b8\")\n        /* \"contracts/nuaa_swap.sol\":5018:5042  IERC20(token1).balanceOf */\n      0xffffffffffffffffffffffffffffffffffffffff\n      and\n      0x70a08231\n        /* \"contracts/nuaa_swap.sol\":5051:5055  this */\n      address\n        /* \"contracts/nuaa_swap.sol\":5018:5057  IERC20(token1).balanceOf(address(this)) */\n      mload(0x40)\n      dup3\n      0xffffffff\n      and\n      0xe0\n      shl\n      dup2\n      mstore\n      0x04\n      add\n      tag_234\n      swap2\n      swap1\n      tag_28\n      jump\t// in\n    tag_234:\n      0x20\n      mload(0x40)\n      dup1\n      dup4\n      sub\n      dup2\n      dup7\n      gas\n      staticcall\n      iszero\n      dup1\n      iszero\n      tag_236\n      jumpi\n      returndatacopy(0x00, 0x00, returndatasize)\n      revert(0x00, returndatasize)\n    tag_236:\n      pop\n      pop\n      pop\n      pop\n      mload(0x40)\n      returndatasize\n      not(0x1f)\n      0x1f\n      dup3\n      add\n      and\n      dup3\n      add\n      dup1\n      0x40\n      mstore\n      pop\n      dup2\n      add\n      swap1\n      tag_237\n      swap2\n      swap1\n      tag_200\n      jump\t// in\n    tag_237:\n        /* \"contracts/nuaa_swap.sol\":5007:5015  reserve1 */\n      0x03\n        /* \"contracts/nuaa_swap.sol\":5007:5057  reserve1 = IERC20(token1).balanceOf(address(this)) */\n      dup2\n      swap1\n      sstore\n      pop\n        /* \"contracts/nuaa_swap.sol\":5116:5124  tokenOut */\n      dup5\n        /* \"contracts/nuaa_swap.sol\":5075:5136  Swapped(msg.sender, _tokenIn, _amountIn, tokenOut, amountOut) */\n      0xffffffffffffffffffffffffffffffffffffffff\n      and\n        /* \"contracts/nuaa_swap.sol\":5095:5103  _tokenIn */\n      dup13\n        /* \"contracts/nuaa_swap.sol\":5075:5136  Swapped(msg.sender, _tokenIn, _amountIn, tokenOut, amountOut) */\n      0xffffffffffffffffffffffffffffffffffffffff\n      and\n        /* \"contracts/nuaa_swap.sol\":5083:5093  msg.sender */\n      caller\n        /* \"contracts/nuaa_swap.sol\":5075:5136  Swapped(msg.sender, _tokenIn, _amountIn, tokenOut, amountOut) */\n      0xffffffffffffffffffffffffffffffffffffffff\n      and\n      0x692315744755ee6d80decaeb993d4b1bb95ff5db042cc47b32d5a7d858b01902\n        /* \"contracts/nuaa_swap.sol\":5105:5114  _amountIn */\n      dup15\n        /* \"contracts/nuaa_swap.sol\":5126:5135  amountOut */\n      dup13\n        /* \"contracts/nuaa_swap.sol\":5075:5136  Swapped(msg.sender, _tokenIn, _amountIn, tokenOut, amountOut) */\n      mload(0x40)\n      tag_238\n      swap3\n      swap2\n      swap1\n      tag_66\n      jump\t// in\n    tag_238:\n      mload(0x40)\n      dup1\n      swap2\n      sub\n      swap1\n      log4\n        /* \"contracts/nuaa_swap.sol\":3766:5144  {... */\n      pop\n      pop\n      pop\n      pop\n      pop\n      pop\n        /* \"https://github.com/OpenZeppelin/openzeppelin-contracts/blob/v4.9.3/contracts/security/ReentrancyGuard.sol\":2292:2293  _ */\n      pop\n        /* \"https://github.com/OpenZeppelin/openzeppelin-contracts/blob/v4.9.3/contracts/security/ReentrancyGuard.sol\":2303:2323  _nonReentrantAfter() */\n      tag_239\n        /* \"https://github.com/OpenZeppelin/openzeppelin-contracts/blob/v4.9.3/contracts/security/ReentrancyGuard.sol\":2303:2321  _nonReentrantAfter */\n      tag_240\n        /* \"https://github.com/OpenZeppelin/openzeppelin-contracts/blob/v4.9.3/contracts/security/ReentrancyGuard.sol\":2303:2323  _nonReentrantAfter() */\n      jump\t// in\n    tag_239:\n        /* \"contracts/nuaa_swap.sol\":3457:5144  function swap(... */\n      swap5\n      swap4\n      pop\n      pop\n      pop\n      pop\n      jump\t// out\n        /* \"contracts/nuaa_swap.sol\":831:862  address public immutable token1 */\n    tag_83:\n      immutable(\"0xccb1f717aa77602faf03a594761a36956b1c4cf44c6b336d1db57da799b331b8\")\n      dup2\n      jump\t// out\n        /* \"https://github.com/OpenZeppelin/openzeppelin-contracts/blob/v4.9.3/contracts/access/Ownable.sol\":2074:2272  function transferOwnership(address newOwner) public virtual onlyOwner {... */\n    tag_87:\n        /* \"https://github.com/OpenZeppelin/openzeppelin-contracts/blob/v4.9.3/contracts/access/Ownable.sol\":1094:1107  _checkOwner() */\n      tag_242\n        /* \"https://github.com/OpenZeppelin/openzeppelin-contracts/blob/v4.9.3/contracts/access/Ownable.sol\":1094:1105  _checkOwner */\n      tag_93\n        /* \"https://github.com/OpenZeppelin/openzeppelin-contracts/blob/v4.9.3/contracts/access/Ownable.sol\":1094:1107  _checkOwner() */\n      jump\t// in\n    tag_242:\n        /* \"https://github.com/OpenZeppelin/openzeppelin-contracts/blob/v4.9.3/contracts/access/Ownable.sol\":2182:2183  0 */\n      0x00\n        /* \"https://github.com/OpenZeppelin/openzeppelin-contracts/blob/v4.9.3/contracts/access/Ownable.sol\":2162:2184  newOwner != address(0) */\n      0xffffffffffffffffffffffffffffffffffffffff\n      and\n        /* \"https://github.com/OpenZeppelin/openzeppelin-contracts/blob/v4.9.3/contracts/access/Ownable.sol\":2162:2170  newOwner */\n      dup2\n        /* \"https://github.com/OpenZeppelin/openzeppelin-contracts/blob/v4.9.3/contracts/access/Ownable.sol\":2162:2184  newOwner != address(0) */\n      0xffffffffffffffffffffffffffffffffffffffff\n      and\n      sub\n        /* \"https://github.com/OpenZeppelin/openzeppelin-contracts/blob/v4.9.3/contracts/access/Ownable.sol\":2154:2227  require(newOwner != address(0), \"Ownable: new owner is the zero address\") */\n      tag_244\n      jumpi\n      mload(0x40)\n      0x08c379a000000000000000000000000000000000000000000000000000000000\n      dup2\n      mstore\n      0x04\n      add\n      tag_245\n      swap1\n      tag_246\n      jump\t// in\n    tag_245:\n      mload(0x40)\n      dup1\n      swap2\n      sub\n      swap1\n      revert\n    tag_244:\n        /* \"https://github.com/OpenZeppelin/openzeppelin-contracts/blob/v4.9.3/contracts/access/Ownable.sol\":2237:2265  _transferOwnership(newOwner) */\n      tag_247\n        /* \"https://github.com/OpenZeppelin/openzeppelin-contracts/blob/v4.9.3/contracts/access/Ownable.sol\":2256:2264  newOwner */\n      dup2\n        /* \"https://github.com/OpenZeppelin/openzeppelin-contracts/blob/v4.9.3/contracts/access/Ownable.sol\":2237:2255  _transferOwnership */\n      tag_102\n        /* \"https://github.com/OpenZeppelin/openzeppelin-contracts/blob/v4.9.3/contracts/access/Ownable.sol\":2237:2265  _transferOwnership(newOwner) */\n      jump\t// in\n    tag_247:\n        /* \"https://github.com/OpenZeppelin/openzeppelin-contracts/blob/v4.9.3/contracts/access/Ownable.sol\":2074:2272  function transferOwnership(address newOwner) public virtual onlyOwner {... */\n      pop\n      jump\t// out\n        /* \"contracts/nuaa_swap.sol\":5319:5485  function setFeeTo(address _newFeeTo) public onlyOwner {... */\n    tag_90:\n        /* \"https://github.com/OpenZeppelin/openzeppelin-contracts/blob/v4.9.3/contracts/access/Ownable.sol\":1094:1107  _checkOwner() */\n      tag_249\n        /* \"https://github.com/OpenZeppelin/openzeppelin-contracts/blob/v4.9.3/contracts/access/Ownable.sol\":1094:1105  _checkOwner */\n      tag_93\n        /* \"https://github.com/OpenZeppelin/openzeppelin-contracts/blob/v4.9.3/contracts/access/Ownable.sol\":1094:1107  _checkOwner() */\n      jump\t// in\n    tag_249:\n        /* \"contracts/nuaa_swap.sol\":5384:5400  address oldFeeTo */\n      0x00\n        /* \"contracts/nuaa_swap.sol\":5403:5408  feeTo */\n      0x06\n      0x00\n      swap1\n      sload\n      swap1\n      0x0100\n      exp\n      swap1\n      div\n      0xffffffffffffffffffffffffffffffffffffffff\n      and\n        /* \"contracts/nuaa_swap.sol\":5384:5408  address oldFeeTo = feeTo */\n      swap1\n      pop\n        /* \"contracts/nuaa_swap.sol\":5427:5436  _newFeeTo */\n      dup2\n        /* \"contracts/nuaa_swap.sol\":5419:5424  feeTo */\n      0x06\n      0x00\n        /* \"contracts/nuaa_swap.sol\":5419:5436  feeTo = _newFeeTo */\n      0x0100\n      exp\n      dup2\n      sload\n      dup2\n      0xffffffffffffffffffffffffffffffffffffffff\n      mul\n      not\n      and\n      swap1\n      dup4\n      0xffffffffffffffffffffffffffffffffffffffff\n      and\n      mul\n      or\n      swap1\n      sstore\n      pop\n        /* \"contracts/nuaa_swap.sol\":5471:5476  feeTo */\n      0x06\n      0x00\n      swap1\n      sload\n      swap1\n      0x0100\n      exp\n      swap1\n      div\n      0xffffffffffffffffffffffffffffffffffffffff\n      and\n        /* \"contracts/nuaa_swap.sol\":5452:5477  FeeToSet(oldFeeTo, feeTo) */\n      0xffffffffffffffffffffffffffffffffffffffff\n      and\n        /* \"contracts/nuaa_swap.sol\":5461:5469  oldFeeTo */\n      dup2\n        /* \"contracts/nuaa_swap.sol\":5452:5477  FeeToSet(oldFeeTo, feeTo) */\n      0xffffffffffffffffffffffffffffffffffffffff\n      and\n      0xacdb35963fc2f391109a5045fd4850b0e0759d19f21fcaa7ab17b7d8512a9eca\n      mload(0x40)\n      mload(0x40)\n      dup1\n      swap2\n      sub\n      swap1\n      log3\n        /* \"contracts/nuaa_swap.sol\":5373:5485  {... */\n      pop\n        /* \"contracts/nuaa_swap.sol\":5319:5485  function setFeeTo(address _newFeeTo) public onlyOwner {... */\n      pop\n      jump\t// out\n        /* \"https://github.com/OpenZeppelin/openzeppelin-contracts/blob/v4.9.3/contracts/access/Ownable.sol\":1359:1489  function _checkOwner() internal view virtual {... */\n    tag_93:\n        /* \"https://github.com/OpenZeppelin/openzeppelin-contracts/blob/v4.9.3/contracts/access/Ownable.sol\":1433:1445  _msgSender() */\n      tag_252\n        /* \"https://github.com/OpenZeppelin/openzeppelin-contracts/blob/v4.9.3/contracts/access/Ownable.sol\":1433:1443  _msgSender */\n      tag_253\n        /* \"https://github.com/OpenZeppelin/openzeppelin-contracts/blob/v4.9.3/contracts/access/Ownable.sol\":1433:1445  _msgSender() */\n      jump\t// in\n    tag_252:\n        /* \"https://github.com/OpenZeppelin/openzeppelin-contracts/blob/v4.9.3/contracts/access/Ownable.sol\":1422:1445  owner() == _msgSender() */\n      0xffffffffffffffffffffffffffffffffffffffff\n      and\n        /* \"https://github.com/OpenZeppelin/openzeppelin-contracts/blob/v4.9.3/contracts/access/Ownable.sol\":1422:1429  owner() */\n      tag_254\n        /* \"https://github.com/OpenZeppelin/openzeppelin-contracts/blob/v4.9.3/contracts/access/Ownable.sol\":1422:1427  owner */\n      tag_60\n        /* \"https://github.com/OpenZeppelin/openzeppelin-contracts/blob/v4.9.3/contracts/access/Ownable.sol\":1422:1429  owner() */\n      jump\t// in\n    tag_254:\n        /* \"https://github.com/OpenZeppelin/openzeppelin-contracts/blob/v4.9.3/contracts/access/Ownable.sol\":1422:1445  owner() == _msgSender() */\n      0xffffffffffffffffffffffffffffffffffffffff\n      and\n      eq\n        /* \"https://github.com/OpenZeppelin/openzeppelin-contracts/blob/v4.9.3/contracts/access/Ownable.sol\":1414:1482  require(owner() == _msgSender(), \"Ownable: caller is not the owner\") */\n      tag_255\n      jumpi\n      mload(0x40)\n      0x08c379a000000000000000000000000000000000000000000000000000000000\n      dup2\n      mstore\n      0x04\n      add\n      tag_256\n      swap1\n      tag_257\n      jump\t// in\n    tag_256:\n      mload(0x40)\n      dup1\n      swap2\n      sub\n      swap1\n      revert\n    tag_255:\n        /* \"https://github.com/OpenZeppelin/openzeppelin-contracts/blob/v4.9.3/contracts/access/Ownable.sol\":1359:1489  function _checkOwner() internal view virtual {... */\n      jump\t// out\n        /* \"https://github.com/OpenZeppelin/openzeppelin-contracts/blob/v4.9.3/contracts/security/Pausable.sol\":2433:2550  function _unpause() internal virtual whenPaused {... */\n    tag_96:\n        /* \"https://github.com/OpenZeppelin/openzeppelin-contracts/blob/v4.9.3/contracts/security/Pausable.sol\":1486:1502  _requirePaused() */\n      tag_259\n        /* \"https://github.com/OpenZeppelin/openzeppelin-contracts/blob/v4.9.3/contracts/security/Pausable.sol\":1486:1500  _requirePaused */\n      tag_260\n        /* \"https://github.com/OpenZeppelin/openzeppelin-contracts/blob/v4.9.3/contracts/security/Pausable.sol\":1486:1502  _requirePaused() */\n      jump\t// in\n    tag_259:\n        /* \"https://github.com/OpenZeppelin/openzeppelin-contracts/blob/v4.9.3/contracts/security/Pausable.sol\":2501:2506  false */\n      0x00\n        /* \"https://github.com/OpenZeppelin/openzeppelin-contracts/blob/v4.9.3/contracts/security/Pausable.sol\":2491:2498  _paused */\n      0x00\n      0x14\n        /* \"https://github.com/OpenZeppelin/openzeppelin-contracts/blob/v4.9.3/contracts/security/Pausable.sol\":2491:2506  _paused = false */\n      0x0100\n      exp\n      dup2\n      sload\n      dup2\n      0xff\n      mul\n      not\n      and\n      swap1\n      dup4\n      iszero\n      iszero\n      mul\n      or\n      swap1\n      sstore\n      pop\n        /* \"https://github.com/OpenZeppelin/openzeppelin-contracts/blob/v4.9.3/contracts/security/Pausable.sol\":2521:2543  Unpaused(_msgSender()) */\n      0x5db9ee0a495bf2e6ff9c91a7834c1ba4fdd244a5e8aa4e537bd38aeae4b073aa\n        /* \"https://github.com/OpenZeppelin/openzeppelin-contracts/blob/v4.9.3/contracts/security/Pausable.sol\":2530:2542  _msgSender() */\n      tag_262\n        /* \"https://github.com/OpenZeppelin/openzeppelin-contracts/blob/v4.9.3/contracts/security/Pausable.sol\":2530:2540  _msgSender */\n      tag_253\n        /* \"https://github.com/OpenZeppelin/openzeppelin-contracts/blob/v4.9.3/contracts/security/Pausable.sol\":2530:2542  _msgSender() */\n      jump\t// in\n    tag_262:\n        /* \"https://github.com/OpenZeppelin/openzeppelin-contracts/blob/v4.9.3/contracts/security/Pausable.sol\":2521:2543  Unpaused(_msgSender()) */\n      mload(0x40)\n      tag_263\n      swap2\n      swap1\n      tag_28\n      jump\t// in\n    tag_263:\n      mload(0x40)\n      dup1\n      swap2\n      sub\n      swap1\n      log1\n        /* \"https://github.com/OpenZeppelin/openzeppelin-contracts/blob/v4.9.3/contracts/security/Pausable.sol\":2433:2550  function _unpause() internal virtual whenPaused {... */\n      jump\t// out\n        /* \"https://github.com/OpenZeppelin/openzeppelin-contracts/blob/v4.9.3/contracts/access/Ownable.sol\":2426:2613  function _transferOwnership(address newOwner) internal virtual {... */\n    tag_102:\n        /* \"https://github.com/OpenZeppelin/openzeppelin-contracts/blob/v4.9.3/contracts/access/Ownable.sol\":2499:2515  address oldOwner */\n      0x00\n        /* \"https://github.com/OpenZeppelin/openzeppelin-contracts/blob/v4.9.3/contracts/access/Ownable.sol\":2518:2524  _owner */\n      0x00\n      0x00\n      swap1\n      sload\n      swap1\n      0x0100\n      exp\n      swap1\n      div\n      0xffffffffffffffffffffffffffffffffffffffff\n      and\n        /* \"https://github.com/OpenZeppelin/openzeppelin-contracts/blob/v4.9.3/contracts/access/Ownable.sol\":2499:2524  address oldOwner = _owner */\n      swap1\n      pop\n        /* \"https://github.com/OpenZeppelin/openzeppelin-contracts/blob/v4.9.3/contracts/access/Ownable.sol\":2543:2551  newOwner */\n      dup2\n        /* \"https://github.com/OpenZeppelin/openzeppelin-contracts/blob/v4.9.3/contracts/access/Ownable.sol\":2534:2540  _owner */\n      0x00\n      0x00\n        /* \"https://github.com/OpenZeppelin/openzeppelin-contracts/blob/v4.9.3/contracts/access/Ownable.sol\":2534:2551  _owner = newOwner */\n      0x0100\n      exp\n      dup2\n      sload\n      dup2\n      0xffffffffffffffffffffffffffffffffffffffff\n      mul\n      not\n      and\n      swap1\n      dup4\n      0xffffffffffffffffffffffffffffffffffffffff\n      and\n      mul\n      or\n      swap1\n      sstore\n      pop\n        /* \"https://github.com/OpenZeppelin/openzeppelin-contracts/blob/v4.9.3/contracts/access/Ownable.sol\":2597:2605  newOwner */\n      dup2\n        /* \"https://github.com/OpenZeppelin/openzeppelin-contracts/blob/v4.9.3/contracts/access/Ownable.sol\":2566:2606  OwnershipTransferred(oldOwner, newOwner) */\n      0xffffffffffffffffffffffffffffffffffffffff\n      and\n        /* \"https://github.com/OpenZeppelin/openzeppelin-contracts/blob/v4.9.3/contracts/access/Ownable.sol\":2587:2595  oldOwner */\n      dup2\n        /* \"https://github.com/OpenZeppelin/openzeppelin-contracts/blob/v4.9.3/contracts/access/Ownable.sol\":2566:2606  OwnershipTransferred(oldOwner, newOwner) */\n      0xffffffffffffffffffffffffffffffffffffffff\n      and\n      0x8be0079c531659141344cd1fd0a4f28419497f9722a3daafe3b4186f6b6457e0\n      mload(0x40)\n      mload(0x40)\n      dup1\n      swap2\n      sub\n      swap1\n      log3\n        /* \"https://github.com/OpenZeppelin/openzeppelin-contracts/blob/v4.9.3/contracts/access/Ownable.sol\":2489:2613  {... */\n      pop\n        /* \"https://github.com/OpenZeppelin/openzeppelin-contracts/blob/v4.9.3/contracts/access/Ownable.sol\":2426:2613  function _transferOwnership(address newOwner) internal virtual {... */\n      pop\n      jump\t// out\n        /* \"https://github.com/OpenZeppelin/openzeppelin-contracts/blob/v4.9.3/contracts/security/Pausable.sol\":2186:2301  function _pause() internal virtual whenNotPaused {... */\n    tag_114:\n        /* \"https://github.com/OpenZeppelin/openzeppelin-contracts/blob/v4.9.3/contracts/security/Pausable.sol\":1239:1258  _requireNotPaused() */\n      tag_266\n        /* \"https://github.com/OpenZeppelin/openzeppelin-contracts/blob/v4.9.3/contracts/security/Pausable.sol\":1239:1256  _requireNotPaused */\n      tag_118\n        /* \"https://github.com/OpenZeppelin/openzeppelin-contracts/blob/v4.9.3/contracts/security/Pausable.sol\":1239:1258  _requireNotPaused() */\n      jump\t// in\n    tag_266:\n        /* \"https://github.com/OpenZeppelin/openzeppelin-contracts/blob/v4.9.3/contracts/security/Pausable.sol\":2255:2259  true */\n      0x01\n        /* \"https://github.com/OpenZeppelin/openzeppelin-contracts/blob/v4.9.3/contracts/security/Pausable.sol\":2245:2252  _paused */\n      0x00\n      0x14\n        /* \"https://github.com/OpenZeppelin/openzeppelin-contracts/blob/v4.9.3/contracts/security/Pausable.sol\":2245:2259  _paused = true */\n      0x0100\n      exp\n      dup2\n      sload\n      dup2\n      0xff\n      mul\n      not\n      and\n      swap1\n      dup4\n      iszero\n      iszero\n      mul\n      or\n      swap1\n      sstore\n      pop\n        /* \"https://github.com/OpenZeppelin/openzeppelin-contracts/blob/v4.9.3/contracts/security/Pausable.sol\":2274:2294  Paused(_msgSender()) */\n      0x62e78cea01bee320cd4e420270b5ea74000d11b0c9f74754ebdbfc544b05a258\n        /* \"https://github.com/OpenZeppelin/openzeppelin-contracts/blob/v4.9.3/contracts/security/Pausable.sol\":2281:2293  _msgSender() */\n      tag_268\n        /* \"https://github.com/OpenZeppelin/openzeppelin-contracts/blob/v4.9.3/contracts/security/Pausable.sol\":2281:2291  _msgSender */\n      tag_253\n        /* \"https://github.com/OpenZeppelin/openzeppelin-contracts/blob/v4.9.3/contracts/security/Pausable.sol\":2281:2293  _msgSender() */\n      jump\t// in\n    tag_268:\n        /* \"https://github.com/OpenZeppelin/openzeppelin-contracts/blob/v4.9.3/contracts/security/Pausable.sol\":2274:2294  Paused(_msgSender()) */\n      mload(0x40)\n      tag_269\n      swap2\n      swap1\n      tag_28\n      jump\t// in\n    tag_269:\n      mload(0x40)\n      dup1\n      swap2\n      sub\n      swap1\n      log1\n        /* \"https://github.com/OpenZeppelin/openzeppelin-contracts/blob/v4.9.3/contracts/security/Pausable.sol\":2186:2301  function _pause() internal virtual whenNotPaused {... */\n      jump\t// out\n        /* \"https://github.com/OpenZeppelin/openzeppelin-contracts/blob/v4.9.3/contracts/security/Pausable.sol\":1767:1873  function _requireNotPaused() internal view virtual {... */\n    tag_118:\n        /* \"https://github.com/OpenZeppelin/openzeppelin-contracts/blob/v4.9.3/contracts/security/Pausable.sol\":1837:1845  paused() */\n      tag_271\n        /* \"https://github.com/OpenZeppelin/openzeppelin-contracts/blob/v4.9.3/contracts/security/Pausable.sol\":1837:1843  paused */\n      tag_48\n        /* \"https://github.com/OpenZeppelin/openzeppelin-contracts/blob/v4.9.3/contracts/security/Pausable.sol\":1837:1845  paused() */\n      jump\t// in\n    tag_271:\n        /* \"https://github.com/OpenZeppelin/openzeppelin-contracts/blob/v4.9.3/contracts/security/Pausable.sol\":1836:1845  !paused() */\n      iszero\n        /* \"https://github.com/OpenZeppelin/openzeppelin-contracts/blob/v4.9.3/contracts/security/Pausable.sol\":1828:1866  require(!paused(), \"Pausable: paused\") */\n      tag_272\n      jumpi\n      mload(0x40)\n      0x08c379a000000000000000000000000000000000000000000000000000000000\n      dup2\n      mstore\n      0x04\n      add\n      tag_273\n      swap1\n      tag_274\n      jump\t// in\n    tag_273:\n      mload(0x40)\n      dup1\n      swap2\n      sub\n      swap1\n      revert\n    tag_272:\n        /* \"https://github.com/OpenZeppelin/openzeppelin-contracts/blob/v4.9.3/contracts/security/Pausable.sol\":1767:1873  function _requireNotPaused() internal view virtual {... */\n      jump\t// out\n        /* \"contracts/nuaa_swap.sol\":5882:6184  function sqrt(uint y) private pure returns (uint z) {... */\n    tag_160:\n        /* \"contracts/nuaa_swap.sol\":5926:5932  uint z */\n      0x00\n        /* \"contracts/nuaa_swap.sol\":5953:5954  3 */\n      0x03\n        /* \"contracts/nuaa_swap.sol\":5949:5950  y */\n      dup3\n        /* \"contracts/nuaa_swap.sol\":5949:5954  y > 3 */\n      gt\n        /* \"contracts/nuaa_swap.sol\":5945:6177  if (y > 3) {... */\n      iszero\n      tag_276\n      jumpi\n        /* \"contracts/nuaa_swap.sol\":5975:5976  y */\n      dup2\n        /* \"contracts/nuaa_swap.sol\":5971:5976  z = y */\n      swap1\n      pop\n        /* \"contracts/nuaa_swap.sol\":5991:5997  uint x */\n      0x00\n        /* \"contracts/nuaa_swap.sol\":6008:6009  1 */\n      0x01\n        /* \"contracts/nuaa_swap.sol\":6004:6005  2 */\n      0x02\n        /* \"contracts/nuaa_swap.sol\":6000:6001  y */\n      dup5\n        /* \"contracts/nuaa_swap.sol\":6000:6005  y / 2 */\n      tag_277\n      swap2\n      swap1\n      tag_126\n      jump\t// in\n    tag_277:\n        /* \"contracts/nuaa_swap.sol\":6000:6009  y / 2 + 1 */\n      tag_278\n      swap2\n      swap1\n      tag_172\n      jump\t// in\n    tag_278:\n        /* \"contracts/nuaa_swap.sol\":5991:6009  uint x = y / 2 + 1 */\n      swap1\n      pop\n        /* \"contracts/nuaa_swap.sol\":6024:6116  while (x < z) {... */\n    tag_279:\n        /* \"contracts/nuaa_swap.sol\":6035:6036  z */\n      dup2\n        /* \"contracts/nuaa_swap.sol\":6031:6032  x */\n      dup2\n        /* \"contracts/nuaa_swap.sol\":6031:6036  x < z */\n      lt\n        /* \"contracts/nuaa_swap.sol\":6024:6116  while (x < z) {... */\n      iszero\n      tag_280\n      jumpi\n        /* \"contracts/nuaa_swap.sol\":6061:6062  x */\n      dup1\n        /* \"contracts/nuaa_swap.sol\":6057:6062  z = x */\n      swap2\n      pop\n        /* \"contracts/nuaa_swap.sol\":6099:6100  2 */\n      0x02\n        /* \"contracts/nuaa_swap.sol\":6094:6095  x */\n      dup2\n        /* \"contracts/nuaa_swap.sol\":6090:6091  x */\n      dup3\n        /* \"contracts/nuaa_swap.sol\":6086:6087  y */\n      dup6\n        /* \"contracts/nuaa_swap.sol\":6086:6091  y / x */\n      tag_281\n      swap2\n      swap1\n      tag_126\n      jump\t// in\n    tag_281:\n        /* \"contracts/nuaa_swap.sol\":6086:6095  y / x + x */\n      tag_282\n      swap2\n      swap1\n      tag_172\n      jump\t// in\n    tag_282:\n        /* \"contracts/nuaa_swap.sol\":6085:6100  (y / x + x) / 2 */\n      tag_283\n      swap2\n      swap1\n      tag_126\n      jump\t// in\n    tag_283:\n        /* \"contracts/nuaa_swap.sol\":6081:6100  x = (y / x + x) / 2 */\n      swap1\n      pop\n        /* \"contracts/nuaa_swap.sol\":6024:6116  while (x < z) {... */\n      jump(tag_279)\n    tag_280:\n        /* \"contracts/nuaa_swap.sol\":5956:6127  {... */\n      pop\n        /* \"contracts/nuaa_swap.sol\":5945:6177  if (y > 3) {... */\n      jump(tag_284)\n    tag_276:\n        /* \"contracts/nuaa_swap.sol\":6142:6143  0 */\n      0x00\n        /* \"contracts/nuaa_swap.sol\":6137:6138  y */\n      dup3\n        /* \"contracts/nuaa_swap.sol\":6137:6143  y != 0 */\n      eq\n        /* \"contracts/nuaa_swap.sol\":6133:6177  if (y != 0) {... */\n      tag_285\n      jumpi\n        /* \"contracts/nuaa_swap.sol\":6164:6165  1 */\n      0x01\n        /* \"contracts/nuaa_swap.sol\":6160:6165  z = 1 */\n      swap1\n      pop\n        /* \"contracts/nuaa_swap.sol\":6133:6177  if (y != 0) {... */\n    tag_285:\n        /* \"contracts/nuaa_swap.sol\":5945:6177  if (y > 3) {... */\n    tag_284:\n        /* \"contracts/nuaa_swap.sol\":5882:6184  function sqrt(uint y) private pure returns (uint z) {... */\n      swap2\n      swap1\n      pop\n      jump\t// out\n        /* \"contracts/nuaa_swap.sol\":5778:5874  function min(uint x, uint y) private pure returns (uint) {... */\n    tag_167:\n        /* \"contracts/nuaa_swap.sol\":5829:5833  uint */\n      0x00\n        /* \"contracts/nuaa_swap.sol\":5857:5858  y */\n      dup2\n        /* \"contracts/nuaa_swap.sol\":5853:5854  x */\n      dup4\n        /* \"contracts/nuaa_swap.sol\":5853:5858  x < y */\n      lt\n        /* \"contracts/nuaa_swap.sol\":5853:5866  x < y ? x : y */\n      tag_287\n      jumpi\n        /* \"contracts/nuaa_swap.sol\":5865:5866  y */\n      dup2\n        /* \"contracts/nuaa_swap.sol\":5853:5866  x < y ? x : y */\n      jump(tag_288)\n    tag_287:\n        /* \"contracts/nuaa_swap.sol\":5861:5862  x */\n      dup3\n        /* \"contracts/nuaa_swap.sol\":5853:5866  x < y ? x : y */\n    tag_288:\n        /* \"contracts/nuaa_swap.sol\":5846:5866  return x < y ? x : y */\n      swap1\n      pop\n        /* \"contracts/nuaa_swap.sol\":5778:5874  function min(uint x, uint y) private pure returns (uint) {... */\n      swap3\n      swap2\n      pop\n      pop\n      jump\t// out\n        /* \"https://github.com/OpenZeppelin/openzeppelin-contracts/blob/v4.9.3/contracts/security/ReentrancyGuard.sol\":2336:2623  function _nonReentrantBefore() private {... */\n    tag_182:\n        /* \"https://github.com/OpenZeppelin/openzeppelin-contracts/blob/v4.9.3/contracts/security/ReentrancyGuard.sol\":1759:1760  2 */\n      0x02\n        /* \"https://github.com/OpenZeppelin/openzeppelin-contracts/blob/v4.9.3/contracts/security/ReentrancyGuard.sol\":2468:2475  _status */\n      sload(0x01)\n        /* \"https://github.com/OpenZeppelin/openzeppelin-contracts/blob/v4.9.3/contracts/security/ReentrancyGuard.sol\":2468:2487  _status != _ENTERED */\n      sub\n        /* \"https://github.com/OpenZeppelin/openzeppelin-contracts/blob/v4.9.3/contracts/security/ReentrancyGuard.sol\":2460:2523  require(_status != _ENTERED, \"ReentrancyGuard: reentrant call\") */\n      tag_290\n      jumpi\n      mload(0x40)\n      0x08c379a000000000000000000000000000000000000000000000000000000000\n      dup2\n      mstore\n      0x04\n      add\n      tag_291\n      swap1\n      tag_292\n      jump\t// in\n    tag_291:\n      mload(0x40)\n      dup1\n      swap2\n      sub\n      swap1\n      revert\n    tag_290:\n        /* \"https://github.com/OpenZeppelin/openzeppelin-contracts/blob/v4.9.3/contracts/security/ReentrancyGuard.sol\":1759:1760  2 */\n      0x02\n        /* \"https://github.com/OpenZeppelin/openzeppelin-contracts/blob/v4.9.3/contracts/security/ReentrancyGuard.sol\":2598:2605  _status */\n      0x01\n        /* \"https://github.com/OpenZeppelin/openzeppelin-contracts/blob/v4.9.3/contracts/security/ReentrancyGuard.sol\":2598:2616  _status = _ENTERED */\n      dup2\n      swap1\n      sstore\n      pop\n        /* \"https://github.com/OpenZeppelin/openzeppelin-contracts/blob/v4.9.3/contracts/security/ReentrancyGuard.sol\":2336:2623  function _nonReentrantBefore() private {... */\n      jump\t// out\n        /* \"https://github.com/OpenZeppelin/openzeppelin-contracts/blob/v4.9.3/contracts/security/ReentrancyGuard.sol\":2629:2838  function _nonReentrantAfter() private {... */\n    tag_240:\n        /* \"https://github.com/OpenZeppelin/openzeppelin-contracts/blob/v4.9.3/contracts/security/ReentrancyGuard.sol\":1716:1717  1 */\n      0x01\n        /* \"https://github.com/OpenZeppelin/openzeppelin-contracts/blob/v4.9.3/contracts/security/ReentrancyGuard.sol\":2809:2816  _status */\n      dup1\n        /* \"https://github.com/OpenZeppelin/openzeppelin-contracts/blob/v4.9.3/contracts/security/ReentrancyGuard.sol\":2809:2831  _status = _NOT_ENTERED */\n      dup2\n      swap1\n      sstore\n      pop\n        /* \"https://github.com/OpenZeppelin/openzeppelin-contracts/blob/v4.9.3/contracts/security/ReentrancyGuard.sol\":2629:2838  function _nonReentrantAfter() private {... */\n      jump\t// out\n        /* \"https://github.com/OpenZeppelin/openzeppelin-contracts/blob/v4.9.3/contracts/utils/Context.sol\":640:736  function _msgSender() internal view virtual returns (address) {... */\n    tag_253:\n        /* \"https://github.com/OpenZeppelin/openzeppelin-contracts/blob/v4.9.3/contracts/utils/Context.sol\":693:700  address */\n      0x00\n        /* \"https://github.com/OpenZeppelin/openzeppelin-contracts/blob/v4.9.3/contracts/utils/Context.sol\":719:729  msg.sender */\n      caller\n        /* \"https://github.com/OpenZeppelin/openzeppelin-contracts/blob/v4.9.3/contracts/utils/Context.sol\":712:729  return msg.sender */\n      swap1\n      pop\n        /* \"https://github.com/OpenZeppelin/openzeppelin-contracts/blob/v4.9.3/contracts/utils/Context.sol\":640:736  function _msgSender() internal view virtual returns (address) {... */\n      swap1\n      jump\t// out\n        /* \"https://github.com/OpenZeppelin/openzeppelin-contracts/blob/v4.9.3/contracts/security/Pausable.sol\":1945:2051  function _requirePaused() internal view virtual {... */\n    tag_260:\n        /* \"https://github.com/OpenZeppelin/openzeppelin-contracts/blob/v4.9.3/contracts/security/Pausable.sol\":2011:2019  paused() */\n      tag_296\n        /* \"https://github.com/OpenZeppelin/openzeppelin-contracts/blob/v4.9.3/contracts/security/Pausable.sol\":2011:2017  paused */\n      tag_48\n        /* \"https://github.com/OpenZeppelin/openzeppelin-contracts/blob/v4.9.3/contracts/security/Pausable.sol\":2011:2019  paused() */\n      jump\t// in\n    tag_296:\n        /* \"https://github.com/OpenZeppelin/openzeppelin-contracts/blob/v4.9.3/contracts/security/Pausable.sol\":2003:2044  require(paused(), \"Pausable: not paused\") */\n      tag_297\n      jumpi\n      mload(0x40)\n      0x08c379a000000000000000000000000000000000000000000000000000000000\n      dup2\n      mstore\n      0x04\n      add\n      tag_298\n      swap1\n      tag_299\n      jump\t// in\n    tag_298:\n      mload(0x40)\n      dup1\n      swap2\n      sub\n      swap1\n      revert\n    tag_297:\n        /* \"https://github.com/OpenZeppelin/openzeppelin-contracts/blob/v4.9.3/contracts/security/Pausable.sol\":1945:2051  function _requirePaused() internal view virtual {... */\n      jump\t// out\n        /* \"#utility.yul\":7:133   */\n    tag_300:\n        /* \"#utility.yul\":44:51   */\n      0x00\n        /* \"#utility.yul\":84:126   */\n      0xffffffffffffffffffffffffffffffffffffffff\n        /* \"#utility.yul\":77:82   */\n      dup3\n        /* \"#utility.yul\":73:127   */\n      and\n        /* \"#utility.yul\":62:127   */\n      swap1\n      pop\n        /* \"#utility.yul\":7:133   */\n      swap2\n      swap1\n      pop\n      jump\t// out\n        /* \"#utility.yul\":139:235   */\n    tag_301:\n        /* \"#utility.yul\":176:183   */\n      0x00\n        /* \"#utility.yul\":205:229   */\n      tag_345\n        /* \"#utility.yul\":223:228   */\n      dup3\n        /* \"#utility.yul\":205:229   */\n      tag_300\n      jump\t// in\n    tag_345:\n        /* \"#utility.yul\":194:229   */\n      swap1\n      pop\n        /* \"#utility.yul\":139:235   */\n      swap2\n      swap1\n      pop\n      jump\t// out\n        /* \"#utility.yul\":241:359   */\n    tag_302:\n        /* \"#utility.yul\":328:352   */\n      tag_347\n        /* \"#utility.yul\":346:351   */\n      dup2\n        /* \"#utility.yul\":328:352   */\n      tag_301\n      jump\t// in\n    tag_347:\n        /* \"#utility.yul\":323:326   */\n      dup3\n        /* \"#utility.yul\":316:353   */\n      mstore\n        /* \"#utility.yul\":241:359   */\n      pop\n      pop\n      jump\t// out\n        /* \"#utility.yul\":365:587   */\n    tag_28:\n        /* \"#utility.yul\":458:462   */\n      0x00\n        /* \"#utility.yul\":496:498   */\n      0x20\n        /* \"#utility.yul\":485:494   */\n      dup3\n        /* \"#utility.yul\":481:499   */\n      add\n        /* \"#utility.yul\":473:499   */\n      swap1\n      pop\n        /* \"#utility.yul\":509:580   */\n      tag_349\n        /* \"#utility.yul\":577:578   */\n      0x00\n        /* \"#utility.yul\":566:575   */\n      dup4\n        /* \"#utility.yul\":562:579   */\n      add\n        /* \"#utility.yul\":553:559   */\n      dup5\n        /* \"#utility.yul\":509:580   */\n      tag_302\n      jump\t// in\n    tag_349:\n        /* \"#utility.yul\":365:587   */\n      swap3\n      swap2\n      pop\n      pop\n      jump\t// out\n        /* \"#utility.yul\":593:670   */\n    tag_303:\n        /* \"#utility.yul\":630:637   */\n      0x00\n        /* \"#utility.yul\":659:664   */\n      dup2\n        /* \"#utility.yul\":648:664   */\n      swap1\n      pop\n        /* \"#utility.yul\":593:670   */\n      swap2\n      swap1\n      pop\n      jump\t// out\n        /* \"#utility.yul\":676:794   */\n    tag_304:\n        /* \"#utility.yul\":763:787   */\n      tag_352\n        /* \"#utility.yul\":781:786   */\n      dup2\n        /* \"#utility.yul\":763:787   */\n      tag_303\n      jump\t// in\n    tag_352:\n        /* \"#utility.yul\":758:761   */\n      dup3\n        /* \"#utility.yul\":751:788   */\n      mstore\n        /* \"#utility.yul\":676:794   */\n      pop\n      pop\n      jump\t// out\n        /* \"#utility.yul\":800:1022   */\n    tag_35:\n        /* \"#utility.yul\":893:897   */\n      0x00\n        /* \"#utility.yul\":931:933   */\n      0x20\n        /* \"#utility.yul\":920:929   */\n      dup3\n        /* \"#utility.yul\":916:934   */\n      add\n        /* \"#utility.yul\":908:934   */\n      swap1\n      pop\n        /* \"#utility.yul\":944:1015   */\n      tag_354\n        /* \"#utility.yul\":1012:1013   */\n      0x00\n        /* \"#utility.yul\":1001:1010   */\n      dup4\n        /* \"#utility.yul\":997:1014   */\n      add\n        /* \"#utility.yul\":988:994   */\n      dup5\n        /* \"#utility.yul\":944:1015   */\n      tag_304\n      jump\t// in\n    tag_354:\n        /* \"#utility.yul\":800:1022   */\n      swap3\n      swap2\n      pop\n      pop\n      jump\t// out\n        /* \"#utility.yul\":1028:1118   */\n    tag_305:\n        /* \"#utility.yul\":1062:1069   */\n      0x00\n        /* \"#utility.yul\":1105:1110   */\n      dup2\n        /* \"#utility.yul\":1098:1111   */\n      iszero\n        /* \"#utility.yul\":1091:1112   */\n      iszero\n        /* \"#utility.yul\":1080:1112   */\n      swap1\n      pop\n        /* \"#utility.yul\":1028:1118   */\n      swap2\n      swap1\n      pop\n      jump\t// out\n        /* \"#utility.yul\":1124:1233   */\n    tag_306:\n        /* \"#utility.yul\":1205:1226   */\n      tag_357\n        /* \"#utility.yul\":1220:1225   */\n      dup2\n        /* \"#utility.yul\":1205:1226   */\n      tag_305\n      jump\t// in\n    tag_357:\n        /* \"#utility.yul\":1200:1203   */\n      dup3\n        /* \"#utility.yul\":1193:1227   */\n      mstore\n        /* \"#utility.yul\":1124:1233   */\n      pop\n      pop\n      jump\t// out\n        /* \"#utility.yul\":1239:1449   */\n    tag_50:\n        /* \"#utility.yul\":1326:1330   */\n      0x00\n        /* \"#utility.yul\":1364:1366   */\n      0x20\n        /* \"#utility.yul\":1353:1362   */\n      dup3\n        /* \"#utility.yul\":1349:1367   */\n      add\n        /* \"#utility.yul\":1341:1367   */\n      swap1\n      pop\n        /* \"#utility.yul\":1377:1442   */\n      tag_359\n        /* \"#utility.yul\":1439:1440   */\n      0x00\n        /* \"#utility.yul\":1428:1437   */\n      dup4\n        /* \"#utility.yul\":1424:1441   */\n      add\n        /* \"#utility.yul\":1415:1421   */\n      dup5\n        /* \"#utility.yul\":1377:1442   */\n      tag_306\n      jump\t// in\n    tag_359:\n        /* \"#utility.yul\":1239:1449   */\n      swap3\n      swap2\n      pop\n      pop\n      jump\t// out\n        /* \"#utility.yul\":1536:1653   */\n    tag_308:\n        /* \"#utility.yul\":1645:1646   */\n      0x00\n        /* \"#utility.yul\":1642:1643   */\n      0x00\n        /* \"#utility.yul\":1635:1647   */\n      revert\n        /* \"#utility.yul\":1782:1904   */\n    tag_310:\n        /* \"#utility.yul\":1855:1879   */\n      tag_364\n        /* \"#utility.yul\":1873:1878   */\n      dup2\n        /* \"#utility.yul\":1855:1879   */\n      tag_303\n      jump\t// in\n    tag_364:\n        /* \"#utility.yul\":1848:1853   */\n      dup2\n        /* \"#utility.yul\":1845:1880   */\n      eq\n        /* \"#utility.yul\":1835:1898   */\n      tag_365\n      jumpi\n        /* \"#utility.yul\":1894:1895   */\n      0x00\n        /* \"#utility.yul\":1891:1892   */\n      0x00\n        /* \"#utility.yul\":1884:1896   */\n      revert\n        /* \"#utility.yul\":1835:1898   */\n    tag_365:\n        /* \"#utility.yul\":1782:1904   */\n      pop\n      jump\t// out\n        /* \"#utility.yul\":1910:2049   */\n    tag_311:\n        /* \"#utility.yul\":1956:1961   */\n      0x00\n        /* \"#utility.yul\":1994:2000   */\n      dup2\n        /* \"#utility.yul\":1981:2001   */\n      calldataload\n        /* \"#utility.yul\":1972:2001   */\n      swap1\n      pop\n        /* \"#utility.yul\":2010:2043   */\n      tag_367\n        /* \"#utility.yul\":2037:2042   */\n      dup2\n        /* \"#utility.yul\":2010:2043   */\n      tag_310\n      jump\t// in\n    tag_367:\n        /* \"#utility.yul\":1910:2049   */\n      swap3\n      swap2\n      pop\n      pop\n      jump\t// out\n        /* \"#utility.yul\":2055:2384   */\n    tag_55:\n        /* \"#utility.yul\":2114:2120   */\n      0x00\n        /* \"#utility.yul\":2163:2165   */\n      0x20\n        /* \"#utility.yul\":2151:2160   */\n      dup3\n        /* \"#utility.yul\":2142:2149   */\n      dup5\n        /* \"#utility.yul\":2138:2161   */\n      sub\n        /* \"#utility.yul\":2134:2166   */\n      slt\n        /* \"#utility.yul\":2131:2250   */\n      iszero\n      tag_369\n      jumpi\n        /* \"#utility.yul\":2169:2248   */\n      tag_370\n      tag_308\n      jump\t// in\n    tag_370:\n        /* \"#utility.yul\":2131:2250   */\n    tag_369:\n        /* \"#utility.yul\":2289:2290   */\n      0x00\n        /* \"#utility.yul\":2314:2367   */\n      tag_371\n        /* \"#utility.yul\":2359:2366   */\n      dup5\n        /* \"#utility.yul\":2350:2356   */\n      dup3\n        /* \"#utility.yul\":2339:2348   */\n      dup6\n        /* \"#utility.yul\":2335:2357   */\n      add\n        /* \"#utility.yul\":2314:2367   */\n      tag_311\n      jump\t// in\n    tag_371:\n        /* \"#utility.yul\":2304:2367   */\n      swap2\n      pop\n        /* \"#utility.yul\":2260:2377   */\n      pop\n        /* \"#utility.yul\":2055:2384   */\n      swap3\n      swap2\n      pop\n      pop\n      jump\t// out\n        /* \"#utility.yul\":2390:2722   */\n    tag_66:\n        /* \"#utility.yul\":2511:2515   */\n      0x00\n        /* \"#utility.yul\":2549:2551   */\n      0x40\n        /* \"#utility.yul\":2538:2547   */\n      dup3\n        /* \"#utility.yul\":2534:2552   */\n      add\n        /* \"#utility.yul\":2526:2552   */\n      swap1\n      pop\n        /* \"#utility.yul\":2562:2633   */\n      tag_373\n        /* \"#utility.yul\":2630:2631   */\n      0x00\n        /* \"#utility.yul\":2619:2628   */\n      dup4\n        /* \"#utility.yul\":2615:2632   */\n      add\n        /* \"#utility.yul\":2606:2612   */\n      dup6\n        /* \"#utility.yul\":2562:2633   */\n      tag_304\n      jump\t// in\n    tag_373:\n        /* \"#utility.yul\":2643:2715   */\n      tag_374\n        /* \"#utility.yul\":2711:2713   */\n      0x20\n        /* \"#utility.yul\":2700:2709   */\n      dup4\n        /* \"#utility.yul\":2696:2714   */\n      add\n        /* \"#utility.yul\":2687:2693   */\n      dup5\n        /* \"#utility.yul\":2643:2715   */\n      tag_304\n      jump\t// in\n    tag_374:\n        /* \"#utility.yul\":2390:2722   */\n      swap4\n      swap3\n      pop\n      pop\n      pop\n      jump\t// out\n        /* \"#utility.yul\":2728:2850   */\n    tag_312:\n        /* \"#utility.yul\":2801:2825   */\n      tag_376\n        /* \"#utility.yul\":2819:2824   */\n      dup2\n        /* \"#utility.yul\":2801:2825   */\n      tag_301\n      jump\t// in\n    tag_376:\n        /* \"#utility.yul\":2794:2799   */\n      dup2\n        /* \"#utility.yul\":2791:2826   */\n      eq\n        /* \"#utility.yul\":2781:2844   */\n      tag_377\n      jumpi\n        /* \"#utility.yul\":2840:2841   */\n      0x00\n        /* \"#utility.yul\":2837:2838   */\n      0x00\n        /* \"#utility.yul\":2830:2842   */\n      revert\n        /* \"#utility.yul\":2781:2844   */\n    tag_377:\n        /* \"#utility.yul\":2728:2850   */\n      pop\n      jump\t// out\n        /* \"#utility.yul\":2856:2995   */\n    tag_313:\n        /* \"#utility.yul\":2902:2907   */\n      0x00\n        /* \"#utility.yul\":2940:2946   */\n      dup2\n        /* \"#utility.yul\":2927:2947   */\n      calldataload\n        /* \"#utility.yul\":2918:2947   */\n      swap1\n      pop\n        /* \"#utility.yul\":2956:2989   */\n      tag_379\n        /* \"#utility.yul\":2983:2988   */\n      dup2\n        /* \"#utility.yul\":2956:2989   */\n      tag_312\n      jump\t// in\n    tag_379:\n        /* \"#utility.yul\":2856:2995   */\n      swap3\n      swap2\n      pop\n      pop\n      jump\t// out\n        /* \"#utility.yul\":3001:3330   */\n    tag_69:\n        /* \"#utility.yul\":3060:3066   */\n      0x00\n        /* \"#utility.yul\":3109:3111   */\n      0x20\n        /* \"#utility.yul\":3097:3106   */\n      dup3\n        /* \"#utility.yul\":3088:3095   */\n      dup5\n        /* \"#utility.yul\":3084:3107   */\n      sub\n        /* \"#utility.yul\":3080:3112   */\n      slt\n        /* \"#utility.yul\":3077:3196   */\n      iszero\n      tag_381\n      jumpi\n        /* \"#utility.yul\":3115:3194   */\n      tag_382\n      tag_308\n      jump\t// in\n    tag_382:\n        /* \"#utility.yul\":3077:3196   */\n    tag_381:\n        /* \"#utility.yul\":3235:3236   */\n      0x00\n        /* \"#utility.yul\":3260:3313   */\n      tag_383\n        /* \"#utility.yul\":3305:3312   */\n      dup5\n        /* \"#utility.yul\":3296:3302   */\n      dup3\n        /* \"#utility.yul\":3285:3294   */\n      dup6\n        /* \"#utility.yul\":3281:3303   */\n      add\n        /* \"#utility.yul\":3260:3313   */\n      tag_313\n      jump\t// in\n    tag_383:\n        /* \"#utility.yul\":3250:3313   */\n      swap2\n      pop\n        /* \"#utility.yul\":3206:3323   */\n      pop\n        /* \"#utility.yul\":3001:3330   */\n      swap3\n      swap2\n      pop\n      pop\n      jump\t// out\n        /* \"#utility.yul\":3336:3810   */\n    tag_74:\n        /* \"#utility.yul\":3404:3410   */\n      0x00\n        /* \"#utility.yul\":3412:3418   */\n      0x00\n        /* \"#utility.yul\":3461:3463   */\n      0x40\n        /* \"#utility.yul\":3449:3458   */\n      dup4\n        /* \"#utility.yul\":3440:3447   */\n      dup6\n        /* \"#utility.yul\":3436:3459   */\n      sub\n        /* \"#utility.yul\":3432:3464   */\n      slt\n        /* \"#utility.yul\":3429:3548   */\n      iszero\n      tag_385\n      jumpi\n        /* \"#utility.yul\":3467:3546   */\n      tag_386\n      tag_308\n      jump\t// in\n    tag_386:\n        /* \"#utility.yul\":3429:3548   */\n    tag_385:\n        /* \"#utility.yul\":3587:3588   */\n      0x00\n        /* \"#utility.yul\":3612:3665   */\n      tag_387\n        /* \"#utility.yul\":3657:3664   */\n      dup6\n        /* \"#utility.yul\":3648:3654   */\n      dup3\n        /* \"#utility.yul\":3637:3646   */\n      dup7\n        /* \"#utility.yul\":3633:3655   */\n      add\n        /* \"#utility.yul\":3612:3665   */\n      tag_311\n      jump\t// in\n    tag_387:\n        /* \"#utility.yul\":3602:3665   */\n      swap3\n      pop\n        /* \"#utility.yul\":3558:3675   */\n      pop\n        /* \"#utility.yul\":3714:3716   */\n      0x20\n        /* \"#utility.yul\":3740:3793   */\n      tag_388\n        /* \"#utility.yul\":3785:3792   */\n      dup6\n        /* \"#utility.yul\":3776:3782   */\n      dup3\n        /* \"#utility.yul\":3765:3774   */\n      dup7\n        /* \"#utility.yul\":3761:3783   */\n      add\n        /* \"#utility.yul\":3740:3793   */\n      tag_311\n      jump\t// in\n    tag_388:\n        /* \"#utility.yul\":3730:3793   */\n      swap2\n      pop\n        /* \"#utility.yul\":3685:3803   */\n      pop\n        /* \"#utility.yul\":3336:3810   */\n      swap3\n      pop\n      swap3\n      swap1\n      pop\n      jump\t// out\n        /* \"#utility.yul\":3816:4581   */\n    tag_79:\n        /* \"#utility.yul\":3902:3908   */\n      0x00\n        /* \"#utility.yul\":3910:3916   */\n      0x00\n        /* \"#utility.yul\":3918:3924   */\n      0x00\n        /* \"#utility.yul\":3926:3932   */\n      0x00\n        /* \"#utility.yul\":3975:3978   */\n      0x80\n        /* \"#utility.yul\":3963:3972   */\n      dup6\n        /* \"#utility.yul\":3954:3961   */\n      dup8\n        /* \"#utility.yul\":3950:3973   */\n      sub\n        /* \"#utility.yul\":3946:3979   */\n      slt\n        /* \"#utility.yul\":3943:4063   */\n      iszero\n      tag_390\n      jumpi\n        /* \"#utility.yul\":3982:4061   */\n      tag_391\n      tag_308\n      jump\t// in\n    tag_391:\n        /* \"#utility.yul\":3943:4063   */\n    tag_390:\n        /* \"#utility.yul\":4102:4103   */\n      0x00\n        /* \"#utility.yul\":4127:4180   */\n      tag_392\n        /* \"#utility.yul\":4172:4179   */\n      dup8\n        /* \"#utility.yul\":4163:4169   */\n      dup3\n        /* \"#utility.yul\":4152:4161   */\n      dup9\n        /* \"#utility.yul\":4148:4170   */\n      add\n        /* \"#utility.yul\":4127:4180   */\n      tag_313\n      jump\t// in\n    tag_392:\n        /* \"#utility.yul\":4117:4180   */\n      swap5\n      pop\n        /* \"#utility.yul\":4073:4190   */\n      pop\n        /* \"#utility.yul\":4229:4231   */\n      0x20\n        /* \"#utility.yul\":4255:4308   */\n      tag_393\n        /* \"#utility.yul\":4300:4307   */\n      dup8\n        /* \"#utility.yul\":4291:4297   */\n      dup3\n        /* \"#utility.yul\":4280:4289   */\n      dup9\n        /* \"#utility.yul\":4276:4298   */\n      add\n        /* \"#utility.yul\":4255:4308   */\n      tag_311\n      jump\t// in\n    tag_393:\n        /* \"#utility.yul\":4245:4308   */\n      swap4\n      pop\n        /* \"#utility.yul\":4200:4318   */\n      pop\n        /* \"#utility.yul\":4357:4359   */\n      0x40\n        /* \"#utility.yul\":4383:4436   */\n      tag_394\n        /* \"#utility.yul\":4428:4435   */\n      dup8\n        /* \"#utility.yul\":4419:4425   */\n      dup3\n        /* \"#utility.yul\":4408:4417   */\n      dup9\n        /* \"#utility.yul\":4404:4426   */\n      add\n        /* \"#utility.yul\":4383:4436   */\n      tag_311\n      jump\t// in\n    tag_394:\n        /* \"#utility.yul\":4373:4436   */\n      swap3\n      pop\n        /* \"#utility.yul\":4328:4446   */\n      pop\n        /* \"#utility.yul\":4485:4487   */\n      0x60\n        /* \"#utility.yul\":4511:4564   */\n      tag_395\n        /* \"#utility.yul\":4556:4563   */\n      dup8\n        /* \"#utility.yul\":4547:4553   */\n      dup3\n        /* \"#utility.yul\":4536:4545   */\n      dup9\n        /* \"#utility.yul\":4532:4554   */\n      add\n        /* \"#utility.yul\":4511:4564   */\n      tag_311\n      jump\t// in\n    tag_395:\n        /* \"#utility.yul\":4501:4564   */\n      swap2\n      pop\n        /* \"#utility.yul\":4456:4574   */\n      pop\n        /* \"#utility.yul\":3816:4581   */\n      swap3\n      swap6\n      swap2\n      swap5\n      pop\n      swap3\n      pop\n      jump\t// out\n        /* \"#utility.yul\":4587:4756   */\n    tag_314:\n        /* \"#utility.yul\":4671:4682   */\n      0x00\n        /* \"#utility.yul\":4705:4711   */\n      dup3\n        /* \"#utility.yul\":4700:4703   */\n      dup3\n        /* \"#utility.yul\":4693:4712   */\n      mstore\n        /* \"#utility.yul\":4745:4749   */\n      0x20\n        /* \"#utility.yul\":4740:4743   */\n      dup3\n        /* \"#utility.yul\":4736:4750   */\n      add\n        /* \"#utility.yul\":4721:4750   */\n      swap1\n      pop\n        /* \"#utility.yul\":4587:4756   */\n      swap3\n      swap2\n      pop\n      pop\n      jump\t// out\n        /* \"#utility.yul\":4762:4934   */\n    tag_315:\n        /* \"#utility.yul\":4902:4926   */\n      0x4e756161537761703a204645455f544f4f5f4849474800000000000000000000\n        /* \"#utility.yul\":4898:4899   */\n      0x00\n        /* \"#utility.yul\":4890:4896   */\n      dup3\n        /* \"#utility.yul\":4886:4900   */\n      add\n        /* \"#utility.yul\":4879:4927   */\n      mstore\n        /* \"#utility.yul\":4762:4934   */\n      pop\n      jump\t// out\n        /* \"#utility.yul\":4940:5306   */\n    tag_316:\n        /* \"#utility.yul\":5082:5085   */\n      0x00\n        /* \"#utility.yul\":5103:5170   */\n      tag_399\n        /* \"#utility.yul\":5167:5169   */\n      0x16\n        /* \"#utility.yul\":5162:5165   */\n      dup4\n        /* \"#utility.yul\":5103:5170   */\n      tag_314\n      jump\t// in\n    tag_399:\n        /* \"#utility.yul\":5096:5170   */\n      swap2\n      pop\n        /* \"#utility.yul\":5179:5272   */\n      tag_400\n        /* \"#utility.yul\":5268:5271   */\n      dup3\n        /* \"#utility.yul\":5179:5272   */\n      tag_315\n      jump\t// in\n    tag_400:\n        /* \"#utility.yul\":5297:5299   */\n      0x20\n        /* \"#utility.yul\":5292:5295   */\n      dup3\n        /* \"#utility.yul\":5288:5300   */\n      add\n        /* \"#utility.yul\":5281:5300   */\n      swap1\n      pop\n        /* \"#utility.yul\":4940:5306   */\n      swap2\n      swap1\n      pop\n      jump\t// out\n        /* \"#utility.yul\":5312:5731   */\n    tag_108:\n        /* \"#utility.yul\":5478:5482   */\n      0x00\n        /* \"#utility.yul\":5516:5518   */\n      0x20\n        /* \"#utility.yul\":5505:5514   */\n      dup3\n        /* \"#utility.yul\":5501:5519   */\n      add\n        /* \"#utility.yul\":5493:5519   */\n      swap1\n      pop\n        /* \"#utility.yul\":5565:5574   */\n      dup2\n        /* \"#utility.yul\":5559:5563   */\n      dup2\n        /* \"#utility.yul\":5555:5575   */\n      sub\n        /* \"#utility.yul\":5551:5552   */\n      0x00\n        /* \"#utility.yul\":5540:5549   */\n      dup4\n        /* \"#utility.yul\":5536:5553   */\n      add\n        /* \"#utility.yul\":5529:5576   */\n      mstore\n        /* \"#utility.yul\":5593:5724   */\n      tag_402\n        /* \"#utility.yul\":5719:5723   */\n      dup2\n        /* \"#utility.yul\":5593:5724   */\n      tag_316\n      jump\t// in\n    tag_402:\n        /* \"#utility.yul\":5585:5724   */\n      swap1\n      pop\n        /* \"#utility.yul\":5312:5731   */\n      swap2\n      swap1\n      pop\n      jump\t// out\n        /* \"#utility.yul\":5737:5916   */\n    tag_317:\n        /* \"#utility.yul\":5877:5908   */\n      0x4e756161537761703a20494e53554646494349454e545f534841524553000000\n        /* \"#utility.yul\":5873:5874   */\n      0x00\n        /* \"#utility.yul\":5865:5871   */\n      dup3\n        /* \"#utility.yul\":5861:5875   */\n      add\n        /* \"#utility.yul\":5854:5909   */\n      mstore\n        /* \"#utility.yul\":5737:5916   */\n      pop\n      jump\t// out\n        /* \"#utility.yul\":5922:6288   */\n    tag_318:\n        /* \"#utility.yul\":6064:6067   */\n      0x00\n        /* \"#utility.yul\":6085:6152   */\n      tag_405\n        /* \"#utility.yul\":6149:6151   */\n      0x1d\n        /* \"#utility.yul\":6144:6147   */\n      dup4\n        /* \"#utility.yul\":6085:6152   */\n      tag_314\n      jump\t// in\n    tag_405:\n        /* \"#utility.yul\":6078:6152   */\n      swap2\n      pop\n        /* \"#utility.yul\":6161:6254   */\n      tag_406\n        /* \"#utility.yul\":6250:6253   */\n      dup3\n        /* \"#utility.yul\":6161:6254   */\n      tag_317\n      jump\t// in\n    tag_406:\n        /* \"#utility.yul\":6279:6281   */\n      0x20\n        /* \"#utility.yul\":6274:6277   */\n      dup3\n        /* \"#utility.yul\":6270:6282   */\n      add\n        /* \"#utility.yul\":6263:6282   */\n      swap1\n      pop\n        /* \"#utility.yul\":5922:6288   */\n      swap2\n      swap1\n      pop\n      jump\t// out\n        /* \"#utility.yul\":6294:6713   */\n    tag_122:\n        /* \"#utility.yul\":6460:6464   */\n      0x00\n        /* \"#utility.yul\":6498:6500   */\n      0x20\n        /* \"#utility.yul\":6487:6496   */\n      dup3\n        /* \"#utility.yul\":6483:6501   */\n      add\n        /* \"#utility.yul\":6475:6501   */\n      swap1\n      pop\n        /* \"#utility.yul\":6547:6556   */\n      dup2\n        /* \"#utility.yul\":6541:6545   */\n      dup2\n        /* \"#utility.yul\":6537:6557   */\n      sub\n        /* \"#utility.yul\":6533:6534   */\n      0x00\n        /* \"#utility.yul\":6522:6531   */\n      dup4\n        /* \"#utility.yul\":6518:6535   */\n      add\n        /* \"#utility.yul\":6511:6558   */\n      mstore\n        /* \"#utility.yul\":6575:6706   */\n      tag_408\n        /* \"#utility.yul\":6701:6705   */\n      dup2\n        /* \"#utility.yul\":6575:6706   */\n      tag_318\n      jump\t// in\n    tag_408:\n        /* \"#utility.yul\":6567:6706   */\n      swap1\n      pop\n        /* \"#utility.yul\":6294:6713   */\n      swap2\n      swap1\n      pop\n      jump\t// out\n        /* \"#utility.yul\":6719:6899   */\n    tag_319:\n        /* \"#utility.yul\":6767:6844   */\n      0x4e487b7100000000000000000000000000000000000000000000000000000000\n        /* \"#utility.yul\":6764:6765   */\n      0x00\n        /* \"#utility.yul\":6757:6845   */\n      mstore\n        /* \"#utility.yul\":6864:6868   */\n      0x11\n        /* \"#utility.yul\":6861:6862   */\n      0x04\n        /* \"#utility.yul\":6854:6869   */\n      mstore\n        /* \"#utility.yul\":6888:6892   */\n      0x24\n        /* \"#utility.yul\":6885:6886   */\n      0x00\n        /* \"#utility.yul\":6878:6893   */\n      revert\n        /* \"#utility.yul\":6905:7315   */\n    tag_124:\n        /* \"#utility.yul\":6945:6952   */\n      0x00\n        /* \"#utility.yul\":6968:6988   */\n      tag_411\n        /* \"#utility.yul\":6986:6987   */\n      dup3\n        /* \"#utility.yul\":6968:6988   */\n      tag_303\n      jump\t// in\n    tag_411:\n        /* \"#utility.yul\":6963:6988   */\n      swap2\n      pop\n        /* \"#utility.yul\":7002:7022   */\n      tag_412\n        /* \"#utility.yul\":7020:7021   */\n      dup4\n        /* \"#utility.yul\":7002:7022   */\n      tag_303\n      jump\t// in\n    tag_412:\n        /* \"#utility.yul\":6997:7022   */\n      swap3\n      pop\n        /* \"#utility.yul\":7057:7058   */\n      dup3\n        /* \"#utility.yul\":7054:7055   */\n      dup3\n        /* \"#utility.yul\":7050:7059   */\n      mul\n        /* \"#utility.yul\":7079:7109   */\n      tag_413\n        /* \"#utility.yul\":7097:7108   */\n      dup2\n        /* \"#utility.yul\":7079:7109   */\n      tag_303\n      jump\t// in\n    tag_413:\n        /* \"#utility.yul\":7068:7109   */\n      swap2\n      pop\n        /* \"#utility.yul\":7258:7259   */\n      dup3\n        /* \"#utility.yul\":7249:7256   */\n      dup3\n        /* \"#utility.yul\":7245:7260   */\n      div\n        /* \"#utility.yul\":7242:7243   */\n      dup5\n        /* \"#utility.yul\":7239:7261   */\n      eq\n        /* \"#utility.yul\":7219:7220   */\n      dup4\n        /* \"#utility.yul\":7212:7221   */\n      iszero\n        /* \"#utility.yul\":7192:7275   */\n      or\n        /* \"#utility.yul\":7169:7308   */\n      tag_414\n      jumpi\n        /* \"#utility.yul\":7288:7306   */\n      tag_415\n      tag_319\n      jump\t// in\n    tag_415:\n        /* \"#utility.yul\":7169:7308   */\n    tag_414:\n        /* \"#utility.yul\":6953:7315   */\n      pop\n        /* \"#utility.yul\":6905:7315   */\n      swap3\n      swap2\n      pop\n      pop\n      jump\t// out\n        /* \"#utility.yul\":7321:7501   */\n    tag_320:\n        /* \"#utility.yul\":7369:7446   */\n      0x4e487b7100000000000000000000000000000000000000000000000000000000\n        /* \"#utility.yul\":7366:7367   */\n      0x00\n        /* \"#utility.yul\":7359:7447   */\n      mstore\n        /* \"#utility.yul\":7466:7470   */\n      0x12\n        /* \"#utility.yul\":7463:7464   */\n      0x04\n        /* \"#utility.yul\":7456:7471   */\n      mstore\n        /* \"#utility.yul\":7490:7494   */\n      0x24\n        /* \"#utility.yul\":7487:7488   */\n      0x00\n        /* \"#utility.yul\":7480:7495   */\n      revert\n        /* \"#utility.yul\":7507:7692   */\n    tag_126:\n        /* \"#utility.yul\":7547:7548   */\n      0x00\n        /* \"#utility.yul\":7564:7584   */\n      tag_418\n        /* \"#utility.yul\":7582:7583   */\n      dup3\n        /* \"#utility.yul\":7564:7584   */\n      tag_303\n      jump\t// in\n    tag_418:\n        /* \"#utility.yul\":7559:7584   */\n      swap2\n      pop\n        /* \"#utility.yul\":7598:7618   */\n      tag_419\n        /* \"#utility.yul\":7616:7617   */\n      dup4\n        /* \"#utility.yul\":7598:7618   */\n      tag_303\n      jump\t// in\n    tag_419:\n        /* \"#utility.yul\":7593:7618   */\n      swap3\n      pop\n        /* \"#utility.yul\":7637:7638   */\n      dup3\n        /* \"#utility.yul\":7627:7662   */\n      tag_420\n      jumpi\n        /* \"#utility.yul\":7642:7660   */\n      tag_421\n      tag_320\n      jump\t// in\n    tag_421:\n        /* \"#utility.yul\":7627:7662   */\n    tag_420:\n        /* \"#utility.yul\":7684:7685   */\n      dup3\n        /* \"#utility.yul\":7681:7682   */\n      dup3\n        /* \"#utility.yul\":7677:7686   */\n      div\n        /* \"#utility.yul\":7672:7686   */\n      swap1\n      pop\n        /* \"#utility.yul\":7507:7692   */\n      swap3\n      swap2\n      pop\n      pop\n      jump\t// out\n        /* \"#utility.yul\":7698:7892   */\n    tag_130:\n        /* \"#utility.yul\":7738:7742   */\n      0x00\n        /* \"#utility.yul\":7758:7778   */\n      tag_423\n        /* \"#utility.yul\":7776:7777   */\n      dup3\n        /* \"#utility.yul\":7758:7778   */\n      tag_303\n      jump\t// in\n    tag_423:\n        /* \"#utility.yul\":7753:7778   */\n      swap2\n      pop\n        /* \"#utility.yul\":7792:7812   */\n      tag_424\n        /* \"#utility.yul\":7810:7811   */\n      dup4\n        /* \"#utility.yul\":7792:7812   */\n      tag_303\n      jump\t// in\n    tag_424:\n        /* \"#utility.yul\":7787:7812   */\n      swap3\n      pop\n        /* \"#utility.yul\":7836:7837   */\n      dup3\n        /* \"#utility.yul\":7833:7834   */\n      dup3\n        /* \"#utility.yul\":7829:7838   */\n      sub\n        /* \"#utility.yul\":7821:7838   */\n      swap1\n      pop\n        /* \"#utility.yul\":7860:7861   */\n      dup2\n        /* \"#utility.yul\":7854:7858   */\n      dup2\n        /* \"#utility.yul\":7851:7862   */\n      gt\n        /* \"#utility.yul\":7848:7885   */\n      iszero\n      tag_425\n      jumpi\n        /* \"#utility.yul\":7865:7883   */\n      tag_426\n      tag_319\n      jump\t// in\n    tag_426:\n        /* \"#utility.yul\":7848:7885   */\n    tag_425:\n        /* \"#utility.yul\":7698:7892   */\n      swap3\n      swap2\n      pop\n      pop\n      jump\t// out\n        /* \"#utility.yul\":7898:8230   */\n    tag_135:\n        /* \"#utility.yul\":8019:8023   */\n      0x00\n        /* \"#utility.yul\":8057:8059   */\n      0x40\n        /* \"#utility.yul\":8046:8055   */\n      dup3\n        /* \"#utility.yul\":8042:8060   */\n      add\n        /* \"#utility.yul\":8034:8060   */\n      swap1\n      pop\n        /* \"#utility.yul\":8070:8141   */\n      tag_428\n        /* \"#utility.yul\":8138:8139   */\n      0x00\n        /* \"#utility.yul\":8127:8136   */\n      dup4\n        /* \"#utility.yul\":8123:8140   */\n      add\n        /* \"#utility.yul\":8114:8120   */\n      dup6\n        /* \"#utility.yul\":8070:8141   */\n      tag_302\n      jump\t// in\n    tag_428:\n        /* \"#utility.yul\":8151:8223   */\n      tag_429\n        /* \"#utility.yul\":8219:8221   */\n      0x20\n        /* \"#utility.yul\":8208:8217   */\n      dup4\n        /* \"#utility.yul\":8204:8222   */\n      add\n        /* \"#utility.yul\":8195:8201   */\n      dup5\n        /* \"#utility.yul\":8151:8223   */\n      tag_304\n      jump\t// in\n    tag_429:\n        /* \"#utility.yul\":7898:8230   */\n      swap4\n      swap3\n      pop\n      pop\n      pop\n      jump\t// out\n        /* \"#utility.yul\":8236:8352   */\n    tag_321:\n        /* \"#utility.yul\":8306:8327   */\n      tag_431\n        /* \"#utility.yul\":8321:8326   */\n      dup2\n        /* \"#utility.yul\":8306:8327   */\n      tag_305\n      jump\t// in\n    tag_431:\n        /* \"#utility.yul\":8299:8304   */\n      dup2\n        /* \"#utility.yul\":8296:8328   */\n      eq\n        /* \"#utility.yul\":8286:8346   */\n      tag_432\n      jumpi\n        /* \"#utility.yul\":8342:8343   */\n      0x00\n        /* \"#utility.yul\":8339:8340   */\n      0x00\n        /* \"#utility.yul\":8332:8344   */\n      revert\n        /* \"#utility.yul\":8286:8346   */\n    tag_432:\n        /* \"#utility.yul\":8236:8352   */\n      pop\n      jump\t// out\n        /* \"#utility.yul\":8358:8495   */\n    tag_322:\n        /* \"#utility.yul\":8412:8417   */\n      0x00\n        /* \"#utility.yul\":8443:8449   */\n      dup2\n        /* \"#utility.yul\":8437:8450   */\n      mload\n        /* \"#utility.yul\":8428:8450   */\n      swap1\n      pop\n        /* \"#utility.yul\":8459:8489   */\n      tag_434\n        /* \"#utility.yul\":8483:8488   */\n      dup2\n        /* \"#utility.yul\":8459:8489   */\n      tag_321\n      jump\t// in\n    tag_434:\n        /* \"#utility.yul\":8358:8495   */\n      swap3\n      swap2\n      pop\n      pop\n      jump\t// out\n        /* \"#utility.yul\":8501:8846   */\n    tag_139:\n        /* \"#utility.yul\":8568:8574   */\n      0x00\n        /* \"#utility.yul\":8617:8619   */\n      0x20\n        /* \"#utility.yul\":8605:8614   */\n      dup3\n        /* \"#utility.yul\":8596:8603   */\n      dup5\n        /* \"#utility.yul\":8592:8615   */\n      sub\n        /* \"#utility.yul\":8588:8620   */\n      slt\n        /* \"#utility.yul\":8585:8704   */\n      iszero\n      tag_436\n      jumpi\n        /* \"#utility.yul\":8623:8702   */\n      tag_437\n      tag_308\n      jump\t// in\n    tag_437:\n        /* \"#utility.yul\":8585:8704   */\n    tag_436:\n        /* \"#utility.yul\":8743:8744   */\n      0x00\n        /* \"#utility.yul\":8768:8829   */\n      tag_438\n        /* \"#utility.yul\":8821:8828   */\n      dup5\n        /* \"#utility.yul\":8812:8818   */\n      dup3\n        /* \"#utility.yul\":8801:8810   */\n      dup6\n        /* \"#utility.yul\":8797:8819   */\n      add\n        /* \"#utility.yul\":8768:8829   */\n      tag_322\n      jump\t// in\n    tag_438:\n        /* \"#utility.yul\":8758:8829   */\n      swap2\n      pop\n        /* \"#utility.yul\":8714:8839   */\n      pop\n        /* \"#utility.yul\":8501:8846   */\n      swap3\n      swap2\n      pop\n      pop\n      jump\t// out\n        /* \"#utility.yul\":8852:9294   */\n    tag_149:\n        /* \"#utility.yul\":9001:9005   */\n      0x00\n        /* \"#utility.yul\":9039:9041   */\n      0x60\n        /* \"#utility.yul\":9028:9037   */\n      dup3\n        /* \"#utility.yul\":9024:9042   */\n      add\n        /* \"#utility.yul\":9016:9042   */\n      swap1\n      pop\n        /* \"#utility.yul\":9052:9123   */\n      tag_440\n        /* \"#utility.yul\":9120:9121   */\n      0x00\n        /* \"#utility.yul\":9109:9118   */\n      dup4\n        /* \"#utility.yul\":9105:9122   */\n      add\n        /* \"#utility.yul\":9096:9102   */\n      dup7\n        /* \"#utility.yul\":9052:9123   */\n      tag_302\n      jump\t// in\n    tag_440:\n        /* \"#utility.yul\":9133:9205   */\n      tag_441\n        /* \"#utility.yul\":9201:9203   */\n      0x20\n        /* \"#utility.yul\":9190:9199   */\n      dup4\n        /* \"#utility.yul\":9186:9204   */\n      add\n        /* \"#utility.yul\":9177:9183   */\n      dup6\n        /* \"#utility.yul\":9133:9205   */\n      tag_302\n      jump\t// in\n    tag_441:\n        /* \"#utility.yul\":9215:9287   */\n      tag_442\n        /* \"#utility.yul\":9283:9285   */\n      0x40\n        /* \"#utility.yul\":9272:9281   */\n      dup4\n        /* \"#utility.yul\":9268:9286   */\n      add\n        /* \"#utility.yul\":9259:9265   */\n      dup5\n        /* \"#utility.yul\":9215:9287   */\n      tag_304\n      jump\t// in\n    tag_442:\n        /* \"#utility.yul\":8852:9294   */\n      swap5\n      swap4\n      pop\n      pop\n      pop\n      pop\n      jump\t// out\n        /* \"#utility.yul\":9300:9526   */\n    tag_323:\n        /* \"#utility.yul\":9440:9474   */\n      0x4e756161537761703a20494e53554646494349454e545f4c4951554944495459\n        /* \"#utility.yul\":9436:9437   */\n      0x00\n        /* \"#utility.yul\":9428:9434   */\n      dup3\n        /* \"#utility.yul\":9424:9438   */\n      add\n        /* \"#utility.yul\":9417:9475   */\n      mstore\n        /* \"#utility.yul\":9509:9518   */\n      0x5f4d494e54454400000000000000000000000000000000000000000000000000\n        /* \"#utility.yul\":9504:9506   */\n      0x20\n        /* \"#utility.yul\":9496:9502   */\n      dup3\n        /* \"#utility.yul\":9492:9507   */\n      add\n        /* \"#utility.yul\":9485:9519   */\n      mstore\n        /* \"#utility.yul\":9300:9526   */\n      pop\n      jump\t// out\n        /* \"#utility.yul\":9532:9898   */\n    tag_324:\n        /* \"#utility.yul\":9674:9677   */\n      0x00\n        /* \"#utility.yul\":9695:9762   */\n      tag_445\n        /* \"#utility.yul\":9759:9761   */\n      0x27\n        /* \"#utility.yul\":9754:9757   */\n      dup4\n        /* \"#utility.yul\":9695:9762   */\n      tag_314\n      jump\t// in\n    tag_445:\n        /* \"#utility.yul\":9688:9762   */\n      swap2\n      pop\n        /* \"#utility.yul\":9771:9864   */\n      tag_446\n        /* \"#utility.yul\":9860:9863   */\n      dup3\n        /* \"#utility.yul\":9771:9864   */\n      tag_323\n      jump\t// in\n    tag_446:\n        /* \"#utility.yul\":9889:9891   */\n      0x40\n        /* \"#utility.yul\":9884:9887   */\n      dup3\n        /* \"#utility.yul\":9880:9892   */\n      add\n        /* \"#utility.yul\":9873:9892   */\n      swap1\n      pop\n        /* \"#utility.yul\":9532:9898   */\n      swap2\n      swap1\n      pop\n      jump\t// out\n        /* \"#utility.yul\":9904:10323   */\n    tag_170:\n        /* \"#utility.yul\":10070:10074   */\n      0x00\n        /* \"#utility.yul\":10108:10110   */\n      0x20\n        /* \"#utility.yul\":10097:10106   */\n      dup3\n        /* \"#utility.yul\":10093:10111   */\n      add\n        /* \"#utility.yul\":10085:10111   */\n      swap1\n      pop\n        /* \"#utility.yul\":10157:10166   */\n      dup2\n        /* \"#utility.yul\":10151:10155   */\n      dup2\n        /* \"#utility.yul\":10147:10167   */\n      sub\n        /* \"#utility.yul\":10143:10144   */\n      0x00\n        /* \"#utility.yul\":10132:10141   */\n      dup4\n        /* \"#utility.yul\":10128:10145   */\n      add\n        /* \"#utility.yul\":10121:10168   */\n      mstore\n        /* \"#utility.yul\":10185:10316   */\n      tag_448\n        /* \"#utility.yul\":10311:10315   */\n      dup2\n        /* \"#utility.yul\":10185:10316   */\n      tag_324\n      jump\t// in\n    tag_448:\n        /* \"#utility.yul\":10177:10316   */\n      swap1\n      pop\n        /* \"#utility.yul\":9904:10323   */\n      swap2\n      swap1\n      pop\n      jump\t// out\n        /* \"#utility.yul\":10329:10520   */\n    tag_172:\n        /* \"#utility.yul\":10369:10372   */\n      0x00\n        /* \"#utility.yul\":10388:10408   */\n      tag_450\n        /* \"#utility.yul\":10406:10407   */\n      dup3\n        /* \"#utility.yul\":10388:10408   */\n      tag_303\n      jump\t// in\n    tag_450:\n        /* \"#utility.yul\":10383:10408   */\n      swap2\n      pop\n        /* \"#utility.yul\":10422:10442   */\n      tag_451\n        /* \"#utility.yul\":10440:10441   */\n      dup4\n        /* \"#utility.yul\":10422:10442   */\n      tag_303\n      jump\t// in\n    tag_451:\n        /* \"#utility.yul\":10417:10442   */\n      swap3\n      pop\n        /* \"#utility.yul\":10465:10466   */\n      dup3\n        /* \"#utility.yul\":10462:10463   */\n      dup3\n        /* \"#utility.yul\":10458:10467   */\n      add\n        /* \"#utility.yul\":10451:10467   */\n      swap1\n      pop\n        /* \"#utility.yul\":10486:10489   */\n      dup1\n        /* \"#utility.yul\":10483:10484   */\n      dup3\n        /* \"#utility.yul\":10480:10490   */\n      gt\n        /* \"#utility.yul\":10477:10513   */\n      iszero\n      tag_452\n      jumpi\n        /* \"#utility.yul\":10493:10511   */\n      tag_453\n      tag_319\n      jump\t// in\n    tag_453:\n        /* \"#utility.yul\":10477:10513   */\n    tag_452:\n        /* \"#utility.yul\":10329:10520   */\n      swap3\n      swap2\n      pop\n      pop\n      jump\t// out\n        /* \"#utility.yul\":10526:10968   */\n    tag_177:\n        /* \"#utility.yul\":10675:10679   */\n      0x00\n        /* \"#utility.yul\":10713:10715   */\n      0x60\n        /* \"#utility.yul\":10702:10711   */\n      dup3\n        /* \"#utility.yul\":10698:10716   */\n      add\n        /* \"#utility.yul\":10690:10716   */\n      swap1\n      pop\n        /* \"#utility.yul\":10726:10797   */\n      tag_455\n        /* \"#utility.yul\":10794:10795   */\n      0x00\n        /* \"#utility.yul\":10783:10792   */\n      dup4\n        /* \"#utility.yul\":10779:10796   */\n      add\n        /* \"#utility.yul\":10770:10776   */\n      dup7\n        /* \"#utility.yul\":10726:10797   */\n      tag_304\n      jump\t// in\n    tag_455:\n        /* \"#utility.yul\":10807:10879   */\n      tag_456\n        /* \"#utility.yul\":10875:10877   */\n      0x20\n        /* \"#utility.yul\":10864:10873   */\n      dup4\n        /* \"#utility.yul\":10860:10878   */\n      add\n        /* \"#utility.yul\":10851:10857   */\n      dup6\n        /* \"#utility.yul\":10807:10879   */\n      tag_304\n      jump\t// in\n    tag_456:\n        /* \"#utility.yul\":10889:10961   */\n      tag_457\n        /* \"#utility.yul\":10957:10959   */\n      0x40\n        /* \"#utility.yul\":10946:10955   */\n      dup4\n        /* \"#utility.yul\":10942:10960   */\n      add\n        /* \"#utility.yul\":10933:10939   */\n      dup5\n        /* \"#utility.yul\":10889:10961   */\n      tag_304\n      jump\t// in\n    tag_457:\n        /* \"#utility.yul\":10526:10968   */\n      swap5\n      swap4\n      pop\n      pop\n      pop\n      pop\n      jump\t// out\n        /* \"#utility.yul\":10974:11150   */\n    tag_325:\n        /* \"#utility.yul\":11114:11142   */\n      0x4e756161537761703a20444541444c494e455f45585049524544000000000000\n        /* \"#utility.yul\":11110:11111   */\n      0x00\n        /* \"#utility.yul\":11102:11108   */\n      dup3\n        /* \"#utility.yul\":11098:11112   */\n      add\n        /* \"#utility.yul\":11091:11143   */\n      mstore\n        /* \"#utility.yul\":10974:11150   */\n      pop\n      jump\t// out\n        /* \"#utility.yul\":11156:11522   */\n    tag_326:\n        /* \"#utility.yul\":11298:11301   */\n      0x00\n        /* \"#utility.yul\":11319:11386   */\n      tag_460\n        /* \"#utility.yul\":11383:11385   */\n      0x1a\n        /* \"#utility.yul\":11378:11381   */\n      dup4\n        /* \"#utility.yul\":11319:11386   */\n      tag_314\n      jump\t// in\n    tag_460:\n        /* \"#utility.yul\":11312:11386   */\n      swap2\n      pop\n        /* \"#utility.yul\":11395:11488   */\n      tag_461\n        /* \"#utility.yul\":11484:11487   */\n      dup3\n        /* \"#utility.yul\":11395:11488   */\n      tag_325\n      jump\t// in\n    tag_461:\n        /* \"#utility.yul\":11513:11515   */\n      0x20\n        /* \"#utility.yul\":11508:11511   */\n      dup3\n        /* \"#utility.yul\":11504:11516   */\n      add\n        /* \"#utility.yul\":11497:11516   */\n      swap1\n      pop\n        /* \"#utility.yul\":11156:11522   */\n      swap2\n      swap1\n      pop\n      jump\t// out\n        /* \"#utility.yul\":11528:11947   */\n    tag_186:\n        /* \"#utility.yul\":11694:11698   */\n      0x00\n        /* \"#utility.yul\":11732:11734   */\n      0x20\n        /* \"#utility.yul\":11721:11730   */\n      dup3\n        /* \"#utility.yul\":11717:11735   */\n      add\n        /* \"#utility.yul\":11709:11735   */\n      swap1\n      pop\n        /* \"#utility.yul\":11781:11790   */\n      dup2\n        /* \"#utility.yul\":11775:11779   */\n      dup2\n        /* \"#utility.yul\":11771:11791   */\n      sub\n        /* \"#utility.yul\":11767:11768   */\n      0x00\n        /* \"#utility.yul\":11756:11765   */\n      dup4\n        /* \"#utility.yul\":11752:11769   */\n      add\n        /* \"#utility.yul\":11745:11792   */\n      mstore\n        /* \"#utility.yul\":11809:11940   */\n      tag_463\n        /* \"#utility.yul\":11935:11939   */\n      dup2\n        /* \"#utility.yul\":11809:11940   */\n      tag_326\n      jump\t// in\n    tag_463:\n        /* \"#utility.yul\":11801:11940   */\n      swap1\n      pop\n        /* \"#utility.yul\":11528:11947   */\n      swap2\n      swap1\n      pop\n      jump\t// out\n        /* \"#utility.yul\":11953:12126   */\n    tag_327:\n        /* \"#utility.yul\":12093:12118   */\n      0x4e756161537761703a20494e56414c49445f544f4b454e000000000000000000\n        /* \"#utility.yul\":12089:12090   */\n      0x00\n        /* \"#utility.yul\":12081:12087   */\n      dup3\n        /* \"#utility.yul\":12077:12091   */\n      add\n        /* \"#utility.yul\":12070:12119   */\n      mstore\n        /* \"#utility.yul\":11953:12126   */\n      pop\n      jump\t// out\n        /* \"#utility.yul\":12132:12498   */\n    tag_328:\n        /* \"#utility.yul\":12274:12277   */\n      0x00\n        /* \"#utility.yul\":12295:12362   */\n      tag_466\n        /* \"#utility.yul\":12359:12361   */\n      0x17\n        /* \"#utility.yul\":12354:12357   */\n      dup4\n        /* \"#utility.yul\":12295:12362   */\n      tag_314\n      jump\t// in\n    tag_466:\n        /* \"#utility.yul\":12288:12362   */\n      swap2\n      pop\n        /* \"#utility.yul\":12371:12464   */\n      tag_467\n        /* \"#utility.yul\":12460:12463   */\n      dup3\n        /* \"#utility.yul\":12371:12464   */\n      tag_327\n      jump\t// in\n    tag_467:\n        /* \"#utility.yul\":12489:12491   */\n      0x20\n        /* \"#utility.yul\":12484:12487   */\n      dup3\n        /* \"#utility.yul\":12480:12492   */\n      add\n        /* \"#utility.yul\":12473:12492   */\n      swap1\n      pop\n        /* \"#utility.yul\":12132:12498   */\n      swap2\n      swap1\n      pop\n      jump\t// out\n        /* \"#utility.yul\":12504:12923   */\n    tag_191:\n        /* \"#utility.yul\":12670:12674   */\n      0x00\n        /* \"#utility.yul\":12708:12710   */\n      0x20\n        /* \"#utility.yul\":12697:12706   */\n      dup3\n        /* \"#utility.yul\":12693:12711   */\n      add\n        /* \"#utility.yul\":12685:12711   */\n      swap1\n      pop\n        /* \"#utility.yul\":12757:12766   */\n      dup2\n        /* \"#utility.yul\":12751:12755   */\n      dup2\n        /* \"#utility.yul\":12747:12767   */\n      sub\n        /* \"#utility.yul\":12743:12744   */\n      0x00\n        /* \"#utility.yul\":12732:12741   */\n      dup4\n        /* \"#utility.yul\":12728:12745   */\n      add\n        /* \"#utility.yul\":12721:12768   */\n      mstore\n        /* \"#utility.yul\":12785:12916   */\n      tag_469\n        /* \"#utility.yul\":12911:12915   */\n      dup2\n        /* \"#utility.yul\":12785:12916   */\n      tag_328\n      jump\t// in\n    tag_469:\n        /* \"#utility.yul\":12777:12916   */\n      swap1\n      pop\n        /* \"#utility.yul\":12504:12923   */\n      swap2\n      swap1\n      pop\n      jump\t// out\n        /* \"#utility.yul\":12929:13072   */\n    tag_329:\n        /* \"#utility.yul\":12986:12991   */\n      0x00\n        /* \"#utility.yul\":13017:13023   */\n      dup2\n        /* \"#utility.yul\":13011:13024   */\n      mload\n        /* \"#utility.yul\":13002:13024   */\n      swap1\n      pop\n        /* \"#utility.yul\":13033:13066   */\n      tag_471\n        /* \"#utility.yul\":13060:13065   */\n      dup2\n        /* \"#utility.yul\":13033:13066   */\n      tag_310\n      jump\t// in\n    tag_471:\n        /* \"#utility.yul\":12929:13072   */\n      swap3\n      swap2\n      pop\n      pop\n      jump\t// out\n        /* \"#utility.yul\":13078:13429   */\n    tag_200:\n        /* \"#utility.yul\":13148:13154   */\n      0x00\n        /* \"#utility.yul\":13197:13199   */\n      0x20\n        /* \"#utility.yul\":13185:13194   */\n      dup3\n        /* \"#utility.yul\":13176:13183   */\n      dup5\n        /* \"#utility.yul\":13172:13195   */\n      sub\n        /* \"#utility.yul\":13168:13200   */\n      slt\n        /* \"#utility.yul\":13165:13284   */\n      iszero\n      tag_473\n      jumpi\n        /* \"#utility.yul\":13203:13282   */\n      tag_474\n      tag_308\n      jump\t// in\n    tag_474:\n        /* \"#utility.yul\":13165:13284   */\n    tag_473:\n        /* \"#utility.yul\":13323:13324   */\n      0x00\n        /* \"#utility.yul\":13348:13412   */\n      tag_475\n        /* \"#utility.yul\":13404:13411   */\n      dup5\n        /* \"#utility.yul\":13395:13401   */\n      dup3\n        /* \"#utility.yul\":13384:13393   */\n      dup6\n        /* \"#utility.yul\":13380:13402   */\n      add\n        /* \"#utility.yul\":13348:13412   */\n      tag_329\n      jump\t// in\n    tag_475:\n        /* \"#utility.yul\":13338:13412   */\n      swap2\n      pop\n        /* \"#utility.yul\":13294:13422   */\n      pop\n        /* \"#utility.yul\":13078:13429   */\n      swap3\n      swap2\n      pop\n      pop\n      jump\t// out\n        /* \"#utility.yul\":13435:13658   */\n    tag_330:\n        /* \"#utility.yul\":13575:13609   */\n      0x4e756161537761703a20494e53554646494349454e545f4f55545055545f414d\n        /* \"#utility.yul\":13571:13572   */\n      0x00\n        /* \"#utility.yul\":13563:13569   */\n      dup3\n        /* \"#utility.yul\":13559:13573   */\n      add\n        /* \"#utility.yul\":13552:13610   */\n      mstore\n        /* \"#utility.yul\":13644:13650   */\n      0x4f554e5400000000000000000000000000000000000000000000000000000000\n        /* \"#utility.yul\":13639:13641   */\n      0x20\n        /* \"#utility.yul\":13631:13637   */\n      dup3\n        /* \"#utility.yul\":13627:13642   */\n      add\n        /* \"#utility.yul\":13620:13651   */\n      mstore\n        /* \"#utility.yul\":13435:13658   */\n      pop\n      jump\t// out\n        /* \"#utility.yul\":13664:14030   */\n    tag_331:\n        /* \"#utility.yul\":13806:13809   */\n      0x00\n        /* \"#utility.yul\":13827:13894   */\n      tag_478\n        /* \"#utility.yul\":13891:13893   */\n      0x24\n        /* \"#utility.yul\":13886:13889   */\n      dup4\n        /* \"#utility.yul\":13827:13894   */\n      tag_314\n      jump\t// in\n    tag_478:\n        /* \"#utility.yul\":13820:13894   */\n      swap2\n      pop\n        /* \"#utility.yul\":13903:13996   */\n      tag_479\n        /* \"#utility.yul\":13992:13995   */\n      dup3\n        /* \"#utility.yul\":13903:13996   */\n      tag_330\n      jump\t// in\n    tag_479:\n        /* \"#utility.yul\":14021:14023   */\n      0x40\n        /* \"#utility.yul\":14016:14019   */\n      dup3\n        /* \"#utility.yul\":14012:14024   */\n      add\n        /* \"#utility.yul\":14005:14024   */\n      swap1\n      pop\n        /* \"#utility.yul\":13664:14030   */\n      swap2\n      swap1\n      pop\n      jump\t// out\n        /* \"#utility.yul\":14036:14455   */\n    tag_215:\n        /* \"#utility.yul\":14202:14206   */\n      0x00\n        /* \"#utility.yul\":14240:14242   */\n      0x20\n        /* \"#utility.yul\":14229:14238   */\n      dup3\n        /* \"#utility.yul\":14225:14243   */\n      add\n        /* \"#utility.yul\":14217:14243   */\n      swap1\n      pop\n        /* \"#utility.yul\":14289:14298   */\n      dup2\n        /* \"#utility.yul\":14283:14287   */\n      dup2\n        /* \"#utility.yul\":14279:14299   */\n      sub\n        /* \"#utility.yul\":14275:14276   */\n      0x00\n        /* \"#utility.yul\":14264:14273   */\n      dup4\n        /* \"#utility.yul\":14260:14277   */\n      add\n        /* \"#utility.yul\":14253:14300   */\n      mstore\n        /* \"#utility.yul\":14317:14448   */\n      tag_481\n        /* \"#utility.yul\":14443:14447   */\n      dup2\n        /* \"#utility.yul\":14317:14448   */\n      tag_331\n      jump\t// in\n    tag_481:\n        /* \"#utility.yul\":14309:14448   */\n      swap1\n      pop\n        /* \"#utility.yul\":14036:14455   */\n      swap2\n      swap1\n      pop\n      jump\t// out\n        /* \"#utility.yul\":14461:14686   */\n    tag_332:\n        /* \"#utility.yul\":14601:14635   */\n      0x4f776e61626c653a206e6577206f776e657220697320746865207a65726f2061\n        /* \"#utility.yul\":14597:14598   */\n      0x00\n        /* \"#utility.yul\":14589:14595   */\n      dup3\n        /* \"#utility.yul\":14585:14599   */\n      add\n        /* \"#utility.yul\":14578:14636   */\n      mstore\n        /* \"#utility.yul\":14670:14678   */\n      0x6464726573730000000000000000000000000000000000000000000000000000\n        /* \"#utility.yul\":14665:14667   */\n      0x20\n        /* \"#utility.yul\":14657:14663   */\n      dup3\n        /* \"#utility.yul\":14653:14668   */\n      add\n        /* \"#utility.yul\":14646:14679   */\n      mstore\n        /* \"#utility.yul\":14461:14686   */\n      pop\n      jump\t// out\n        /* \"#utility.yul\":14692:15058   */\n    tag_333:\n        /* \"#utility.yul\":14834:14837   */\n      0x00\n        /* \"#utility.yul\":14855:14922   */\n      tag_484\n        /* \"#utility.yul\":14919:14921   */\n      0x26\n        /* \"#utility.yul\":14914:14917   */\n      dup4\n        /* \"#utility.yul\":14855:14922   */\n      tag_314\n      jump\t// in\n    tag_484:\n        /* \"#utility.yul\":14848:14922   */\n      swap2\n      pop\n        /* \"#utility.yul\":14931:15024   */\n      tag_485\n        /* \"#utility.yul\":15020:15023   */\n      dup3\n        /* \"#utility.yul\":14931:15024   */\n      tag_332\n      jump\t// in\n    tag_485:\n        /* \"#utility.yul\":15049:15051   */\n      0x40\n        /* \"#utility.yul\":15044:15047   */\n      dup3\n        /* \"#utility.yul\":15040:15052   */\n      add\n        /* \"#utility.yul\":15033:15052   */\n      swap1\n      pop\n        /* \"#utility.yul\":14692:15058   */\n      swap2\n      swap1\n      pop\n      jump\t// out\n        /* \"#utility.yul\":15064:15483   */\n    tag_246:\n        /* \"#utility.yul\":15230:15234   */\n      0x00\n        /* \"#utility.yul\":15268:15270   */\n      0x20\n        /* \"#utility.yul\":15257:15266   */\n      dup3\n        /* \"#utility.yul\":15253:15271   */\n      add\n        /* \"#utility.yul\":15245:15271   */\n      swap1\n      pop\n        /* \"#utility.yul\":15317:15326   */\n      dup2\n        /* \"#utility.yul\":15311:15315   */\n      dup2\n        /* \"#utility.yul\":15307:15327   */\n      sub\n        /* \"#utility.yul\":15303:15304   */\n      0x00\n        /* \"#utility.yul\":15292:15301   */\n      dup4\n        /* \"#utility.yul\":15288:15305   */\n      add\n        /* \"#utility.yul\":15281:15328   */\n      mstore\n        /* \"#utility.yul\":15345:15476   */\n      tag_487\n        /* \"#utility.yul\":15471:15475   */\n      dup2\n        /* \"#utility.yul\":15345:15476   */\n      tag_333\n      jump\t// in\n    tag_487:\n        /* \"#utility.yul\":15337:15476   */\n      swap1\n      pop\n        /* \"#utility.yul\":15064:15483   */\n      swap2\n      swap1\n      pop\n      jump\t// out\n        /* \"#utility.yul\":15489:15671   */\n    tag_334:\n        /* \"#utility.yul\":15629:15663   */\n      0x4f776e61626c653a2063616c6c6572206973206e6f7420746865206f776e6572\n        /* \"#utility.yul\":15625:15626   */\n      0x00\n        /* \"#utility.yul\":15617:15623   */\n      dup3\n        /* \"#utility.yul\":15613:15627   */\n      add\n        /* \"#utility.yul\":15606:15664   */\n      mstore\n        /* \"#utility.yul\":15489:15671   */\n      pop\n      jump\t// out\n        /* \"#utility.yul\":15677:16043   */\n    tag_335:\n        /* \"#utility.yul\":15819:15822   */\n      0x00\n        /* \"#utility.yul\":15840:15907   */\n      tag_490\n        /* \"#utility.yul\":15904:15906   */\n      0x20\n        /* \"#utility.yul\":15899:15902   */\n      dup4\n        /* \"#utility.yul\":15840:15907   */\n      tag_314\n      jump\t// in\n    tag_490:\n        /* \"#utility.yul\":15833:15907   */\n      swap2\n      pop\n        /* \"#utility.yul\":15916:16009   */\n      tag_491\n        /* \"#utility.yul\":16005:16008   */\n      dup3\n        /* \"#utility.yul\":15916:16009   */\n      tag_334\n      jump\t// in\n    tag_491:\n        /* \"#utility.yul\":16034:16036   */\n      0x20\n        /* \"#utility.yul\":16029:16032   */\n      dup3\n        /* \"#utility.yul\":16025:16037   */\n      add\n        /* \"#utility.yul\":16018:16037   */\n      swap1\n      pop\n        /* \"#utility.yul\":15677:16043   */\n      swap2\n      swap1\n      pop\n      jump\t// out\n        /* \"#utility.yul\":16049:16468   */\n    tag_257:\n        /* \"#utility.yul\":16215:16219   */\n      0x00\n        /* \"#utility.yul\":16253:16255   */\n      0x20\n        /* \"#utility.yul\":16242:16251   */\n      dup3\n        /* \"#utility.yul\":16238:16256   */\n      add\n        /* \"#utility.yul\":16230:16256   */\n      swap1\n      pop\n        /* \"#utility.yul\":16302:16311   */\n      dup2\n        /* \"#utility.yul\":16296:16300   */\n      dup2\n        /* \"#utility.yul\":16292:16312   */\n      sub\n        /* \"#utility.yul\":16288:16289   */\n      0x00\n        /* \"#utility.yul\":16277:16286   */\n      dup4\n        /* \"#utility.yul\":16273:16290   */\n      add\n        /* \"#utility.yul\":16266:16313   */\n      mstore\n        /* \"#utility.yul\":16330:16461   */\n      tag_493\n        /* \"#utility.yul\":16456:16460   */\n      dup2\n        /* \"#utility.yul\":16330:16461   */\n      tag_335\n      jump\t// in\n    tag_493:\n        /* \"#utility.yul\":16322:16461   */\n      swap1\n      pop\n        /* \"#utility.yul\":16049:16468   */\n      swap2\n      swap1\n      pop\n      jump\t// out\n        /* \"#utility.yul\":16474:16640   */\n    tag_336:\n        /* \"#utility.yul\":16614:16632   */\n      0x5061757361626c653a2070617573656400000000000000000000000000000000\n        /* \"#utility.yul\":16610:16611   */\n      0x00\n        /* \"#utility.yul\":16602:16608   */\n      dup3\n        /* \"#utility.yul\":16598:16612   */\n      add\n        /* \"#utility.yul\":16591:16633   */\n      mstore\n        /* \"#utility.yul\":16474:16640   */\n      pop\n      jump\t// out\n        /* \"#utility.yul\":16646:17012   */\n    tag_337:\n        /* \"#utility.yul\":16788:16791   */\n      0x00\n        /* \"#utility.yul\":16809:16876   */\n      tag_496\n        /* \"#utility.yul\":16873:16875   */\n      0x10\n        /* \"#utility.yul\":16868:16871   */\n      dup4\n        /* \"#utility.yul\":16809:16876   */\n      tag_314\n      jump\t// in\n    tag_496:\n        /* \"#utility.yul\":16802:16876   */\n      swap2\n      pop\n        /* \"#utility.yul\":16885:16978   */\n      tag_497\n        /* \"#utility.yul\":16974:16977   */\n      dup3\n        /* \"#utility.yul\":16885:16978   */\n      tag_336\n      jump\t// in\n    tag_497:\n        /* \"#utility.yul\":17003:17005   */\n      0x20\n        /* \"#utility.yul\":16998:17001   */\n      dup3\n        /* \"#utility.yul\":16994:17006   */\n      add\n        /* \"#utility.yul\":16987:17006   */\n      swap1\n      pop\n        /* \"#utility.yul\":16646:17012   */\n      swap2\n      swap1\n      pop\n      jump\t// out\n        /* \"#utility.yul\":17018:17437   */\n    tag_274:\n        /* \"#utility.yul\":17184:17188   */\n      0x00\n        /* \"#utility.yul\":17222:17224   */\n      0x20\n        /* \"#utility.yul\":17211:17220   */\n      dup3\n        /* \"#utility.yul\":17207:17225   */\n      add\n        /* \"#utility.yul\":17199:17225   */\n      swap1\n      pop\n        /* \"#utility.yul\":17271:17280   */\n      dup2\n        /* \"#utility.yul\":17265:17269   */\n      dup2\n        /* \"#utility.yul\":17261:17281   */\n      sub\n        /* \"#utility.yul\":17257:17258   */\n      0x00\n        /* \"#utility.yul\":17246:17255   */\n      dup4\n        /* \"#utility.yul\":17242:17259   */\n      add\n        /* \"#utility.yul\":17235:17282   */\n      mstore\n        /* \"#utility.yul\":17299:17430   */\n      tag_499\n        /* \"#utility.yul\":17425:17429   */\n      dup2\n        /* \"#utility.yul\":17299:17430   */\n      tag_337\n      jump\t// in\n    tag_499:\n        /* \"#utility.yul\":17291:17430   */\n      swap1\n      pop\n        /* \"#utility.yul\":17018:17437   */\n      swap2\n      swap1\n      pop\n      jump\t// out\n        /* \"#utility.yul\":17443:17624   */\n    tag_338:\n        /* \"#utility.yul\":17583:17616   */\n      0x5265656e7472616e637947756172643a207265656e7472616e742063616c6c00\n        /* \"#utility.yul\":17579:17580   */\n      0x00\n        /* \"#utility.yul\":17571:17577   */\n      dup3\n        /* \"#utility.yul\":17567:17581   */\n      add\n        /* \"#utility.yul\":17560:17617   */\n      mstore\n        /* \"#utility.yul\":17443:17624   */\n      pop\n      jump\t// out\n        /* \"#utility.yul\":17630:17996   */\n    tag_339:\n        /* \"#utility.yul\":17772:17775   */\n      0x00\n        /* \"#utility.yul\":17793:17860   */\n      tag_502\n        /* \"#utility.yul\":17857:17859   */\n      0x1f\n        /* \"#utility.yul\":17852:17855   */\n      dup4\n        /* \"#utility.yul\":17793:17860   */\n      tag_314\n      jump\t// in\n    tag_502:\n        /* \"#utility.yul\":17786:17860   */\n      swap2\n      pop\n        /* \"#utility.yul\":17869:17962   */\n      tag_503\n        /* \"#utility.yul\":17958:17961   */\n      dup3\n        /* \"#utility.yul\":17869:17962   */\n      tag_338\n      jump\t// in\n    tag_503:\n        /* \"#utility.yul\":17987:17989   */\n      0x20\n        /* \"#utility.yul\":17982:17985   */\n      dup3\n        /* \"#utility.yul\":17978:17990   */\n      add\n        /* \"#utility.yul\":17971:17990   */\n      swap1\n      pop\n        /* \"#utility.yul\":17630:17996   */\n      swap2\n      swap1\n      pop\n      jump\t// out\n        /* \"#utility.yul\":18002:18421   */\n    tag_292:\n        /* \"#utility.yul\":18168:18172   */\n      0x00\n        /* \"#utility.yul\":18206:18208   */\n      0x20\n        /* \"#utility.yul\":18195:18204   */\n      dup3\n        /* \"#utility.yul\":18191:18209   */\n      add\n        /* \"#utility.yul\":18183:18209   */\n      swap1\n      pop\n        /* \"#utility.yul\":18255:18264   */\n      dup2\n        /* \"#utility.yul\":18249:18253   */\n      dup2\n        /* \"#utility.yul\":18245:18265   */\n      sub\n        /* \"#utility.yul\":18241:18242   */\n      0x00\n        /* \"#utility.yul\":18230:18239   */\n      dup4\n        /* \"#utility.yul\":18226:18243   */\n      add\n        /* \"#utility.yul\":18219:18266   */\n      mstore\n        /* \"#utility.yul\":18283:18414   */\n      tag_505\n        /* \"#utility.yul\":18409:18413   */\n      dup2\n        /* \"#utility.yul\":18283:18414   */\n      tag_339\n      jump\t// in\n    tag_505:\n        /* \"#utility.yul\":18275:18414   */\n      swap1\n      pop\n        /* \"#utility.yul\":18002:18421   */\n      swap2\n      swap1\n      pop\n      jump\t// out\n        /* \"#utility.yul\":18427:18597   */\n    tag_340:\n        /* \"#utility.yul\":18567:18589   */\n      0x5061757361626c653a206e6f7420706175736564000000000000000000000000\n        /* \"#utility.yul\":18563:18564   */\n      0x00\n        /* \"#utility.yul\":18555:18561   */\n      dup3\n        /* \"#utility.yul\":18551:18565   */\n      add\n        /* \"#utility.yul\":18544:18590   */\n      mstore\n        /* \"#utility.yul\":18427:18597   */\n      pop\n      jump\t// out\n        /* \"#utility.yul\":18603:18969   */\n    tag_341:\n        /* \"#utility.yul\":18745:18748   */\n      0x00\n        /* \"#utility.yul\":18766:18833   */\n      tag_508\n        /* \"#utility.yul\":18830:18832   */\n      0x14\n        /* \"#utility.yul\":18825:18828   */\n      dup4\n        /* \"#utility.yul\":18766:18833   */\n      tag_314\n      jump\t// in\n    tag_508:\n        /* \"#utility.yul\":18759:18833   */\n      swap2\n      pop\n        /* \"#utility.yul\":18842:18935   */\n      tag_509\n        /* \"#utility.yul\":18931:18934   */\n      dup3\n        /* \"#utility.yul\":18842:18935   */\n      tag_340\n      jump\t// in\n    tag_509:\n        /* \"#utility.yul\":18960:18962   */\n      0x20\n        /* \"#utility.yul\":18955:18958   */\n      dup3\n        /* \"#utility.yul\":18951:18963   */\n      add\n        /* \"#utility.yul\":18944:18963   */\n      swap1\n      pop\n        /* \"#utility.yul\":18603:18969   */\n      swap2\n      swap1\n      pop\n      jump\t// out\n        /* \"#utility.yul\":18975:19394   */\n    tag_299:\n        /* \"#utility.yul\":19141:19145   */\n      0x00\n        /* \"#utility.yul\":19179:19181   */\n      0x20\n        /* \"#utility.yul\":19168:19177   */\n      dup3\n        /* \"#utility.yul\":19164:19182   */\n      add\n        /* \"#utility.yul\":19156:19182   */\n      swap1\n      pop\n        /* \"#utility.yul\":19228:19237   */\n      dup2\n        /* \"#utility.yul\":19222:19226   */\n      dup2\n        /* \"#utility.yul\":19218:19238   */\n      sub\n        /* \"#utility.yul\":19214:19215   */\n      0x00\n        /* \"#utility.yul\":19203:19212   */\n      dup4\n        /* \"#utility.yul\":19199:19216   */\n      add\n        /* \"#utility.yul\":19192:19239   */\n      mstore\n        /* \"#utility.yul\":19256:19387   */\n      tag_511\n        /* \"#utility.yul\":19382:19386   */\n      dup2\n        /* \"#utility.yul\":19256:19387   */\n      tag_341\n      jump\t// in\n    tag_511:\n        /* \"#utility.yul\":19248:19387   */\n      swap1\n      pop\n        /* \"#utility.yul\":18975:19394   */\n      swap2\n      swap1\n      pop\n      jump\t// out\n\n    auxdata: 0xa26469706673582212202571faf1e7c203264d6fc42002ffc857679ddb0f5c0bae59e5a57c7eec11b3e764736f6c634300081e0033\n}\n",
				"bytecode": {
					"linkReferences": {},
					"object": "60c060405234801561000f575f5ffd5b5060405161239e38038061239e83398181016040528101906100319190610202565b61004d6100426100dc60201b60201c565b6100e360201b60201c565b5f5f60146101000a81548160ff021916908315150217905550600180819055508173ffffffffffffffffffffffffffffffffffffffff1660808173ffffffffffffffffffffffffffffffffffffffff16815250508073ffffffffffffffffffffffffffffffffffffffff1660a08173ffffffffffffffffffffffffffffffffffffffff16815250505050610240565b5f33905090565b5f5f5f9054906101000a900473ffffffffffffffffffffffffffffffffffffffff169050815f5f6101000a81548173ffffffffffffffffffffffffffffffffffffffff021916908373ffffffffffffffffffffffffffffffffffffffff1602179055508173ffffffffffffffffffffffffffffffffffffffff168173ffffffffffffffffffffffffffffffffffffffff167f8be0079c531659141344cd1fd0a4f28419497f9722a3daafe3b4186f6b6457e060405160405180910390a35050565b5f5ffd5b5f73ffffffffffffffffffffffffffffffffffffffff82169050919050565b5f6101d1826101a8565b9050919050565b6101e1816101c7565b81146101eb575f5ffd5b50565b5f815190506101fc816101d8565b92915050565b5f5f60408385031215610218576102176101a4565b5b5f610225858286016101ee565b9250506020610236858286016101ee565b9150509250929050565b60805160a0516120f06102ae5f395f81816106ce0152818161087b01528181610b6701528181610d74015281816110f1015261122401525f818161038b01528181610632015281816107dd01528181610b1201528181610cfb01528181610d4e015261105301526120f05ff3fe608060405234801561000f575f5ffd5b506004361061011f575f3560e01c8063787dce3d116100ab578063c4adc97b1161006f578063c4adc97b146102ae578063c9ec9248146102de578063d21220a71461030e578063f2fde38b1461032c578063f46901ed146103485761011f565b8063787dce3d146102095780638456cb59146102255780638da5cb5b1461022f578063978ae06f1461024d5780639db4aa041461027e5761011f565b80633f4ba83a116100f25780633f4ba83a1461019b578063443cb4bc146101a55780635a76f25e146101c35780635c975abb146101e1578063715018a6146101ff5761011f565b8063017e7e58146101235780630dfe16811461014157806335659fb81461015f5780633a98ef391461017d575b5f5ffd5b61012b610364565b6040516101389190611776565b60405180910390f35b610149610389565b6040516101569190611776565b60405180910390f35b6101676103ad565b60405161017491906117a7565b60405180910390f35b6101856103b3565b60405161019291906117a7565b60405180910390f35b6101a36103b9565b005b6101ad6103cb565b6040516101ba91906117a7565b60405180910390f35b6101cb6103d1565b6040516101d891906117a7565b60405180910390f35b6101e96103d7565b6040516101f691906117da565b60405180910390f35b6102076103ec565b005b610223600480360381019061021e9190611821565b6103ff565b005b61022d610498565b005b6102376104aa565b6040516102449190611776565b60405180910390f35b61026760048036038101906102629190611821565b6104d1565b60405161027592919061184c565b60405180910390f35b6102986004803603810190610293919061189d565b6107bd565b6040516102a591906117a7565b60405180910390f35b6102c860048036038101906102c391906118c8565b6107d2565b6040516102d591906117a7565b60405180910390f35b6102f860048036038101906102f39190611906565b610abb565b60405161030591906117a7565b60405180910390f35b610316611222565b6040516103239190611776565b60405180910390f35b6103466004803603810190610341919061189d565b611246565b005b610362600480360381019061035d919061189d565b6112c8565b005b60065f9054906101000a900473ffffffffffffffffffffffffffffffffffffffff1681565b7f000000000000000000000000000000000000000000000000000000000000000081565b60075481565b60055481565b6103c16113b4565b6103c9611432565b565b60025481565b60035481565b5f5f60149054906101000a900460ff16905090565b6103f46113b4565b6103fd5f611493565b565b6104076113b4565b6103e881111561044c576040517f08c379a0000000000000000000000000000000000000000000000000000000008152600401610443906119c4565b60405180910390fd5b5f6007549050816007819055507ffa4067f2d0249edb7594284cabb394f2ec0e4f6168dbd1e3a63f861b67f1188f8160075460405161048c92919061184c565b60405180910390a15050565b6104a06113b4565b6104a8611554565b565b5f5f5f9054906101000a900473ffffffffffffffffffffffffffffffffffffffff16905090565b5f5f6104db6115b6565b8260045f3373ffffffffffffffffffffffffffffffffffffffff1673ffffffffffffffffffffffffffffffffffffffff1681526020019081526020015f2054101561055b576040517f08c379a000000000000000000000000000000000000000000000000000000000815260040161055290611a2c565b60405180910390fd5b6005546002548461056c9190611a77565b6105769190611ae5565b9150600554600354846105899190611a77565b6105939190611ae5565b90508260045f3373ffffffffffffffffffffffffffffffffffffffff1673ffffffffffffffffffffffffffffffffffffffff1681526020019081526020015f205f8282546105e19190611b15565b925050819055508260055f8282546105f99190611b15565b925050819055508160025f8282546106119190611b15565b925050819055508060035f8282546106299190611b15565b925050819055507f000000000000000000000000000000000000000000000000000000000000000073ffffffffffffffffffffffffffffffffffffffff1663a9059cbb33846040518363ffffffff1660e01b815260040161068b929190611b48565b6020604051808303815f875af11580156106a7573d5f5f3e3d5ffd5b505050506040513d601f19601f820116820180604052508101906106cb9190611b99565b507f000000000000000000000000000000000000000000000000000000000000000073ffffffffffffffffffffffffffffffffffffffff1663a9059cbb33836040518363ffffffff1660e01b8152600401610727929190611b48565b6020604051808303815f875af1158015610743573d5f5f3e3d5ffd5b505050506040513d601f19601f820116820180604052508101906107679190611b99565b503373ffffffffffffffffffffffffffffffffffffffff167f96cd817c6329656790ef8fba7675405193677d39619571282f5e21f3a98cd05983836040516107b092919061184c565b60405180910390a2915091565b6004602052805f5260405f205f915090505481565b5f6107db6115b6565b7f000000000000000000000000000000000000000000000000000000000000000073ffffffffffffffffffffffffffffffffffffffff166323b872dd3330866040518463ffffffff1660e01b815260040161083893929190611bc4565b6020604051808303815f875af1158015610854573d5f5f3e3d5ffd5b505050506040513d601f19601f820116820180604052508101906108789190611b99565b507f000000000000000000000000000000000000000000000000000000000000000073ffffffffffffffffffffffffffffffffffffffff166323b872dd3330856040518463ffffffff1660e01b81526004016108d693929190611bc4565b6020604051808303815f875af11580156108f2573d5f5f3e3d5ffd5b505050506040513d601f19601f820116820180604052508101906109169190611b99565b505f6005540361093b57610934828461092f9190611a77565b611600565b9050610986565b5f6002546005548561094d9190611a77565b6109579190611ae5565b90505f6003546005548561096b9190611a77565b6109759190611ae5565b90506109818282611677565b925050505b5f81116109c8576040517f08c379a00000000000000000000000000000000000000000000000000000000081526004016109bf90611c69565b60405180910390fd5b8060045f3373ffffffffffffffffffffffffffffffffffffffff1673ffffffffffffffffffffffffffffffffffffffff1681526020019081526020015f205f828254610a149190611c87565b925050819055508060055f828254610a2c9190611c87565b925050819055508260025f828254610a449190611c87565b925050819055508160035f828254610a5c9190611c87565b925050819055503373ffffffffffffffffffffffffffffffffffffffff167f64b83944e79c3ce8d4c297411de637c3e102d064677aac0c163976ebdcd6f50e848484604051610aad93929190611cba565b60405180910390a292915050565b5f610ac46115b6565b610acc61168f565b8142811015610b10576040517f08c379a0000000000000000000000000000000000000000000000000000000008152600401610b0790611d39565b60405180910390fd5b7f000000000000000000000000000000000000000000000000000000000000000073ffffffffffffffffffffffffffffffffffffffff168673ffffffffffffffffffffffffffffffffffffffff161480610bb557507f000000000000000000000000000000000000000000000000000000000000000073ffffffffffffffffffffffffffffffffffffffff168673ffffffffffffffffffffffffffffffffffffffff16145b610bf4576040517f08c379a0000000000000000000000000000000000000000000000000000000008152600401610beb90611da1565b60405180910390fd5b8573ffffffffffffffffffffffffffffffffffffffff166323b872dd3330886040518463ffffffff1660e01b8152600401610c3193929190611bc4565b6020604051808303815f875af1158015610c4d573d5f5f3e3d5ffd5b505050506040513d601f19601f82011682018060405250810190610c719190611b99565b505f858773ffffffffffffffffffffffffffffffffffffffff166370a08231306040518263ffffffff1660e01b8152600401610cad9190611776565b602060405180830381865afa158015610cc8573d5f5f3e3d5ffd5b505050506040513d601f19601f82011682018060405250810190610cec9190611dd3565b610cf69190611b15565b90505f7f000000000000000000000000000000000000000000000000000000000000000073ffffffffffffffffffffffffffffffffffffffff168873ffffffffffffffffffffffffffffffffffffffff1614610d72577f0000000000000000000000000000000000000000000000000000000000000000610d94565b7f00000000000000000000000000000000000000000000000000000000000000005b90505f8173ffffffffffffffffffffffffffffffffffffffff166370a08231306040518263ffffffff1660e01b8152600401610dd09190611776565b602060405180830381865afa158015610deb573d5f5f3e3d5ffd5b505050506040513d601f19601f82011682018060405250810190610e0f9190611dd3565b90505f6103e589610e209190611a77565b90505f8282610e2f9190611a77565b90505f826103e887610e419190611a77565b610e4b9190611c87565b90508082610e599190611ae5565b975089881015610e9e576040517f08c379a0000000000000000000000000000000000000000000000000000000008152600401610e9590611e6e565b60405180910390fd5b5f73ffffffffffffffffffffffffffffffffffffffff1660065f9054906101000a900473ffffffffffffffffffffffffffffffffffffffff1673ffffffffffffffffffffffffffffffffffffffff1614158015610efc57505f600754115b15610fd5575f6127106007548a610f139190611a77565b610f1d9190611ae5565b90505f811115610fd3578573ffffffffffffffffffffffffffffffffffffffff1663a9059cbb60065f9054906101000a900473ffffffffffffffffffffffffffffffffffffffff16836040518363ffffffff1660e01b8152600401610f83929190611b48565b6020604051808303815f875af1158015610f9f573d5f5f3e3d5ffd5b505050506040513d601f19601f82011682018060405250810190610fc39190611b99565b508089610fd09190611b15565b98505b505b8473ffffffffffffffffffffffffffffffffffffffff1663a9059cbb338a6040518363ffffffff1660e01b8152600401611010929190611b48565b6020604051808303815f875af115801561102c573d5f5f3e3d5ffd5b505050506040513d601f19601f820116820180604052508101906110509190611b99565b507f000000000000000000000000000000000000000000000000000000000000000073ffffffffffffffffffffffffffffffffffffffff166370a08231306040518263ffffffff1660e01b81526004016110aa9190611776565b602060405180830381865afa1580156110c5573d5f5f3e3d5ffd5b505050506040513d601f19601f820116820180604052508101906110e99190611dd3565b6002819055507f000000000000000000000000000000000000000000000000000000000000000073ffffffffffffffffffffffffffffffffffffffff166370a08231306040518263ffffffff1660e01b81526004016111489190611776565b602060405180830381865afa158015611163573d5f5f3e3d5ffd5b505050506040513d601f19601f820116820180604052508101906111879190611dd3565b6003819055508473ffffffffffffffffffffffffffffffffffffffff168c73ffffffffffffffffffffffffffffffffffffffff163373ffffffffffffffffffffffffffffffffffffffff167f692315744755ee6d80decaeb993d4b1bb95ff5db042cc47b32d5a7d858b019028e8c60405161120392919061184c565b60405180910390a45050505050505061121a6116de565b949350505050565b7f000000000000000000000000000000000000000000000000000000000000000081565b61124e6113b4565b5f73ffffffffffffffffffffffffffffffffffffffff168173ffffffffffffffffffffffffffffffffffffffff16036112bc576040517f08c379a00000000000000000000000000000000000000000000000000000000081526004016112b390611efc565b60405180910390fd5b6112c581611493565b50565b6112d06113b4565b5f60065f9054906101000a900473ffffffffffffffffffffffffffffffffffffffff1690508160065f6101000a81548173ffffffffffffffffffffffffffffffffffffffff021916908373ffffffffffffffffffffffffffffffffffffffff16021790555060065f9054906101000a900473ffffffffffffffffffffffffffffffffffffffff1673ffffffffffffffffffffffffffffffffffffffff168173ffffffffffffffffffffffffffffffffffffffff167facdb35963fc2f391109a5045fd4850b0e0759d19f21fcaa7ab17b7d8512a9eca60405160405180910390a35050565b6113bc6116e7565b73ffffffffffffffffffffffffffffffffffffffff166113da6104aa565b73ffffffffffffffffffffffffffffffffffffffff1614611430576040517f08c379a000000000000000000000000000000000000000000000000000000000815260040161142790611f64565b60405180910390fd5b565b61143a6116ee565b5f5f60146101000a81548160ff0219169083151502179055507f5db9ee0a495bf2e6ff9c91a7834c1ba4fdd244a5e8aa4e537bd38aeae4b073aa61147c6116e7565b6040516114899190611776565b60405180910390a1565b5f5f5f9054906101000a900473ffffffffffffffffffffffffffffffffffffffff169050815f5f6101000a81548173ffffffffffffffffffffffffffffffffffffffff021916908373ffffffffffffffffffffffffffffffffffffffff1602179055508173ffffffffffffffffffffffffffffffffffffffff168173ffffffffffffffffffffffffffffffffffffffff167f8be0079c531659141344cd1fd0a4f28419497f9722a3daafe3b4186f6b6457e060405160405180910390a35050565b61155c6115b6565b60015f60146101000a81548160ff0219169083151502179055507f62e78cea01bee320cd4e420270b5ea74000d11b0c9f74754ebdbfc544b05a25861159f6116e7565b6040516115ac9190611776565b60405180910390a1565b6115be6103d7565b156115fe576040517f08c379a00000000000000000000000000000000000000000000000000000000081526004016115f590611fcc565b60405180910390fd5b565b5f6003821115611665578190505f600160028461161d9190611ae5565b6116279190611c87565b90505b8181101561165f5780915060028182856116449190611ae5565b61164e9190611c87565b6116589190611ae5565b905061162a565b50611672565b5f821461167157600190505b5b919050565b5f8183106116855781611687565b825b905092915050565b6002600154036116d4576040517f08c379a00000000000000000000000000000000000000000000000000000000081526004016116cb90612034565b60405180910390fd5b6002600181905550565b60018081905550565b5f33905090565b6116f66103d7565b611735576040517f08c379a000000000000000000000000000000000000000000000000000000000815260040161172c9061209c565b60405180910390fd5b565b5f73ffffffffffffffffffffffffffffffffffffffff82169050919050565b5f61176082611737565b9050919050565b61177081611756565b82525050565b5f6020820190506117895f830184611767565b92915050565b5f819050919050565b6117a18161178f565b82525050565b5f6020820190506117ba5f830184611798565b92915050565b5f8115159050919050565b6117d4816117c0565b82525050565b5f6020820190506117ed5f8301846117cb565b92915050565b5f5ffd5b6118008161178f565b811461180a575f5ffd5b50565b5f8135905061181b816117f7565b92915050565b5f60208284031215611836576118356117f3565b5b5f6118438482850161180d565b91505092915050565b5f60408201905061185f5f830185611798565b61186c6020830184611798565b9392505050565b61187c81611756565b8114611886575f5ffd5b50565b5f8135905061189781611873565b92915050565b5f602082840312156118b2576118b16117f3565b5b5f6118bf84828501611889565b91505092915050565b5f5f604083850312156118de576118dd6117f3565b5b5f6118eb8582860161180d565b92505060206118fc8582860161180d565b9150509250929050565b5f5f5f5f6080858703121561191e5761191d6117f3565b5b5f61192b87828801611889565b945050602061193c8782880161180d565b935050604061194d8782880161180d565b925050606061195e8782880161180d565b91505092959194509250565b5f82825260208201905092915050565b7f4e756161537761703a204645455f544f4f5f48494748000000000000000000005f82015250565b5f6119ae60168361196a565b91506119b98261197a565b602082019050919050565b5f6020820190508181035f8301526119db816119a2565b9050919050565b7f4e756161537761703a20494e53554646494349454e545f5348415245530000005f82015250565b5f611a16601d8361196a565b9150611a21826119e2565b602082019050919050565b5f6020820190508181035f830152611a4381611a0a565b9050919050565b7f4e487b71000000000000000000000000000000000000000000000000000000005f52601160045260245ffd5b5f611a818261178f565b9150611a8c8361178f565b9250828202611a9a8161178f565b91508282048414831517611ab157611ab0611a4a565b5b5092915050565b7f4e487b71000000000000000000000000000000000000000000000000000000005f52601260045260245ffd5b5f611aef8261178f565b9150611afa8361178f565b925082611b0a57611b09611ab8565b5b828204905092915050565b5f611b1f8261178f565b9150611b2a8361178f565b9250828203905081811115611b4257611b41611a4a565b5b92915050565b5f604082019050611b5b5f830185611767565b611b686020830184611798565b9392505050565b611b78816117c0565b8114611b82575f5ffd5b50565b5f81519050611b9381611b6f565b92915050565b5f60208284031215611bae57611bad6117f3565b5b5f611bbb84828501611b85565b91505092915050565b5f606082019050611bd75f830186611767565b611be46020830185611767565b611bf16040830184611798565b949350505050565b7f4e756161537761703a20494e53554646494349454e545f4c49515549444954595f8201527f5f4d494e54454400000000000000000000000000000000000000000000000000602082015250565b5f611c5360278361196a565b9150611c5e82611bf9565b604082019050919050565b5f6020820190508181035f830152611c8081611c47565b9050919050565b5f611c918261178f565b9150611c9c8361178f565b9250828201905080821115611cb457611cb3611a4a565b5b92915050565b5f606082019050611ccd5f830186611798565b611cda6020830185611798565b611ce76040830184611798565b949350505050565b7f4e756161537761703a20444541444c494e455f455850495245440000000000005f82015250565b5f611d23601a8361196a565b9150611d2e82611cef565b602082019050919050565b5f6020820190508181035f830152611d5081611d17565b9050919050565b7f4e756161537761703a20494e56414c49445f544f4b454e0000000000000000005f82015250565b5f611d8b60178361196a565b9150611d9682611d57565b602082019050919050565b5f6020820190508181035f830152611db881611d7f565b9050919050565b5f81519050611dcd816117f7565b92915050565b5f60208284031215611de857611de76117f3565b5b5f611df584828501611dbf565b91505092915050565b7f4e756161537761703a20494e53554646494349454e545f4f55545055545f414d5f8201527f4f554e5400000000000000000000000000000000000000000000000000000000602082015250565b5f611e5860248361196a565b9150611e6382611dfe565b604082019050919050565b5f6020820190508181035f830152611e8581611e4c565b9050919050565b7f4f776e61626c653a206e6577206f776e657220697320746865207a65726f20615f8201527f6464726573730000000000000000000000000000000000000000000000000000602082015250565b5f611ee660268361196a565b9150611ef182611e8c565b604082019050919050565b5f6020820190508181035f830152611f1381611eda565b9050919050565b7f4f776e61626c653a2063616c6c6572206973206e6f7420746865206f776e65725f82015250565b5f611f4e60208361196a565b9150611f5982611f1a565b602082019050919050565b5f6020820190508181035f830152611f7b81611f42565b9050919050565b7f5061757361626c653a20706175736564000000000000000000000000000000005f82015250565b5f611fb660108361196a565b9150611fc182611f82565b602082019050919050565b5f6020820190508181035f830152611fe381611faa565b9050919050565b7f5265656e7472616e637947756172643a207265656e7472616e742063616c6c005f82015250565b5f61201e601f8361196a565b915061202982611fea565b602082019050919050565b5f6020820190508181035f83015261204b81612012565b9050919050565b7f5061757361626c653a206e6f74207061757365640000000000000000000000005f82015250565b5f61208660148361196a565b915061209182612052565b602082019050919050565b5f6020820190508181035f8301526120b38161207a565b905091905056fea26469706673582212202571faf1e7c203264d6fc42002ffc857679ddb0f5c0bae59e5a57c7eec11b3e764736f6c634300081e0033",
					"opcodes": "PUSH1 0xC0 PUSH1 0x40 MSTORE CALLVALUE DUP1 ISZERO PUSH2 0xF JUMPI PUSH0 PUSH0 REVERT JUMPDEST POP PUSH1 0x40 MLOAD PUSH2 0x239E CODESIZE SUB DUP1 PUSH2 0x239E DUP4 CODECOPY DUP2 DUP2 ADD PUSH1 0x40 MSTORE DUP2 ADD SWAP1 PUSH2 0x31 SWAP2 SWAP1 PUSH2 0x202 JUMP JUMPDEST PUSH2 0x4D PUSH2 0x42 PUSH2 0xDC PUSH1 0x20 SHL PUSH1 0x20 SHR JUMP JUMPDEST PUSH2 0xE3 PUSH1 0x20 SHL PUSH1 0x20 SHR JUMP JUMPDEST PUSH0 PUSH0 PUSH1 0x14 PUSH2 0x100 EXP DUP2 SLOAD DUP2 PUSH1 0xFF MUL NOT AND SWAP1 DUP4 ISZERO ISZERO MUL OR SWAP1 SSTORE POP PUSH1 0x1 DUP1 DUP2 SWAP1 SSTORE POP DUP2 PUSH20 0xFFFFFFFFFFFFFFFFFFFFFFFFFFFFFFFFFFFFFFFF AND PUSH1 0x80 DUP2 PUSH20 0xFFFFFFFFFFFFFFFFFFFFFFFFFFFFFFFFFFFFFFFF AND DUP2 MSTORE POP POP DUP1 PUSH20 0xFFFFFFFFFFFFFFFFFFFFFFFFFFFFFFFFFFFFFFFF AND PUSH1 0xA0 DUP2 PUSH20 0xFFFFFFFFFFFFFFFFFFFFFFFFFFFFFFFFFFFFFFFF AND DUP2 MSTORE POP POP POP POP PUSH2 0x240 JUMP JUMPDEST PUSH0 CALLER SWAP1 POP SWAP1 JUMP JUMPDEST PUSH0 PUSH0 PUSH0 SWAP1 SLOAD SWAP1 PUSH2 0x100 EXP SWAP1 DIV PUSH20 0xFFFFFFFFFFFFFFFFFFFFFFFFFFFFFFFFFFFFFFFF AND SWAP1 POP DUP2 PUSH0 PUSH0 PUSH2 0x100 EXP DUP2 SLOAD DUP2 PUSH20 0xFFFFFFFFFFFFFFFFFFFFFFFFFFFFFFFFFFFFFFFF MUL NOT AND SWAP1 DUP4 PUSH20 0xFFFFFFFFFFFFFFFFFFFFFFFFFFFFFFFFFFFFFFFF AND MUL OR SWAP1 SSTORE POP DUP2 PUSH20 0xFFFFFFFFFFFFFFFFFFFFFFFFFFFFFFFFFFFFFFFF AND DUP2 PUSH20 0xFFFFFFFFFFFFFFFFFFFFFFFFFFFFFFFFFFFFFFFF AND PUSH32 0x8BE0079C531659141344CD1FD0A4F28419497F9722A3DAAFE3B4186F6B6457E0 PUSH1 0x40 MLOAD PUSH1 0x40 MLOAD DUP1 SWAP2 SUB SWAP1 LOG3 POP POP JUMP JUMPDEST PUSH0 PUSH0 REVERT JUMPDEST PUSH0 PUSH20 0xFFFFFFFFFFFFFFFFFFFFFFFFFFFFFFFFFFFFFFFF DUP3 AND SWAP1 POP SWAP2 SWAP1 POP JUMP JUMPDEST PUSH0 PUSH2 0x1D1 DUP3 PUSH2 0x1A8 JUMP JUMPDEST SWAP1 POP SWAP2 SWAP1 POP JUMP JUMPDEST PUSH2 0x1E1 DUP2 PUSH2 0x1C7 JUMP JUMPDEST DUP2 EQ PUSH2 0x1EB JUMPI PUSH0 PUSH0 REVERT JUMPDEST POP JUMP JUMPDEST PUSH0 DUP2 MLOAD SWAP1 POP PUSH2 0x1FC DUP2 PUSH2 0x1D8 JUMP JUMPDEST SWAP3 SWAP2 POP POP JUMP JUMPDEST PUSH0 PUSH0 PUSH1 0x40 DUP4 DUP6 SUB SLT ISZERO PUSH2 0x218 JUMPI PUSH2 0x217 PUSH2 0x1A4 JUMP JUMPDEST JUMPDEST PUSH0 PUSH2 0x225 DUP6 DUP3 DUP7 ADD PUSH2 0x1EE JUMP JUMPDEST SWAP3 POP POP PUSH1 0x20 PUSH2 0x236 DUP6 DUP3 DUP7 ADD PUSH2 0x1EE JUMP JUMPDEST SWAP2 POP POP SWAP3 POP SWAP3 SWAP1 POP JUMP JUMPDEST PUSH1 0x80 MLOAD PUSH1 0xA0 MLOAD PUSH2 0x20F0 PUSH2 0x2AE PUSH0 CODECOPY PUSH0 DUP2 DUP2 PUSH2 0x6CE ADD MSTORE DUP2 DUP2 PUSH2 0x87B ADD MSTORE DUP2 DUP2 PUSH2 0xB67 ADD MSTORE DUP2 DUP2 PUSH2 0xD74 ADD MSTORE DUP2 DUP2 PUSH2 0x10F1 ADD MSTORE PUSH2 0x1224 ADD MSTORE PUSH0 DUP2 DUP2 PUSH2 0x38B ADD MSTORE DUP2 DUP2 PUSH2 0x632 ADD MSTORE DUP2 DUP2 PUSH2 0x7DD ADD MSTORE DUP2 DUP2 PUSH2 0xB12 ADD MSTORE DUP2 DUP2 PUSH2 0xCFB ADD MSTORE DUP2 DUP2 PUSH2 0xD4E ADD MSTORE PUSH2 0x1053 ADD MSTORE PUSH2 0x20F0 PUSH0 RETURN INVALID PUSH1 0x80 PUSH1 0x40 MSTORE CALLVALUE DUP1 ISZERO PUSH2 0xF JUMPI PUSH0 PUSH0 REVERT JUMPDEST POP PUSH1 0x4 CALLDATASIZE LT PUSH2 0x11F JUMPI PUSH0 CALLDATALOAD PUSH1 0xE0 SHR DUP1 PUSH4 0x787DCE3D GT PUSH2 0xAB JUMPI DUP1 PUSH4 0xC4ADC97B GT PUSH2 0x6F JUMPI DUP1 PUSH4 0xC4ADC97B EQ PUSH2 0x2AE JUMPI DUP1 PUSH4 0xC9EC9248 EQ PUSH2 0x2DE JUMPI DUP1 PUSH4 0xD21220A7 EQ PUSH2 0x30E JUMPI DUP1 PUSH4 0xF2FDE38B EQ PUSH2 0x32C JUMPI DUP1 PUSH4 0xF46901ED EQ PUSH2 0x348 JUMPI PUSH2 0x11F JUMP JUMPDEST DUP1 PUSH4 0x787DCE3D EQ PUSH2 0x209 JUMPI DUP1 PUSH4 0x8456CB59 EQ PUSH2 0x225 JUMPI DUP1 PUSH4 0x8DA5CB5B EQ PUSH2 0x22F JUMPI DUP1 PUSH4 0x978AE06F EQ PUSH2 0x24D JUMPI DUP1 PUSH4 0x9DB4AA04 EQ PUSH2 0x27E JUMPI PUSH2 0x11F JUMP JUMPDEST DUP1 PUSH4 0x3F4BA83A GT PUSH2 0xF2 JUMPI DUP1 PUSH4 0x3F4BA83A EQ PUSH2 0x19B JUMPI DUP1 PUSH4 0x443CB4BC EQ PUSH2 0x1A5 JUMPI DUP1 PUSH4 0x5A76F25E EQ PUSH2 0x1C3 JUMPI DUP1 PUSH4 0x5C975ABB EQ PUSH2 0x1E1 JUMPI DUP1 PUSH4 0x715018A6 EQ PUSH2 0x1FF JUMPI PUSH2 0x11F JUMP JUMPDEST DUP1 PUSH4 0x17E7E58 EQ PUSH2 0x123 JUMPI DUP1 PUSH4 0xDFE1681 EQ PUSH2 0x141 JUMPI DUP1 PUSH4 0x35659FB8 EQ PUSH2 0x15F JUMPI DUP1 PUSH4 0x3A98EF39 EQ PUSH2 0x17D JUMPI JUMPDEST PUSH0 PUSH0 REVERT JUMPDEST PUSH2 0x12B PUSH2 0x364 JUMP JUMPDEST PUSH1 0x40 MLOAD PUSH2 0x138 SWAP2 SWAP1 PUSH2 0x1776 JUMP JUMPDEST PUSH1 0x40 MLOAD DUP1 SWAP2 SUB SWAP1 RETURN JUMPDEST PUSH2 0x149 PUSH2 0x389 JUMP JUMPDEST PUSH1 0x40 MLOAD PUSH2 0x156 SWAP2 SWAP1 PUSH2 0x1776 JUMP JUMPDEST PUSH1 0x40 MLOAD DUP1 SWAP2 SUB SWAP1 RETURN JUMPDEST PUSH2 0x167 PUSH2 0x3AD JUMP JUMPDEST PUSH1 0x40 MLOAD PUSH2 0x174 SWAP2 SWAP1 PUSH2 0x17A7 JUMP JUMPDEST PUSH1 0x40 MLOAD DUP1 SWAP2 SUB SWAP1 RETURN JUMPDEST PUSH2 0x185 PUSH2 0x3B3 JUMP JUMPDEST PUSH1 0x40 MLOAD PUSH2 0x192 SWAP2 SWAP1 PUSH2 0x17A7 JUMP JUMPDEST PUSH1 0x40 MLOAD DUP1 SWAP2 SUB SWAP1 RETURN JUMPDEST PUSH2 0x1A3 PUSH2 0x3B9 JUMP JUMPDEST STOP JUMPDEST PUSH2 0x1AD PUSH2 0x3CB JUMP JUMPDEST PUSH1 0x40 MLOAD PUSH2 0x1BA SWAP2 SWAP1 PUSH2 0x17A7 JUMP JUMPDEST PUSH1 0x40 MLOAD DUP1 SWAP2 SUB SWAP1 RETURN JUMPDEST PUSH2 0x1CB PUSH2 0x3D1 JUMP JUMPDEST PUSH1 0x40 MLOAD PUSH2 0x1D8 SWAP2 SWAP1 PUSH2 0x17A7 JUMP JUMPDEST PUSH1 0x40 MLOAD DUP1 SWAP2 SUB SWAP1 RETURN JUMPDEST PUSH2 0x1E9 PUSH2 0x3D7 JUMP JUMPDEST PUSH1 0x40 MLOAD PUSH2 0x1F6 SWAP2 SWAP1 PUSH2 0x17DA JUMP JUMPDEST PUSH1 0x40 MLOAD DUP1 SWAP2 SUB SWAP1 RETURN JUMPDEST PUSH2 0x207 PUSH2 0x3EC JUMP JUMPDEST STOP JUMPDEST PUSH2 0x223 PUSH1 0x4 DUP1 CALLDATASIZE SUB DUP2 ADD SWAP1 PUSH2 0x21E SWAP2 SWAP1 PUSH2 0x1821 JUMP JUMPDEST PUSH2 0x3FF JUMP JUMPDEST STOP JUMPDEST PUSH2 0x22D PUSH2 0x498 JUMP JUMPDEST STOP JUMPDEST PUSH2 0x237 PUSH2 0x4AA JUMP JUMPDEST PUSH1 0x40 MLOAD PUSH2 0x244 SWAP2 SWAP1 PUSH2 0x1776 JUMP JUMPDEST PUSH1 0x40 MLOAD DUP1 SWAP2 SUB SWAP1 RETURN JUMPDEST PUSH2 0x267 PUSH1 0x4 DUP1 CALLDATASIZE SUB DUP2 ADD SWAP1 PUSH2 0x262 SWAP2 SWAP1 PUSH2 0x1821 JUMP JUMPDEST PUSH2 0x4D1 JUMP JUMPDEST PUSH1 0x40 MLOAD PUSH2 0x275 SWAP3 SWAP2 SWAP1 PUSH2 0x184C JUMP JUMPDEST PUSH1 0x40 MLOAD DUP1 SWAP2 SUB SWAP1 RETURN JUMPDEST PUSH2 0x298 PUSH1 0x4 DUP1 CALLDATASIZE SUB DUP2 ADD SWAP1 PUSH2 0x293 SWAP2 SWAP1 PUSH2 0x189D JUMP JUMPDEST PUSH2 0x7BD JUMP JUMPDEST PUSH1 0x40 MLOAD PUSH2 0x2A5 SWAP2 SWAP1 PUSH2 0x17A7 JUMP JUMPDEST PUSH1 0x40 MLOAD DUP1 SWAP2 SUB SWAP1 RETURN JUMPDEST PUSH2 0x2C8 PUSH1 0x4 DUP1 CALLDATASIZE SUB DUP2 ADD SWAP1 PUSH2 0x2C3 SWAP2 SWAP1 PUSH2 0x18C8 JUMP JUMPDEST PUSH2 0x7D2 JUMP JUMPDEST PUSH1 0x40 MLOAD PUSH2 0x2D5 SWAP2 SWAP1 PUSH2 0x17A7 JUMP JUMPDEST PUSH1 0x40 MLOAD DUP1 SWAP2 SUB SWAP1 RETURN JUMPDEST PUSH2 0x2F8 PUSH1 0x4 DUP1 CALLDATASIZE SUB DUP2 ADD SWAP1 PUSH2 0x2F3 SWAP2 SWAP1 PUSH2 0x1906 JUMP JUMPDEST PUSH2 0xABB JUMP JUMPDEST PUSH1 0x40 MLOAD PUSH2 0x305 SWAP2 SWAP1 PUSH2 0x17A7 JUMP JUMPDEST PUSH1 0x40 MLOAD DUP1 SWAP2 SUB SWAP1 RETURN JUMPDEST PUSH2 0x316 PUSH2 0x1222 JUMP JUMPDEST PUSH1 0x40 MLOAD PUSH2 0x323 SWAP2 SWAP1 PUSH2 0x1776 JUMP JUMPDEST PUSH1 0x40 MLOAD DUP1 SWAP2 SUB SWAP1 RETURN JUMPDEST PUSH2 0x346 PUSH1 0x4 DUP1 CALLDATASIZE SUB DUP2 ADD SWAP1 PUSH2 0x341 SWAP2 SWAP1 PUSH2 0x189D JUMP JUMPDEST PUSH2 0x1246 JUMP JUMPDEST STOP JUMPDEST PUSH2 0x362 PUSH1 0x4 DUP1 CALLDATASIZE SUB DUP2 ADD SWAP1 PUSH2 0x35D SWAP2 SWAP1 PUSH2 0x189D JUMP JUMPDEST PUSH2 0x12C8 JUMP JUMPDEST STOP JUMPDEST PUSH1 0x6 PUSH0 SWAP1 SLOAD SWAP1 PUSH2 0x100 EXP SWAP1 DIV PUSH20 0xFFFFFFFFFFFFFFFFFFFFFFFFFFFFFFFFFFFFFFFF AND DUP2 JUMP JUMPDEST PUSH32 0x0 DUP2 JUMP JUMPDEST PUSH1 0x7 SLOAD DUP2 JUMP JUMPDEST PUSH1 0x5 SLOAD DUP2 JUMP JUMPDEST PUSH2 0x3C1 PUSH2 0x13B4 JUMP JUMPDEST PUSH2 0x3C9 PUSH2 0x1432 JUMP JUMPDEST JUMP JUMPDEST PUSH1 0x2 SLOAD DUP2 JUMP JUMPDEST PUSH1 0x3 SLOAD DUP2 JUMP JUMPDEST PUSH0 PUSH0 PUSH1 0x14 SWAP1 SLOAD SWAP1 PUSH2 0x100 EXP SWAP1 DIV PUSH1 0xFF AND SWAP1 POP SWAP1 JUMP JUMPDEST PUSH2 0x3F4 PUSH2 0x13B4 JUMP JUMPDEST PUSH2 0x3FD PUSH0 PUSH2 0x1493 JUMP JUMPDEST JUMP JUMPDEST PUSH2 0x407 PUSH2 0x13B4 JUMP JUMPDEST PUSH2 0x3E8 DUP2 GT ISZERO PUSH2 0x44C JUMPI PUSH1 0x40 MLOAD PUSH32 0x8C379A000000000000000000000000000000000000000000000000000000000 DUP2 MSTORE PUSH1 0x4 ADD PUSH2 0x443 SWAP1 PUSH2 0x19C4 JUMP JUMPDEST PUSH1 0x40 MLOAD DUP1 SWAP2 SUB SWAP1 REVERT JUMPDEST PUSH0 PUSH1 0x7 SLOAD SWAP1 POP DUP2 PUSH1 0x7 DUP2 SWAP1 SSTORE POP PUSH32 0xFA4067F2D0249EDB7594284CABB394F2EC0E4F6168DBD1E3A63F861B67F1188F DUP2 PUSH1 0x7 SLOAD PUSH1 0x40 MLOAD PUSH2 0x48C SWAP3 SWAP2 SWAP1 PUSH2 0x184C JUMP JUMPDEST PUSH1 0x40 MLOAD DUP1 SWAP2 SUB SWAP1 LOG1 POP POP JUMP JUMPDEST PUSH2 0x4A0 PUSH2 0x13B4 JUMP JUMPDEST PUSH2 0x4A8 PUSH2 0x1554 JUMP JUMPDEST JUMP JUMPDEST PUSH0 PUSH0 PUSH0 SWAP1 SLOAD SWAP1 PUSH2 0x100 EXP SWAP1 DIV PUSH20 0xFFFFFFFFFFFFFFFFFFFFFFFFFFFFFFFFFFFFFFFF AND SWAP1 POP SWAP1 JUMP JUMPDEST PUSH0 PUSH0 PUSH2 0x4DB PUSH2 0x15B6 JUMP JUMPDEST DUP3 PUSH1 0x4 PUSH0 CALLER PUSH20 0xFFFFFFFFFFFFFFFFFFFFFFFFFFFFFFFFFFFFFFFF AND PUSH20 0xFFFFFFFFFFFFFFFFFFFFFFFFFFFFFFFFFFFFFFFF AND DUP2 MSTORE PUSH1 0x20 ADD SWAP1 DUP2 MSTORE PUSH1 0x20 ADD PUSH0 KECCAK256 SLOAD LT ISZERO PUSH2 0x55B JUMPI PUSH1 0x40 MLOAD PUSH32 0x8C379A000000000000000000000000000000000000000000000000000000000 DUP2 MSTORE PUSH1 0x4 ADD PUSH2 0x552 SWAP1 PUSH2 0x1A2C JUMP JUMPDEST PUSH1 0x40 MLOAD DUP1 SWAP2 SUB SWAP1 REVERT JUMPDEST PUSH1 0x5 SLOAD PUSH1 0x2 SLOAD DUP5 PUSH2 0x56C SWAP2 SWAP1 PUSH2 0x1A77 JUMP JUMPDEST PUSH2 0x576 SWAP2 SWAP1 PUSH2 0x1AE5 JUMP JUMPDEST SWAP2 POP PUSH1 0x5 SLOAD PUSH1 0x3 SLOAD DUP5 PUSH2 0x589 SWAP2 SWAP1 PUSH2 0x1A77 JUMP JUMPDEST PUSH2 0x593 SWAP2 SWAP1 PUSH2 0x1AE5 JUMP JUMPDEST SWAP1 POP DUP3 PUSH1 0x4 PUSH0 CALLER PUSH20 0xFFFFFFFFFFFFFFFFFFFFFFFFFFFFFFFFFFFFFFFF AND PUSH20 0xFFFFFFFFFFFFFFFFFFFFFFFFFFFFFFFFFFFFFFFF AND DUP2 MSTORE PUSH1 0x20 ADD SWAP1 DUP2 MSTORE PUSH1 0x20 ADD PUSH0 KECCAK256 PUSH0 DUP3 DUP3 SLOAD PUSH2 0x5E1 SWAP2 SWAP1 PUSH2 0x1B15 JUMP JUMPDEST SWAP3 POP POP DUP2 SWAP1 SSTORE POP DUP3 PUSH1 0x5 PUSH0 DUP3 DUP3 SLOAD PUSH2 0x5F9 SWAP2 SWAP1 PUSH2 0x1B15 JUMP JUMPDEST SWAP3 POP POP DUP2 SWAP1 SSTORE POP DUP2 PUSH1 0x2 PUSH0 DUP3 DUP3 SLOAD PUSH2 0x611 SWAP2 SWAP1 PUSH2 0x1B15 JUMP JUMPDEST SWAP3 POP POP DUP2 SWAP1 SSTORE POP DUP1 PUSH1 0x3 PUSH0 DUP3 DUP3 SLOAD PUSH2 0x629 SWAP2 SWAP1 PUSH2 0x1B15 JUMP JUMPDEST SWAP3 POP POP DUP2 SWAP1 SSTORE POP PUSH32 0x0 PUSH20 0xFFFFFFFFFFFFFFFFFFFFFFFFFFFFFFFFFFFFFFFF AND PUSH4 0xA9059CBB CALLER DUP5 PUSH1 0x40 MLOAD DUP4 PUSH4 0xFFFFFFFF AND PUSH1 0xE0 SHL DUP2 MSTORE PUSH1 0x4 ADD PUSH2 0x68B SWAP3 SWAP2 SWAP1 PUSH2 0x1B48 JUMP JUMPDEST PUSH1 0x20 PUSH1 0x40 MLOAD DUP1 DUP4 SUB DUP2 PUSH0 DUP8 GAS CALL ISZERO DUP1 ISZERO PUSH2 0x6A7 JUMPI RETURNDATASIZE PUSH0 PUSH0 RETURNDATACOPY RETURNDATASIZE PUSH0 REVERT JUMPDEST POP POP POP POP PUSH1 0x40 MLOAD RETURNDATASIZE PUSH1 0x1F NOT PUSH1 0x1F DUP3 ADD AND DUP3 ADD DUP1 PUSH1 0x40 MSTORE POP DUP2 ADD SWAP1 PUSH2 0x6CB SWAP2 SWAP1 PUSH2 0x1B99 JUMP JUMPDEST POP PUSH32 0x0 PUSH20 0xFFFFFFFFFFFFFFFFFFFFFFFFFFFFFFFFFFFFFFFF AND PUSH4 0xA9059CBB CALLER DUP4 PUSH1 0x40 MLOAD DUP4 PUSH4 0xFFFFFFFF AND PUSH1 0xE0 SHL DUP2 MSTORE PUSH1 0x4 ADD PUSH2 0x727 SWAP3 SWAP2 SWAP1 PUSH2 0x1B48 JUMP JUMPDEST PUSH1 0x20 PUSH1 0x40 MLOAD DUP1 DUP4 SUB DUP2 PUSH0 DUP8 GAS CALL ISZERO DUP1 ISZERO PUSH2 0x743 JUMPI RETURNDATASIZE PUSH0 PUSH0 RETURNDATACOPY RETURNDATASIZE PUSH0 REVERT JUMPDEST POP POP POP POP PUSH1 0x40 MLOAD RETURNDATASIZE PUSH1 0x1F NOT PUSH1 0x1F DUP3 ADD AND DUP3 ADD DUP1 PUSH1 0x40 MSTORE POP DUP2 ADD SWAP1 PUSH2 0x767 SWAP2 SWAP1 PUSH2 0x1B99 JUMP JUMPDEST POP CALLER PUSH20 0xFFFFFFFFFFFFFFFFFFFFFFFFFFFFFFFFFFFFFFFF AND PUSH32 0x96CD817C6329656790EF8FBA7675405193677D39619571282F5E21F3A98CD059 DUP4 DUP4 PUSH1 0x40 MLOAD PUSH2 0x7B0 SWAP3 SWAP2 SWAP1 PUSH2 0x184C JUMP JUMPDEST PUSH1 0x40 MLOAD DUP1 SWAP2 SUB SWAP1 LOG2 SWAP2 POP SWAP2 JUMP JUMPDEST PUSH1 0x4 PUSH1 0x20 MSTORE DUP1 PUSH0 MSTORE PUSH1 0x40 PUSH0 KECCAK256 PUSH0 SWAP2 POP SWAP1 POP SLOAD DUP2 JUMP JUMPDEST PUSH0 PUSH2 0x7DB PUSH2 0x15B6 JUMP JUMPDEST PUSH32 0x0 PUSH20 0xFFFFFFFFFFFFFFFFFFFFFFFFFFFFFFFFFFFFFFFF AND PUSH4 0x23B872DD CALLER ADDRESS DUP7 PUSH1 0x40 MLOAD DUP5 PUSH4 0xFFFFFFFF AND PUSH1 0xE0 SHL DUP2 MSTORE PUSH1 0x4 ADD PUSH2 0x838 SWAP4 SWAP3 SWAP2 SWAP1 PUSH2 0x1BC4 JUMP JUMPDEST PUSH1 0x20 PUSH1 0x40 MLOAD DUP1 DUP4 SUB DUP2 PUSH0 DUP8 GAS CALL ISZERO DUP1 ISZERO PUSH2 0x854 JUMPI RETURNDATASIZE PUSH0 PUSH0 RETURNDATACOPY RETURNDATASIZE PUSH0 REVERT JUMPDEST POP POP POP POP PUSH1 0x40 MLOAD RETURNDATASIZE PUSH1 0x1F NOT PUSH1 0x1F DUP3 ADD AND DUP3 ADD DUP1 PUSH1 0x40 MSTORE POP DUP2 ADD SWAP1 PUSH2 0x878 SWAP2 SWAP1 PUSH2 0x1B99 JUMP JUMPDEST POP PUSH32 0x0 PUSH20 0xFFFFFFFFFFFFFFFFFFFFFFFFFFFFFFFFFFFFFFFF AND PUSH4 0x23B872DD CALLER ADDRESS DUP6 PUSH1 0x40 MLOAD DUP5 PUSH4 0xFFFFFFFF AND PUSH1 0xE0 SHL DUP2 MSTORE PUSH1 0x4 ADD PUSH2 0x8D6 SWAP4 SWAP3 SWAP2 SWAP1 PUSH2 0x1BC4 JUMP JUMPDEST PUSH1 0x20 PUSH1 0x40 MLOAD DUP1 DUP4 SUB DUP2 PUSH0 DUP8 GAS CALL ISZERO DUP1 ISZERO PUSH2 0x8F2 JUMPI RETURNDATASIZE PUSH0 PUSH0 RETURNDATACOPY RETURNDATASIZE PUSH0 REVERT JUMPDEST POP POP POP POP PUSH1 0x40 MLOAD RETURNDATASIZE PUSH1 0x1F NOT PUSH1 0x1F DUP3 ADD AND DUP3 ADD DUP1 PUSH1 0x40 MSTORE POP DUP2 ADD SWAP1 PUSH2 0x916 SWAP2 SWAP1 PUSH2 0x1B99 JUMP JUMPDEST POP PUSH0 PUSH1 0x5 SLOAD SUB PUSH2 0x93B JUMPI PUSH2 0x934 DUP3 DUP5 PUSH2 0x92F SWAP2 SWAP1 PUSH2 0x1A77 JUMP JUMPDEST PUSH2 0x1600 JUMP JUMPDEST SWAP1 POP PUSH2 0x986 JUMP JUMPDEST PUSH0 PUSH1 0x2 SLOAD PUSH1 0x5 SLOAD DUP6 PUSH2 0x94D SWAP2 SWAP1 PUSH2 0x1A77 JUMP JUMPDEST PUSH2 0x957 SWAP2 SWAP1 PUSH2 0x1AE5 JUMP JUMPDEST SWAP1 POP PUSH0 PUSH1 0x3 SLOAD PUSH1 0x5 SLOAD DUP6 PUSH2 0x96B SWAP2 SWAP1 PUSH2 0x1A77 JUMP JUMPDEST PUSH2 0x975 SWAP2 SWAP1 PUSH2 0x1AE5 JUMP JUMPDEST SWAP1 POP PUSH2 0x981 DUP3 DUP3 PUSH2 0x1677 JUMP JUMPDEST SWAP3 POP POP POP JUMPDEST PUSH0 DUP2 GT PUSH2 0x9C8 JUMPI PUSH1 0x40 MLOAD PUSH32 0x8C379A000000000000000000000000000000000000000000000000000000000 DUP2 MSTORE PUSH1 0x4 ADD PUSH2 0x9BF SWAP1 PUSH2 0x1C69 JUMP JUMPDEST PUSH1 0x40 MLOAD DUP1 SWAP2 SUB SWAP1 REVERT JUMPDEST DUP1 PUSH1 0x4 PUSH0 CALLER PUSH20 0xFFFFFFFFFFFFFFFFFFFFFFFFFFFFFFFFFFFFFFFF AND PUSH20 0xFFFFFFFFFFFFFFFFFFFFFFFFFFFFFFFFFFFFFFFF AND DUP2 MSTORE PUSH1 0x20 ADD SWAP1 DUP2 MSTORE PUSH1 0x20 ADD PUSH0 KECCAK256 PUSH0 DUP3 DUP3 SLOAD PUSH2 0xA14 SWAP2 SWAP1 PUSH2 0x1C87 JUMP JUMPDEST SWAP3 POP POP DUP2 SWAP1 SSTORE POP DUP1 PUSH1 0x5 PUSH0 DUP3 DUP3 SLOAD PUSH2 0xA2C SWAP2 SWAP1 PUSH2 0x1C87 JUMP JUMPDEST SWAP3 POP POP DUP2 SWAP1 SSTORE POP DUP3 PUSH1 0x2 PUSH0 DUP3 DUP3 SLOAD PUSH2 0xA44 SWAP2 SWAP1 PUSH2 0x1C87 JUMP JUMPDEST SWAP3 POP POP DUP2 SWAP1 SSTORE POP DUP2 PUSH1 0x3 PUSH0 DUP3 DUP3 SLOAD PUSH2 0xA5C SWAP2 SWAP1 PUSH2 0x1C87 JUMP JUMPDEST SWAP3 POP POP DUP2 SWAP1 SSTORE POP CALLER PUSH20 0xFFFFFFFFFFFFFFFFFFFFFFFFFFFFFFFFFFFFFFFF AND PUSH32 0x64B83944E79C3CE8D4C297411DE637C3E102D064677AAC0C163976EBDCD6F50E DUP5 DUP5 DUP5 PUSH1 0x40 MLOAD PUSH2 0xAAD SWAP4 SWAP3 SWAP2 SWAP1 PUSH2 0x1CBA JUMP JUMPDEST PUSH1 0x40 MLOAD DUP1 SWAP2 SUB SWAP1 LOG2 SWAP3 SWAP2 POP POP JUMP JUMPDEST PUSH0 PUSH2 0xAC4 PUSH2 0x15B6 JUMP JUMPDEST PUSH2 0xACC PUSH2 0x168F JUMP JUMPDEST DUP2 TIMESTAMP DUP2 LT ISZERO PUSH2 0xB10 JUMPI PUSH1 0x40 MLOAD PUSH32 0x8C379A000000000000000000000000000000000000000000000000000000000 DUP2 MSTORE PUSH1 0x4 ADD PUSH2 0xB07 SWAP1 PUSH2 0x1D39 JUMP JUMPDEST PUSH1 0x40 MLOAD DUP1 SWAP2 SUB SWAP1 REVERT JUMPDEST PUSH32 0x0 PUSH20 0xFFFFFFFFFFFFFFFFFFFFFFFFFFFFFFFFFFFFFFFF AND DUP7 PUSH20 0xFFFFFFFFFFFFFFFFFFFFFFFFFFFFFFFFFFFFFFFF AND EQ DUP1 PUSH2 0xBB5 JUMPI POP PUSH32 0x0 PUSH20 0xFFFFFFFFFFFFFFFFFFFFFFFFFFFFFFFFFFFFFFFF AND DUP7 PUSH20 0xFFFFFFFFFFFFFFFFFFFFFFFFFFFFFFFFFFFFFFFF AND EQ JUMPDEST PUSH2 0xBF4 JUMPI PUSH1 0x40 MLOAD PUSH32 0x8C379A000000000000000000000000000000000000000000000000000000000 DUP2 MSTORE PUSH1 0x4 ADD PUSH2 0xBEB SWAP1 PUSH2 0x1DA1 JUMP JUMPDEST PUSH1 0x40 MLOAD DUP1 SWAP2 SUB SWAP1 REVERT JUMPDEST DUP6 PUSH20 0xFFFFFFFFFFFFFFFFFFFFFFFFFFFFFFFFFFFFFFFF AND PUSH4 0x23B872DD CALLER ADDRESS DUP9 PUSH1 0x40 MLOAD DUP5 PUSH4 0xFFFFFFFF AND PUSH1 0xE0 SHL DUP2 MSTORE PUSH1 0x4 ADD PUSH2 0xC31 SWAP4 SWAP3 SWAP2 SWAP1 PUSH2 0x1BC4 JUMP JUMPDEST PUSH1 0x20 PUSH1 0x40 MLOAD DUP1 DUP4 SUB DUP2 PUSH0 DUP8 GAS CALL ISZERO DUP1 ISZERO PUSH2 0xC4D JUMPI RETURNDATASIZE PUSH0 PUSH0 RETURNDATACOPY RETURNDATASIZE PUSH0 REVERT JUMPDEST POP POP POP POP PUSH1 0x40 MLOAD RETURNDATASIZE PUSH1 0x1F NOT PUSH1 0x1F DUP3 ADD AND DUP3 ADD DUP1 PUSH1 0x40 MSTORE POP DUP2 ADD SWAP1 PUSH2 0xC71 SWAP2 SWAP1 PUSH2 0x1B99 JUMP JUMPDEST POP PUSH0 DUP6 DUP8 PUSH20 0xFFFFFFFFFFFFFFFFFFFFFFFFFFFFFFFFFFFFFFFF AND PUSH4 0x70A08231 ADDRESS PUSH1 0x40 MLOAD DUP3 PUSH4 0xFFFFFFFF AND PUSH1 0xE0 SHL DUP2 MSTORE PUSH1 0x4 ADD PUSH2 0xCAD SWAP2 SWAP1 PUSH2 0x1776 JUMP JUMPDEST PUSH1 0x20 PUSH1 0x40 MLOAD DUP1 DUP4 SUB DUP2 DUP7 GAS STATICCALL ISZERO DUP1 ISZERO PUSH2 0xCC8 JUMPI RETURNDATASIZE PUSH0 PUSH0 RETURNDATACOPY RETURNDATASIZE PUSH0 REVERT JUMPDEST POP POP POP POP PUSH1 0x40 MLOAD RETURNDATASIZE PUSH1 0x1F NOT PUSH1 0x1F DUP3 ADD AND DUP3 ADD DUP1 PUSH1 0x40 MSTORE POP DUP2 ADD SWAP1 PUSH2 0xCEC SWAP2 SWAP1 PUSH2 0x1DD3 JUMP JUMPDEST PUSH2 0xCF6 SWAP2 SWAP1 PUSH2 0x1B15 JUMP JUMPDEST SWAP1 POP PUSH0 PUSH32 0x0 PUSH20 0xFFFFFFFFFFFFFFFFFFFFFFFFFFFFFFFFFFFFFFFF AND DUP9 PUSH20 0xFFFFFFFFFFFFFFFFFFFFFFFFFFFFFFFFFFFFFFFF AND EQ PUSH2 0xD72 JUMPI PUSH32 0x0 PUSH2 0xD94 JUMP JUMPDEST PUSH32 0x0 JUMPDEST SWAP1 POP PUSH0 DUP2 PUSH20 0xFFFFFFFFFFFFFFFFFFFFFFFFFFFFFFFFFFFFFFFF AND PUSH4 0x70A08231 ADDRESS PUSH1 0x40 MLOAD DUP3 PUSH4 0xFFFFFFFF AND PUSH1 0xE0 SHL DUP2 MSTORE PUSH1 0x4 ADD PUSH2 0xDD0 SWAP2 SWAP1 PUSH2 0x1776 JUMP JUMPDEST PUSH1 0x20 PUSH1 0x40 MLOAD DUP1 DUP4 SUB DUP2 DUP7 GAS STATICCALL ISZERO DUP1 ISZERO PUSH2 0xDEB JUMPI RETURNDATASIZE PUSH0 PUSH0 RETURNDATACOPY RETURNDATASIZE PUSH0 REVERT JUMPDEST POP POP POP POP PUSH1 0x40 MLOAD RETURNDATASIZE PUSH1 0x1F NOT PUSH1 0x1F DUP3 ADD AND DUP3 ADD DUP1 PUSH1 0x40 MSTORE POP DUP2 ADD SWAP1 PUSH2 0xE0F SWAP2 SWAP1 PUSH2 0x1DD3 JUMP JUMPDEST SWAP1 POP PUSH0 PUSH2 0x3E5 DUP10 PUSH2 0xE20 SWAP2 SWAP1 PUSH2 0x1A77 JUMP JUMPDEST SWAP1 POP PUSH0 DUP3 DUP3 PUSH2 0xE2F SWAP2 SWAP1 PUSH2 0x1A77 JUMP JUMPDEST SWAP1 POP PUSH0 DUP3 PUSH2 0x3E8 DUP8 PUSH2 0xE41 SWAP2 SWAP1 PUSH2 0x1A77 JUMP JUMPDEST PUSH2 0xE4B SWAP2 SWAP1 PUSH2 0x1C87 JUMP JUMPDEST SWAP1 POP DUP1 DUP3 PUSH2 0xE59 SWAP2 SWAP1 PUSH2 0x1AE5 JUMP JUMPDEST SWAP8 POP DUP10 DUP9 LT ISZERO PUSH2 0xE9E JUMPI PUSH1 0x40 MLOAD PUSH32 0x8C379A000000000000000000000000000000000000000000000000000000000 DUP2 MSTORE PUSH1 0x4 ADD PUSH2 0xE95 SWAP1 PUSH2 0x1E6E JUMP JUMPDEST PUSH1 0x40 MLOAD DUP1 SWAP2 SUB SWAP1 REVERT JUMPDEST PUSH0 PUSH20 0xFFFFFFFFFFFFFFFFFFFFFFFFFFFFFFFFFFFFFFFF AND PUSH1 0x6 PUSH0 SWAP1 SLOAD SWAP1 PUSH2 0x100 EXP SWAP1 DIV PUSH20 0xFFFFFFFFFFFFFFFFFFFFFFFFFFFFFFFFFFFFFFFF AND PUSH20 0xFFFFFFFFFFFFFFFFFFFFFFFFFFFFFFFFFFFFFFFF AND EQ ISZERO DUP1 ISZERO PUSH2 0xEFC JUMPI POP PUSH0 PUSH1 0x7 SLOAD GT JUMPDEST ISZERO PUSH2 0xFD5 JUMPI PUSH0 PUSH2 0x2710 PUSH1 0x7 SLOAD DUP11 PUSH2 0xF13 SWAP2 SWAP1 PUSH2 0x1A77 JUMP JUMPDEST PUSH2 0xF1D SWAP2 SWAP1 PUSH2 0x1AE5 JUMP JUMPDEST SWAP1 POP PUSH0 DUP2 GT ISZERO PUSH2 0xFD3 JUMPI DUP6 PUSH20 0xFFFFFFFFFFFFFFFFFFFFFFFFFFFFFFFFFFFFFFFF AND PUSH4 0xA9059CBB PUSH1 0x6 PUSH0 SWAP1 SLOAD SWAP1 PUSH2 0x100 EXP SWAP1 DIV PUSH20 0xFFFFFFFFFFFFFFFFFFFFFFFFFFFFFFFFFFFFFFFF AND DUP4 PUSH1 0x40 MLOAD DUP4 PUSH4 0xFFFFFFFF AND PUSH1 0xE0 SHL DUP2 MSTORE PUSH1 0x4 ADD PUSH2 0xF83 SWAP3 SWAP2 SWAP1 PUSH2 0x1B48 JUMP JUMPDEST PUSH1 0x20 PUSH1 0x40 MLOAD DUP1 DUP4 SUB DUP2 PUSH0 DUP8 GAS CALL ISZERO DUP1 ISZERO PUSH2 0xF9F JUMPI RETURNDATASIZE PUSH0 PUSH0 RETURNDATACOPY RETURNDATASIZE PUSH0 REVERT JUMPDEST POP POP POP POP PUSH1 0x40 MLOAD RETURNDATASIZE PUSH1 0x1F NOT PUSH1 0x1F DUP3 ADD AND DUP3 ADD DUP1 PUSH1 0x40 MSTORE POP DUP2 ADD SWAP1 PUSH2 0xFC3 SWAP2 SWAP1 PUSH2 0x1B99 JUMP JUMPDEST POP DUP1 DUP10 PUSH2 0xFD0 SWAP2 SWAP1 PUSH2 0x1B15 JUMP JUMPDEST SWAP9 POP JUMPDEST POP JUMPDEST DUP5 PUSH20 0xFFFFFFFFFFFFFFFFFFFFFFFFFFFFFFFFFFFFFFFF AND PUSH4 0xA9059CBB CALLER DUP11 PUSH1 0x40 MLOAD DUP4 PUSH4 0xFFFFFFFF AND PUSH1 0xE0 SHL DUP2 MSTORE PUSH1 0x4 ADD PUSH2 0x1010 SWAP3 SWAP2 SWAP1 PUSH2 0x1B48 JUMP JUMPDEST PUSH1 0x20 PUSH1 0x40 MLOAD DUP1 DUP4 SUB DUP2 PUSH0 DUP8 GAS CALL ISZERO DUP1 ISZERO PUSH2 0x102C JUMPI RETURNDATASIZE PUSH0 PUSH0 RETURNDATACOPY RETURNDATASIZE PUSH0 REVERT JUMPDEST POP POP POP POP PUSH1 0x40 MLOAD RETURNDATASIZE PUSH1 0x1F NOT PUSH1 0x1F DUP3 ADD AND DUP3 ADD DUP1 PUSH1 0x40 MSTORE POP DUP2 ADD SWAP1 PUSH2 0x1050 SWAP2 SWAP1 PUSH2 0x1B99 JUMP JUMPDEST POP PUSH32 0x0 PUSH20 0xFFFFFFFFFFFFFFFFFFFFFFFFFFFFFFFFFFFFFFFF AND PUSH4 0x70A08231 ADDRESS PUSH1 0x40 MLOAD DUP3 PUSH4 0xFFFFFFFF AND PUSH1 0xE0 SHL DUP2 MSTORE PUSH1 0x4 ADD PUSH2 0x10AA SWAP2 SWAP1 PUSH2 0x1776 JUMP JUMPDEST PUSH1 0x20 PUSH1 0x40 MLOAD DUP1 DUP4 SUB DUP2 DUP7 GAS STATICCALL ISZERO DUP1 ISZERO PUSH2 0x10C5 JUMPI RETURNDATASIZE PUSH0 PUSH0 RETURNDATACOPY RETURNDATASIZE PUSH0 REVERT JUMPDEST POP POP POP POP PUSH1 0x40 MLOAD RETURNDATASIZE PUSH1 0x1F NOT PUSH1 0x1F DUP3 ADD AND DUP3 ADD DUP1 PUSH1 0x40 MSTORE POP DUP2 ADD SWAP1 PUSH2 0x10E9 SWAP2 SWAP1 PUSH2 0x1DD3 JUMP JUMPDEST PUSH1 0x2 DUP2 SWAP1 SSTORE POP PUSH32 0x0 PUSH20 0xFFFFFFFFFFFFFFFFFFFFFFFFFFFFFFFFFFFFFFFF AND PUSH4 0x70A08231 ADDRESS PUSH1 0x40 MLOAD DUP3 PUSH4 0xFFFFFFFF AND PUSH1 0xE0 SHL DUP2 MSTORE PUSH1 0x4 ADD PUSH2 0x1148 SWAP2 SWAP1 PUSH2 0x1776 JUMP JUMPDEST PUSH1 0x20 PUSH1 0x40 MLOAD DUP1 DUP4 SUB DUP2 DUP7 GAS STATICCALL ISZERO DUP1 ISZERO PUSH2 0x1163 JUMPI RETURNDATASIZE PUSH0 PUSH0 RETURNDATACOPY RETURNDATASIZE PUSH0 REVERT JUMPDEST POP POP POP POP PUSH1 0x40 MLOAD RETURNDATASIZE PUSH1 0x1F NOT PUSH1 0x1F DUP3 ADD AND DUP3 ADD DUP1 PUSH1 0x40 MSTORE POP DUP2 ADD SWAP1 PUSH2 0x1187 SWAP2 SWAP1 PUSH2 0x1DD3 JUMP JUMPDEST PUSH1 0x3 DUP2 SWAP1 SSTORE POP DUP5 PUSH20 0xFFFFFFFFFFFFFFFFFFFFFFFFFFFFFFFFFFFFFFFF AND DUP13 PUSH20 0xFFFFFFFFFFFFFFFFFFFFFFFFFFFFFFFFFFFFFFFF AND CALLER PUSH20 0xFFFFFFFFFFFFFFFFFFFFFFFFFFFFFFFFFFFFFFFF AND PUSH32 0x692315744755EE6D80DECAEB993D4B1BB95FF5DB042CC47B32D5A7D858B01902 DUP15 DUP13 PUSH1 0x40 MLOAD PUSH2 0x1203 SWAP3 SWAP2 SWAP1 PUSH2 0x184C JUMP JUMPDEST PUSH1 0x40 MLOAD DUP1 SWAP2 SUB SWAP1 LOG4 POP POP POP POP POP POP POP PUSH2 0x121A PUSH2 0x16DE JUMP JUMPDEST SWAP5 SWAP4 POP POP POP POP JUMP JUMPDEST PUSH32 0x0 DUP2 JUMP JUMPDEST PUSH2 0x124E PUSH2 0x13B4 JUMP JUMPDEST PUSH0 PUSH20 0xFFFFFFFFFFFFFFFFFFFFFFFFFFFFFFFFFFFFFFFF AND DUP2 PUSH20 0xFFFFFFFFFFFFFFFFFFFFFFFFFFFFFFFFFFFFFFFF AND SUB PUSH2 0x12BC JUMPI PUSH1 0x40 MLOAD PUSH32 0x8C379A000000000000000000000000000000000000000000000000000000000 DUP2 MSTORE PUSH1 0x4 ADD PUSH2 0x12B3 SWAP1 PUSH2 0x1EFC JUMP JUMPDEST PUSH1 0x40 MLOAD DUP1 SWAP2 SUB SWAP1 REVERT JUMPDEST PUSH2 0x12C5 DUP2 PUSH2 0x1493 JUMP JUMPDEST POP JUMP JUMPDEST PUSH2 0x12D0 PUSH2 0x13B4 JUMP JUMPDEST PUSH0 PUSH1 0x6 PUSH0 SWAP1 SLOAD SWAP1 PUSH2 0x100 EXP SWAP1 DIV PUSH20 0xFFFFFFFFFFFFFFFFFFFFFFFFFFFFFFFFFFFFFFFF AND SWAP1 POP DUP2 PUSH1 0x6 PUSH0 PUSH2 0x100 EXP DUP2 SLOAD DUP2 PUSH20 0xFFFFFFFFFFFFFFFFFFFFFFFFFFFFFFFFFFFFFFFF MUL NOT AND SWAP1 DUP4 PUSH20 0xFFFFFFFFFFFFFFFFFFFFFFFFFFFFFFFFFFFFFFFF AND MUL OR SWAP1 SSTORE POP PUSH1 0x6 PUSH0 SWAP1 SLOAD SWAP1 PUSH2 0x100 EXP SWAP1 DIV PUSH20 0xFFFFFFFFFFFFFFFFFFFFFFFFFFFFFFFFFFFFFFFF AND PUSH20 0xFFFFFFFFFFFFFFFFFFFFFFFFFFFFFFFFFFFFFFFF AND DUP2 PUSH20 0xFFFFFFFFFFFFFFFFFFFFFFFFFFFFFFFFFFFFFFFF AND PUSH32 0xACDB35963FC2F391109A5045FD4850B0E0759D19F21FCAA7AB17B7D8512A9ECA PUSH1 0x40 MLOAD PUSH1 0x40 MLOAD DUP1 SWAP2 SUB SWAP1 LOG3 POP POP JUMP JUMPDEST PUSH2 0x13BC PUSH2 0x16E7 JUMP JUMPDEST PUSH20 0xFFFFFFFFFFFFFFFFFFFFFFFFFFFFFFFFFFFFFFFF AND PUSH2 0x13DA PUSH2 0x4AA JUMP JUMPDEST PUSH20 0xFFFFFFFFFFFFFFFFFFFFFFFFFFFFFFFFFFFFFFFF AND EQ PUSH2 0x1430 JUMPI PUSH1 0x40 MLOAD PUSH32 0x8C379A000000000000000000000000000000000000000000000000000000000 DUP2 MSTORE PUSH1 0x4 ADD PUSH2 0x1427 SWAP1 PUSH2 0x1F64 JUMP JUMPDEST PUSH1 0x40 MLOAD DUP1 SWAP2 SUB SWAP1 REVERT JUMPDEST JUMP JUMPDEST PUSH2 0x143A PUSH2 0x16EE JUMP JUMPDEST PUSH0 PUSH0 PUSH1 0x14 PUSH2 0x100 EXP DUP2 SLOAD DUP2 PUSH1 0xFF MUL NOT AND SWAP1 DUP4 ISZERO ISZERO MUL OR SWAP1 SSTORE POP PUSH32 0x5DB9EE0A495BF2E6FF9C91A7834C1BA4FDD244A5E8AA4E537BD38AEAE4B073AA PUSH2 0x147C PUSH2 0x16E7 JUMP JUMPDEST PUSH1 0x40 MLOAD PUSH2 0x1489 SWAP2 SWAP1 PUSH2 0x1776 JUMP JUMPDEST PUSH1 0x40 MLOAD DUP1 SWAP2 SUB SWAP1 LOG1 JUMP JUMPDEST PUSH0 PUSH0 PUSH0 SWAP1 SLOAD SWAP1 PUSH2 0x100 EXP SWAP1 DIV PUSH20 0xFFFFFFFFFFFFFFFFFFFFFFFFFFFFFFFFFFFFFFFF AND SWAP1 POP DUP2 PUSH0 PUSH0 PUSH2 0x100 EXP DUP2 SLOAD DUP2 PUSH20 0xFFFFFFFFFFFFFFFFFFFFFFFFFFFFFFFFFFFFFFFF MUL NOT AND SWAP1 DUP4 PUSH20 0xFFFFFFFFFFFFFFFFFFFFFFFFFFFFFFFFFFFFFFFF AND MUL OR SWAP1 SSTORE POP DUP2 PUSH20 0xFFFFFFFFFFFFFFFFFFFFFFFFFFFFFFFFFFFFFFFF AND DUP2 PUSH20 0xFFFFFFFFFFFFFFFFFFFFFFFFFFFFFFFFFFFFFFFF AND PUSH32 0x8BE0079C531659141344CD1FD0A4F28419497F9722A3DAAFE3B4186F6B6457E0 PUSH1 0x40 MLOAD PUSH1 0x40 MLOAD DUP1 SWAP2 SUB SWAP1 LOG3 POP POP JUMP JUMPDEST PUSH2 0x155C PUSH2 0x15B6 JUMP JUMPDEST PUSH1 0x1 PUSH0 PUSH1 0x14 PUSH2 0x100 EXP DUP2 SLOAD DUP2 PUSH1 0xFF MUL NOT AND SWAP1 DUP4 ISZERO ISZERO MUL OR SWAP1 SSTORE POP PUSH32 0x62E78CEA01BEE320CD4E420270B5EA74000D11B0C9F74754EBDBFC544B05A258 PUSH2 0x159F PUSH2 0x16E7 JUMP JUMPDEST PUSH1 0x40 MLOAD PUSH2 0x15AC SWAP2 SWAP1 PUSH2 0x1776 JUMP JUMPDEST PUSH1 0x40 MLOAD DUP1 SWAP2 SUB SWAP1 LOG1 JUMP JUMPDEST PUSH2 0x15BE PUSH2 0x3D7 JUMP JUMPDEST ISZERO PUSH2 0x15FE JUMPI PUSH1 0x40 MLOAD PUSH32 0x8C379A000000000000000000000000000000000000000000000000000000000 DUP2 MSTORE PUSH1 0x4 ADD PUSH2 0x15F5 SWAP1 PUSH2 0x1FCC JUMP JUMPDEST PUSH1 0x40 MLOAD DUP1 SWAP2 SUB SWAP1 REVERT JUMPDEST JUMP JUMPDEST PUSH0 PUSH1 0x3 DUP3 GT ISZERO PUSH2 0x1665 JUMPI DUP2 SWAP1 POP PUSH0 PUSH1 0x1 PUSH1 0x2 DUP5 PUSH2 0x161D SWAP2 SWAP1 PUSH2 0x1AE5 JUMP JUMPDEST PUSH2 0x1627 SWAP2 SWAP1 PUSH2 0x1C87 JUMP JUMPDEST SWAP1 POP JUMPDEST DUP2 DUP2 LT ISZERO PUSH2 0x165F JUMPI DUP1 SWAP2 POP PUSH1 0x2 DUP2 DUP3 DUP6 PUSH2 0x1644 SWAP2 SWAP1 PUSH2 0x1AE5 JUMP JUMPDEST PUSH2 0x164E SWAP2 SWAP1 PUSH2 0x1C87 JUMP JUMPDEST PUSH2 0x1658 SWAP2 SWAP1 PUSH2 0x1AE5 JUMP JUMPDEST SWAP1 POP PUSH2 0x162A JUMP JUMPDEST POP PUSH2 0x1672 JUMP JUMPDEST PUSH0 DUP3 EQ PUSH2 0x1671 JUMPI PUSH1 0x1 SWAP1 POP JUMPDEST JUMPDEST SWAP2 SWAP1 POP JUMP JUMPDEST PUSH0 DUP2 DUP4 LT PUSH2 0x1685 JUMPI DUP2 PUSH2 0x1687 JUMP JUMPDEST DUP3 JUMPDEST SWAP1 POP SWAP3 SWAP2 POP POP JUMP JUMPDEST PUSH1 0x2 PUSH1 0x1 SLOAD SUB PUSH2 0x16D4 JUMPI PUSH1 0x40 MLOAD PUSH32 0x8C379A000000000000000000000000000000000000000000000000000000000 DUP2 MSTORE PUSH1 0x4 ADD PUSH2 0x16CB SWAP1 PUSH2 0x2034 JUMP JUMPDEST PUSH1 0x40 MLOAD DUP1 SWAP2 SUB SWAP1 REVERT JUMPDEST PUSH1 0x2 PUSH1 0x1 DUP2 SWAP1 SSTORE POP JUMP JUMPDEST PUSH1 0x1 DUP1 DUP2 SWAP1 SSTORE POP JUMP JUMPDEST PUSH0 CALLER SWAP1 POP SWAP1 JUMP JUMPDEST PUSH2 0x16F6 PUSH2 0x3D7 JUMP JUMPDEST PUSH2 0x1735 JUMPI PUSH1 0x40 MLOAD PUSH32 0x8C379A000000000000000000000000000000000000000000000000000000000 DUP2 MSTORE PUSH1 0x4 ADD PUSH2 0x172C SWAP1 PUSH2 0x209C JUMP JUMPDEST PUSH1 0x40 MLOAD DUP1 SWAP2 SUB SWAP1 REVERT JUMPDEST JUMP JUMPDEST PUSH0 PUSH20 0xFFFFFFFFFFFFFFFFFFFFFFFFFFFFFFFFFFFFFFFF DUP3 AND SWAP1 POP SWAP2 SWAP1 POP JUMP JUMPDEST PUSH0 PUSH2 0x1760 DUP3 PUSH2 0x1737 JUMP JUMPDEST SWAP1 POP SWAP2 SWAP1 POP JUMP JUMPDEST PUSH2 0x1770 DUP2 PUSH2 0x1756 JUMP JUMPDEST DUP3 MSTORE POP POP JUMP JUMPDEST PUSH0 PUSH1 0x20 DUP3 ADD SWAP1 POP PUSH2 0x1789 PUSH0 DUP4 ADD DUP5 PUSH2 0x1767 JUMP JUMPDEST SWAP3 SWAP2 POP POP JUMP JUMPDEST PUSH0 DUP2 SWAP1 POP SWAP2 SWAP1 POP JUMP JUMPDEST PUSH2 0x17A1 DUP2 PUSH2 0x178F JUMP JUMPDEST DUP3 MSTORE POP POP JUMP JUMPDEST PUSH0 PUSH1 0x20 DUP3 ADD SWAP1 POP PUSH2 0x17BA PUSH0 DUP4 ADD DUP5 PUSH2 0x1798 JUMP JUMPDEST SWAP3 SWAP2 POP POP JUMP JUMPDEST PUSH0 DUP2 ISZERO ISZERO SWAP1 POP SWAP2 SWAP1 POP JUMP JUMPDEST PUSH2 0x17D4 DUP2 PUSH2 0x17C0 JUMP JUMPDEST DUP3 MSTORE POP POP JUMP JUMPDEST PUSH0 PUSH1 0x20 DUP3 ADD SWAP1 POP PUSH2 0x17ED PUSH0 DUP4 ADD DUP5 PUSH2 0x17CB JUMP JUMPDEST SWAP3 SWAP2 POP POP JUMP JUMPDEST PUSH0 PUSH0 REVERT JUMPDEST PUSH2 0x1800 DUP2 PUSH2 0x178F JUMP JUMPDEST DUP2 EQ PUSH2 0x180A JUMPI PUSH0 PUSH0 REVERT JUMPDEST POP JUMP JUMPDEST PUSH0 DUP2 CALLDATALOAD SWAP1 POP PUSH2 0x181B DUP2 PUSH2 0x17F7 JUMP JUMPDEST SWAP3 SWAP2 POP POP JUMP JUMPDEST PUSH0 PUSH1 0x20 DUP3 DUP5 SUB SLT ISZERO PUSH2 0x1836 JUMPI PUSH2 0x1835 PUSH2 0x17F3 JUMP JUMPDEST JUMPDEST PUSH0 PUSH2 0x1843 DUP5 DUP3 DUP6 ADD PUSH2 0x180D JUMP JUMPDEST SWAP2 POP POP SWAP3 SWAP2 POP POP JUMP JUMPDEST PUSH0 PUSH1 0x40 DUP3 ADD SWAP1 POP PUSH2 0x185F PUSH0 DUP4 ADD DUP6 PUSH2 0x1798 JUMP JUMPDEST PUSH2 0x186C PUSH1 0x20 DUP4 ADD DUP5 PUSH2 0x1798 JUMP JUMPDEST SWAP4 SWAP3 POP POP POP JUMP JUMPDEST PUSH2 0x187C DUP2 PUSH2 0x1756 JUMP JUMPDEST DUP2 EQ PUSH2 0x1886 JUMPI PUSH0 PUSH0 REVERT JUMPDEST POP JUMP JUMPDEST PUSH0 DUP2 CALLDATALOAD SWAP1 POP PUSH2 0x1897 DUP2 PUSH2 0x1873 JUMP JUMPDEST SWAP3 SWAP2 POP POP JUMP JUMPDEST PUSH0 PUSH1 0x20 DUP3 DUP5 SUB SLT ISZERO PUSH2 0x18B2 JUMPI PUSH2 0x18B1 PUSH2 0x17F3 JUMP JUMPDEST JUMPDEST PUSH0 PUSH2 0x18BF DUP5 DUP3 DUP6 ADD PUSH2 0x1889 JUMP JUMPDEST SWAP2 POP POP SWAP3 SWAP2 POP POP JUMP JUMPDEST PUSH0 PUSH0 PUSH1 0x40 DUP4 DUP6 SUB SLT ISZERO PUSH2 0x18DE JUMPI PUSH2 0x18DD PUSH2 0x17F3 JUMP JUMPDEST JUMPDEST PUSH0 PUSH2 0x18EB DUP6 DUP3 DUP7 ADD PUSH2 0x180D JUMP JUMPDEST SWAP3 POP POP PUSH1 0x20 PUSH2 0x18FC DUP6 DUP3 DUP7 ADD PUSH2 0x180D JUMP JUMPDEST SWAP2 POP POP SWAP3 POP SWAP3 SWAP1 POP JUMP JUMPDEST PUSH0 PUSH0 PUSH0 PUSH0 PUSH1 0x80 DUP6 DUP8 SUB SLT ISZERO PUSH2 0x191E JUMPI PUSH2 0x191D PUSH2 0x17F3 JUMP JUMPDEST JUMPDEST PUSH0 PUSH2 0x192B DUP8 DUP3 DUP9 ADD PUSH2 0x1889 JUMP JUMPDEST SWAP5 POP POP PUSH1 0x20 PUSH2 0x193C DUP8 DUP3 DUP9 ADD PUSH2 0x180D JUMP JUMPDEST SWAP4 POP POP PUSH1 0x40 PUSH2 0x194D DUP8 DUP3 DUP9 ADD PUSH2 0x180D JUMP JUMPDEST SWAP3 POP POP PUSH1 0x60 PUSH2 0x195E DUP8 DUP3 DUP9 ADD PUSH2 0x180D JUMP JUMPDEST SWAP2 POP POP SWAP3 SWAP6 SWAP2 SWAP5 POP SWAP3 POP JUMP JUMPDEST PUSH0 DUP3 DUP3 MSTORE PUSH1 0x20 DUP3 ADD SWAP1 POP SWAP3 SWAP2 POP POP JUMP JUMPDEST PUSH32 0x4E756161537761703A204645455F544F4F5F4849474800000000000000000000 PUSH0 DUP3 ADD MSTORE POP JUMP JUMPDEST PUSH0 PUSH2 0x19AE PUSH1 0x16 DUP4 PUSH2 0x196A JUMP JUMPDEST SWAP2 POP PUSH2 0x19B9 DUP3 PUSH2 0x197A JUMP JUMPDEST PUSH1 0x20 DUP3 ADD SWAP1 POP SWAP2 SWAP1 POP JUMP JUMPDEST PUSH0 PUSH1 0x20 DUP3 ADD SWAP1 POP DUP2 DUP2 SUB PUSH0 DUP4 ADD MSTORE PUSH2 0x19DB DUP2 PUSH2 0x19A2 JUMP JUMPDEST SWAP1 POP SWAP2 SWAP1 POP JUMP JUMPDEST PUSH32 0x4E756161537761703A20494E53554646494349454E545F534841524553000000 PUSH0 DUP3 ADD MSTORE POP JUMP JUMPDEST PUSH0 PUSH2 0x1A16 PUSH1 0x1D DUP4 PUSH2 0x196A JUMP JUMPDEST SWAP2 POP PUSH2 0x1A21 DUP3 PUSH2 0x19E2 JUMP JUMPDEST PUSH1 0x20 DUP3 ADD SWAP1 POP SWAP2 SWAP1 POP JUMP JUMPDEST PUSH0 PUSH1 0x20 DUP3 ADD SWAP1 POP DUP2 DUP2 SUB PUSH0 DUP4 ADD MSTORE PUSH2 0x1A43 DUP2 PUSH2 0x1A0A JUMP JUMPDEST SWAP1 POP SWAP2 SWAP1 POP JUMP JUMPDEST PUSH32 0x4E487B7100000000000000000000000000000000000000000000000000000000 PUSH0 MSTORE PUSH1 0x11 PUSH1 0x4 MSTORE PUSH1 0x24 PUSH0 REVERT JUMPDEST PUSH0 PUSH2 0x1A81 DUP3 PUSH2 0x178F JUMP JUMPDEST SWAP2 POP PUSH2 0x1A8C DUP4 PUSH2 0x178F JUMP JUMPDEST SWAP3 POP DUP3 DUP3 MUL PUSH2 0x1A9A DUP2 PUSH2 0x178F JUMP JUMPDEST SWAP2 POP DUP3 DUP3 DIV DUP5 EQ DUP4 ISZERO OR PUSH2 0x1AB1 JUMPI PUSH2 0x1AB0 PUSH2 0x1A4A JUMP JUMPDEST JUMPDEST POP SWAP3 SWAP2 POP POP JUMP JUMPDEST PUSH32 0x4E487B7100000000000000000000000000000000000000000000000000000000 PUSH0 MSTORE PUSH1 0x12 PUSH1 0x4 MSTORE PUSH1 0x24 PUSH0 REVERT JUMPDEST PUSH0 PUSH2 0x1AEF DUP3 PUSH2 0x178F JUMP JUMPDEST SWAP2 POP PUSH2 0x1AFA DUP4 PUSH2 0x178F JUMP JUMPDEST SWAP3 POP DUP3 PUSH2 0x1B0A JUMPI PUSH2 0x1B09 PUSH2 0x1AB8 JUMP JUMPDEST JUMPDEST DUP3 DUP3 DIV SWAP1 POP SWAP3 SWAP2 POP POP JUMP JUMPDEST PUSH0 PUSH2 0x1B1F DUP3 PUSH2 0x178F JUMP JUMPDEST SWAP2 POP PUSH2 0x1B2A DUP4 PUSH2 0x178F JUMP JUMPDEST SWAP3 POP DUP3 DUP3 SUB SWAP1 POP DUP2 DUP2 GT ISZERO PUSH2 0x1B42 JUMPI PUSH2 0x1B41 PUSH2 0x1A4A JUMP JUMPDEST JUMPDEST SWAP3 SWAP2 POP POP JUMP JUMPDEST PUSH0 PUSH1 0x40 DUP3 ADD SWAP1 POP PUSH2 0x1B5B PUSH0 DUP4 ADD DUP6 PUSH2 0x1767 JUMP JUMPDEST PUSH2 0x1B68 PUSH1 0x20 DUP4 ADD DUP5 PUSH2 0x1798 JUMP JUMPDEST SWAP4 SWAP3 POP POP POP JUMP JUMPDEST PUSH2 0x1B78 DUP2 PUSH2 0x17C0 JUMP JUMPDEST DUP2 EQ PUSH2 0x1B82 JUMPI PUSH0 PUSH0 REVERT JUMPDEST POP JUMP JUMPDEST PUSH0 DUP2 MLOAD SWAP1 POP PUSH2 0x1B93 DUP2 PUSH2 0x1B6F JUMP JUMPDEST SWAP3 SWAP2 POP POP JUMP JUMPDEST PUSH0 PUSH1 0x20 DUP3 DUP5 SUB SLT ISZERO PUSH2 0x1BAE JUMPI PUSH2 0x1BAD PUSH2 0x17F3 JUMP JUMPDEST JUMPDEST PUSH0 PUSH2 0x1BBB DUP5 DUP3 DUP6 ADD PUSH2 0x1B85 JUMP JUMPDEST SWAP2 POP POP SWAP3 SWAP2 POP POP JUMP JUMPDEST PUSH0 PUSH1 0x60 DUP3 ADD SWAP1 POP PUSH2 0x1BD7 PUSH0 DUP4 ADD DUP7 PUSH2 0x1767 JUMP JUMPDEST PUSH2 0x1BE4 PUSH1 0x20 DUP4 ADD DUP6 PUSH2 0x1767 JUMP JUMPDEST PUSH2 0x1BF1 PUSH1 0x40 DUP4 ADD DUP5 PUSH2 0x1798 JUMP JUMPDEST SWAP5 SWAP4 POP POP POP POP JUMP JUMPDEST PUSH32 0x4E756161537761703A20494E53554646494349454E545F4C4951554944495459 PUSH0 DUP3 ADD MSTORE PUSH32 0x5F4D494E54454400000000000000000000000000000000000000000000000000 PUSH1 0x20 DUP3 ADD MSTORE POP JUMP JUMPDEST PUSH0 PUSH2 0x1C53 PUSH1 0x27 DUP4 PUSH2 0x196A JUMP JUMPDEST SWAP2 POP PUSH2 0x1C5E DUP3 PUSH2 0x1BF9 JUMP JUMPDEST PUSH1 0x40 DUP3 ADD SWAP1 POP SWAP2 SWAP1 POP JUMP JUMPDEST PUSH0 PUSH1 0x20 DUP3 ADD SWAP1 POP DUP2 DUP2 SUB PUSH0 DUP4 ADD MSTORE PUSH2 0x1C80 DUP2 PUSH2 0x1C47 JUMP JUMPDEST SWAP1 POP SWAP2 SWAP1 POP JUMP JUMPDEST PUSH0 PUSH2 0x1C91 DUP3 PUSH2 0x178F JUMP JUMPDEST SWAP2 POP PUSH2 0x1C9C DUP4 PUSH2 0x178F JUMP JUMPDEST SWAP3 POP DUP3 DUP3 ADD SWAP1 POP DUP1 DUP3 GT ISZERO PUSH2 0x1CB4 JUMPI PUSH2 0x1CB3 PUSH2 0x1A4A JUMP JUMPDEST JUMPDEST SWAP3 SWAP2 POP POP JUMP JUMPDEST PUSH0 PUSH1 0x60 DUP3 ADD SWAP1 POP PUSH2 0x1CCD PUSH0 DUP4 ADD DUP7 PUSH2 0x1798 JUMP JUMPDEST PUSH2 0x1CDA PUSH1 0x20 DUP4 ADD DUP6 PUSH2 0x1798 JUMP JUMPDEST PUSH2 0x1CE7 PUSH1 0x40 DUP4 ADD DUP5 PUSH2 0x1798 JUMP JUMPDEST SWAP5 SWAP4 POP POP POP POP JUMP JUMPDEST PUSH32 0x4E756161537761703A20444541444C494E455F45585049524544000000000000 PUSH0 DUP3 ADD MSTORE POP JUMP JUMPDEST PUSH0 PUSH2 0x1D23 PUSH1 0x1A DUP4 PUSH2 0x196A JUMP JUMPDEST SWAP2 POP PUSH2 0x1D2E DUP3 PUSH2 0x1CEF JUMP JUMPDEST PUSH1 0x20 DUP3 ADD SWAP1 POP SWAP2 SWAP1 POP JUMP JUMPDEST PUSH0 PUSH1 0x20 DUP3 ADD SWAP1 POP DUP2 DUP2 SUB PUSH0 DUP4 ADD MSTORE PUSH2 0x1D50 DUP2 PUSH2 0x1D17 JUMP JUMPDEST SWAP1 POP SWAP2 SWAP1 POP JUMP JUMPDEST PUSH32 0x4E756161537761703A20494E56414C49445F544F4B454E000000000000000000 PUSH0 DUP3 ADD MSTORE POP JUMP JUMPDEST PUSH0 PUSH2 0x1D8B PUSH1 0x17 DUP4 PUSH2 0x196A JUMP JUMPDEST SWAP2 POP PUSH2 0x1D96 DUP3 PUSH2 0x1D57 JUMP JUMPDEST PUSH1 0x20 DUP3 ADD SWAP1 POP SWAP2 SWAP1 POP JUMP JUMPDEST PUSH0 PUSH1 0x20 DUP3 ADD SWAP1 POP DUP2 DUP2 SUB PUSH0 DUP4 ADD MSTORE PUSH2 0x1DB8 DUP2 PUSH2 0x1D7F JUMP JUMPDEST SWAP1 POP SWAP2 SWAP1 POP JUMP JUMPDEST PUSH0 DUP2 MLOAD SWAP1 POP PUSH2 0x1DCD DUP2 PUSH2 0x17F7 JUMP JUMPDEST SWAP3 SWAP2 POP POP JUMP JUMPDEST PUSH0 PUSH1 0x20 DUP3 DUP5 SUB SLT ISZERO PUSH2 0x1DE8 JUMPI PUSH2 0x1DE7 PUSH2 0x17F3 JUMP JUMPDEST JUMPDEST PUSH0 PUSH2 0x1DF5 DUP5 DUP3 DUP6 ADD PUSH2 0x1DBF JUMP JUMPDEST SWAP2 POP POP SWAP3 SWAP2 POP POP JUMP JUMPDEST PUSH32 0x4E756161537761703A20494E53554646494349454E545F4F55545055545F414D PUSH0 DUP3 ADD MSTORE PUSH32 0x4F554E5400000000000000000000000000000000000000000000000000000000 PUSH1 0x20 DUP3 ADD MSTORE POP JUMP JUMPDEST PUSH0 PUSH2 0x1E58 PUSH1 0x24 DUP4 PUSH2 0x196A JUMP JUMPDEST SWAP2 POP PUSH2 0x1E63 DUP3 PUSH2 0x1DFE JUMP JUMPDEST PUSH1 0x40 DUP3 ADD SWAP1 POP SWAP2 SWAP1 POP JUMP JUMPDEST PUSH0 PUSH1 0x20 DUP3 ADD SWAP1 POP DUP2 DUP2 SUB PUSH0 DUP4 ADD MSTORE PUSH2 0x1E85 DUP2 PUSH2 0x1E4C JUMP JUMPDEST SWAP1 POP SWAP2 SWAP1 POP JUMP JUMPDEST PUSH32 0x4F776E61626C653A206E6577206F776E657220697320746865207A65726F2061 PUSH0 DUP3 ADD MSTORE PUSH32 0x6464726573730000000000000000000000000000000000000000000000000000 PUSH1 0x20 DUP3 ADD MSTORE POP JUMP JUMPDEST PUSH0 PUSH2 0x1EE6 PUSH1 0x26 DUP4 PUSH2 0x196A JUMP JUMPDEST SWAP2 POP PUSH2 0x1EF1 DUP3 PUSH2 0x1E8C JUMP JUMPDEST PUSH1 0x40 DUP3 ADD SWAP1 POP SWAP2 SWAP1 POP JUMP JUMPDEST PUSH0 PUSH1 0x20 DUP3 ADD SWAP1 POP DUP2 DUP2 SUB PUSH0 DUP4 ADD MSTORE PUSH2 0x1F13 DUP2 PUSH2 0x1EDA JUMP JUMPDEST SWAP1 POP SWAP2 SWAP1 POP JUMP JUMPDEST PUSH32 0x4F776E61626C653A2063616C6C6572206973206E6F7420746865206F776E6572 PUSH0 DUP3 ADD MSTORE POP JUMP JUMPDEST PUSH0 PUSH2 0x1F4E PUSH1 0x20 DUP4 PUSH2 0x196A JUMP JUMPDEST SWAP2 POP PUSH2 0x1F59 DUP3 PUSH2 0x1F1A JUMP JUMPDEST PUSH1 0x20 DUP3 ADD SWAP1 POP SWAP2 SWAP1 POP JUMP JUMPDEST PUSH0 PUSH1 0x20 DUP3 ADD SWAP1 POP DUP2 DUP2 SUB PUSH0 DUP4 ADD MSTORE PUSH2 0x1F7B DUP2 PUSH2 0x1F42 JUMP JUMPDEST SWAP1 POP SWAP2 SWAP1 POP JUMP JUMPDEST PUSH32 0x5061757361626C653A2070617573656400000000000000000000000000000000 PUSH0 DUP3 ADD MSTORE POP JUMP JUMPDEST PUSH0 PUSH2 0x1FB6 PUSH1 0x10 DUP4 PUSH2 0x196A JUMP JUMPDEST SWAP2 POP PUSH2 0x1FC1 DUP3 PUSH2 0x1F82 JUMP JUMPDEST PUSH1 0x20 DUP3 ADD SWAP1 POP SWAP2 SWAP1 POP JUMP JUMPDEST PUSH0 PUSH1 0x20 DUP3 ADD SWAP1 POP DUP2 DUP2 SUB PUSH0 DUP4 ADD MSTORE PUSH2 0x1FE3 DUP2 PUSH2 0x1FAA JUMP JUMPDEST SWAP1 POP SWAP2 SWAP1 POP JUMP JUMPDEST PUSH32 0x5265656E7472616E637947756172643A207265656E7472616E742063616C6C00 PUSH0 DUP3 ADD MSTORE POP JUMP JUMPDEST PUSH0 PUSH2 0x201E PUSH1 0x1F DUP4 PUSH2 0x196A JUMP JUMPDEST SWAP2 POP PUSH2 0x2029 DUP3 PUSH2 0x1FEA JUMP JUMPDEST PUSH1 0x20 DUP3 ADD SWAP1 POP SWAP2 SWAP1 POP JUMP JUMPDEST PUSH0 PUSH1 0x20 DUP3 ADD SWAP1 POP DUP2 DUP2 SUB PUSH0 DUP4 ADD MSTORE PUSH2 0x204B DUP2 PUSH2 0x2012 JUMP JUMPDEST SWAP1 POP SWAP2 SWAP1 POP JUMP JUMPDEST PUSH32 0x5061757361626C653A206E6F7420706175736564000000000000000000000000 PUSH0 DUP3 ADD MSTORE POP JUMP JUMPDEST PUSH0 PUSH2 0x2086 PUSH1 0x14 DUP4 PUSH2 0x196A JUMP JUMPDEST SWAP2 POP PUSH2 0x2091 DUP3 PUSH2 0x2052 JUMP JUMPDEST PUSH1 0x20 DUP3 ADD SWAP1 POP SWAP2 SWAP1 POP JUMP JUMPDEST PUSH0 PUSH1 0x20 DUP3 ADD SWAP1 POP DUP2 DUP2 SUB PUSH0 DUP4 ADD MSTORE PUSH2 0x20B3 DUP2 PUSH2 0x207A JUMP JUMPDEST SWAP1 POP SWAP2 SWAP1 POP JUMP INVALID LOG2 PUSH5 0x6970667358 0x22 SLT KECCAK256 0x25 PUSH18 0xFAF1E7C203264D6FC42002FFC857679DDB0F TLOAD SIGNEXTEND 0xAE MSIZE JUMPF 0xA57C PUSH31 0xEC11B3E764736F6C634300081E003300000000000000000000000000000000 "
				},
				"gasEstimates": {
					"creation": {
						"codeDepositCost": "1686400",
						"executionCost": "infinite",
						"totalCost": "infinite"
					},
					"external": {
						"add_liquidity(uint256,uint256)": "infinite",
						"feeTo()": "2532",
						"liquidityShares(address)": "2913",
						"owner()": "2581",
						"pause()": "infinite",
						"paused()": "2612",
						"protocolFeeBps()": "2493",
						"remove_liquidity(uint256)": "infinite",
						"renounceOwnership()": "30498",
						"reserve0()": "2470",
						"reserve1()": "2492",
						"setFeeTo(address)": "32912",
						"setProtocolFee(uint256)": "infinite",
						"swap(address,uint256,uint256,uint256)": "infinite",
						"token0()": "infinite",
						"token1()": "infinite",
						"totalShares()": "2515",
						"transferOwnership(address)": "30816",
						"unpause()": "infinite"
					},
					"internal": {
						"min(uint256,uint256)": "63",
						"sqrt(uint256)": "infinite"
					}
				},
				"methodIdentifiers": {
					"add_liquidity(uint256,uint256)": "c4adc97b",
					"feeTo()": "017e7e58",
					"liquidityShares(address)": "9db4aa04",
					"owner()": "8da5cb5b",
					"pause()": "8456cb59",
					"paused()": "5c975abb",
					"protocolFeeBps()": "35659fb8",
					"remove_liquidity(uint256)": "978ae06f",
					"renounceOwnership()": "715018a6",
					"reserve0()": "443cb4bc",
					"reserve1()": "5a76f25e",
					"setFeeTo(address)": "f46901ed",
					"setProtocolFee(uint256)": "787dce3d",
					"swap(address,uint256,uint256,uint256)": "c9ec9248",
					"token0()": "0dfe1681",
					"token1()": "d21220a7",
					"totalShares()": "3a98ef39",
					"transferOwnership(address)": "f2fde38b",
					"unpause()": "3f4ba83a"
				}
			},
			"storageLayout": {
				"storage": [
					{
						"astId": 665,
						"contract": "contracts/nuaa_swap.sol:NuaaSwap",
						"label": "_owner",
						"offset": 0,
						"slot": "0",
						"type": "t_address"
					},
					{
						"astId": 788,
						"contract": "contracts/nuaa_swap.sol:NuaaSwap",
						"label": "_paused",
						"offset": 20,
						"slot": "0",
						"type": "t_bool"
					},
					{
						"astId": 889,
						"contract": "contracts/nuaa_swap.sol:NuaaSwap",
						"label": "_status",
						"offset": 0,
						"slot": "1",
						"type": "t_uint256"
					},
					{
						"astId": 44,
						"contract": "contracts/nuaa_swap.sol:NuaaSwap",
						"label": "reserve0",
						"offset": 0,
						"slot": "2",
						"type": "t_uint256"
					},
					{
						"astId": 46,
						"contract": "contracts/nuaa_swap.sol:NuaaSwap",
						"label": "reserve1",
						"offset": 0,
						"slot": "3",
						"type": "t_uint256"
					},
					{
						"astId": 50,
						"contract": "contracts/nuaa_swap.sol:NuaaSwap",
						"label": "liquidityShares",
						"offset": 0,
						"slot": "4",
						"type": "t_mapping(t_address,t_uint256)"
					},
					{
						"astId": 52,
						"contract": "contracts/nuaa_swap.sol:NuaaSwap",
						"label": "totalShares",
						"offset": 0,
						"slot": "5",
						"type": "t_uint256"
					},
					{
						"astId": 54,
						"contract": "contracts/nuaa_swap.sol:NuaaSwap",
						"label": "feeTo",
						"offset": 0,
						"slot": "6",
						"type": "t_address"
					},
					{
						"astId": 56,
						"contract": "contracts/nuaa_swap.sol:NuaaSwap",
						"label": "protocolFeeBps",
						"offset": 0,
						"slot": "7",
						"type": "t_uint256"
					}
				],
				"types": {
					"t_address": {
						"encoding": "inplace",
						"label": "address",
						"numberOfBytes": "20"
					},
					"t_bool": {
						"encoding": "inplace",
						"label": "bool",
						"numberOfBytes": "1"
					},
					"t_mapping(t_address,t_uint256)": {
						"encoding": "mapping",
						"key": "t_address",
						"label": "mapping(address => uint256)",
						"numberOfBytes": "32",
						"value": "t_uint256"
					},
					"t_uint256": {
						"encoding": "inplace",
						"label": "uint256",
						"numberOfBytes": "32"
					}
				}
			},
			"userdoc": {
				"kind": "user",
				"methods": {},
				"version": 1
			}
		}
	}
}